:020000040800F2
:10000000C84B00209D010008CD390008833400084A
:10001000C9390008450B0008D5520008000000004F
:100020000000000000000000000000002D4C00084F
:10003000730C000800000000CF3900082F4C0008A6
:10004000B7010008B7010008B7010008B7010008B0
:10005000B7010008B7010008B7010008B7010008A0
:10006000B7010008B7010008B7010008B701000890
:10007000B7010008B7010008B7010008B701000880
:10008000B7010008B7010008B7010008B701000870
:10009000B7010008B7010008B7010008B701000860
:1000A000B7010008B7010008B7010008B701000850
:1000B000B7010008B7010008B7010008B701000840
:1000C000B7010008B7010008B7010008B701000830
:1000D000B7010008B7010008C5520008B7010008C1
:1000E000B7010008B7010008B7010008B701000810
:1000F000B7010008B7010008B7010008B701000800
:10010000B70100081D3A0008B7010008B701000850
:10011000B7010008B7010008B7010008B7010008DF
:10012000490B0008B7010008B7010008590B000887
:10013000B7010008750C0008B7010008B7010008F6
:10014000B7010008B7010008B7010008B7010008AF
:10015000B7010008B7010008B7010008B70100089F
:10016000B7010008B7010008B7010008B70100088F
:10017000B7010008B7010008B7010008000000003F
:10018000B7010008B7010008DFF80CD000F03CFB15
:10019000004800479D8B0008C84B00200648804758
:1001A00006480047FEE7FEE7FEE7FEE7FEE7FEE75C
:1001B000FEE7FEE7FEE7FEE7F14C000889010008D4
:1001C0002DE9F05F0546002092469B46884606468C
:1001D000814640241BE0284641464746224600F01F
:1001E00098F953465A46C01A914110D31146184601
:1001F000224600F07FF92D1A67EB01084F46224690
:100200000120002100F076F917EB00094E41201E75
:10021000A4F10104DFDC484631462A464346BDE8E6
:10022000F09F40EA01039B0703D009E008C9121FB1
:1002300008C0042AFAD203E011F8013B00F8013BA0
:10024000521EF9D27047D2B201E000F8012B491ECC
:10025000FBD270470022F6E710B513460A46044663
:100260001946FFF7F0FF204610BD30B505462A4677
:100270000B4612F8010B13F8014B08B1A042F8D05D
:100280001CB1002802D06D1CF1E7284630BD2DE9D5
:10029000FE4F81EA030404F0004421F00041009481
:1002A0004FF0000B23F0004350EA01045ED052EA05
:1002B00003045BD0C3F30A54C1F30A552C44A4F2DF
:1002C000F3340194A0FB0254C1F3130141F48011F3
:1002D000C3F3130343F4801301FB024400FB034EFA
:1002E000840A970A44EA815447EA8357A4FB0768C3
:1002F00002958D0A05FB07854FEA932C04FB0C54ED
:100300002705029D4FEA065847EA1637B5EB080560
:100310006EEB070C870E920E47EA811742EA8312B2
:10032000A7FB0201B6EB0B0164EB00042B0D43EAC3
:100330000C335E1844EB1C50DA465146E7FB0201D1
:10034000C5F313044FEA0B3343EA14534FEA043264
:10035000019C43EA0603A4F10C040294009CCDE93D
:1003600000B400F02CF903B0BDE8F08F0020014686
:10037000F9E72DE9F04D81EA030404F0004B21F088
:10038000004514464FF0000A23F0004150EA0502F0
:1003900020D054EA01021DD0C5F30A570246C5F326
:1003A0001303C1F31300C1F30A5640F4801543F45C
:1003B0008013A7EB0608101BD64608F2FD3873EB36
:1003C000050002D308F1010801E092185B41B8F181
:1003D000000F03DA00200146BDE8F08D00204FF445
:1003E0008011064684460EE0171B73EB050705D304
:1003F000121B63EB050306434CEA010C49084FEA64
:10040000300092185B4150EA0107EDD152EA030037
:1004100012D082EA040083EA0501084305D0101BCC
:10042000AB4106D20122002306E000224FF0004338
:1004300002E06FF0010253101AEB06004CEB08517A
:1004400010EB0A0041EB0B01BDE8F04D00F0A8B83D
:100450000EB540F2334102910021CDE900110A4668
:100460000B4600F0ACF803B000BD00F0004230F0E5
:1004700000400AD0C10D01F56071C0F3160042EAD8
:100480000151C208400711437047002001467047E0
:1004900001F0004330B421F0004150EA010206D0DF
:1004A0000A0DA2F56072C1F31301002A02DC30BC10
:1004B00000207047440F44EAC104C100E01830BC7A
:1004C00000EBC25000F035B830B50B4601460020B5
:1004D0002022012409E021FA02F59D4205D303FA06
:1004E00002F5491B04FA02F52844151EA2F1010287
:1004F000F1DC30BD202A04DB203A00FA02F10020B2
:1005000070479140C2F1200320FA03F31943904051
:100510007047202A04DB203A21FA02F000217047BC
:1005200021FA02F3D040C2F120029140084319465B
:1005300070470029A8BF7047401C490008BF20F041
:100540000100704710B4B0FA80FC00FA0CF050EAD9
:10055000010404BF10BC704749B1CCF1200421FA5A
:1005600004F411FA0CF118BF012121430843A3EB55
:100570000C01CB1D4FEA00614FEA102042BF002062
:1005800010BC704700EBC35010440029A4BF10BC3E
:100590007047401C490008BF20F0010010BC7047A4
:1005A00010B5141E73F1000408DA401C41F100017B
:1005B00092185B411A4301D120F0010010BD2DE9D2
:1005C000F04D92469B4611B1B1FA81F202E0B0FAC9
:1005D00080F220329046FFF78DFF04460F4640EA36
:1005E0000A0041EA0B0153465A46084313D011460C
:1005F00053EA010019D0C8F140025046FFF789FFC5
:1006000005460E46504659464246FFF773FF0843DB
:1006100005D0012004E020463946BDE8F08D0020D9
:10062000054346EAE0762C4337430A986305E40A1B
:10063000A0EB08000022FD0A44EA47540A3002D524
:1006400000200146E9E7010510196941DDE9084587
:1006500000196941BDE8F04DA2E72DE9FE4F804643
:1006600081EA0300C00F0C46009021F0004123F006
:100670000045B8EB0200A94105D24046214690460C
:100680001C460B46024623F00040104347D0270D7E
:10069000C7F30A00C3F30A510290401A01904028A0
:1006A0006BDAC3F3130040F4801B0098924620B12C
:1006B0000023D2EB030A63EB0B0B01985946C0F100
:1006C00040025046FFF716FF06460D465046594673
:1006D000019A00F0ABF810EB08006141002487EAB2
:1006E000115284EAE7731A4340D0009A62B3019A28
:1006F000012A4FEA075215DC001B61EB02014FF0A3
:10070000004202EA0752CDE90042001C41F5801187
:1007100032462B46FFF753FF03B0BDE8F08F40464B
:100720002146F9E7001B61EB0201001C41F5801333
:1007300000185B412018A2F5001747EB030140EABF
:10074000D570B6196D4111E06D084FEA360645EADD
:10075000C0754FEA0752001B61EB0201001C41F516
:10076000801149084FEA30000019514132462B46AA
:1007700003B0BDE8F04FFFF713BF0098012240001F
:100780000023D0EB020263EBE073009821464FEAAE
:10079000E074B8EB000061EB0401E9E783F000438B
:1007A0005BE781F0004158E7C1F30A52C1F313013E
:1007B00040F2FF3341F480119A4202DA00200146F0
:1007C000704740F233439A42A2F2334202DC524273
:1007D000FFF79FBEFFF78EBE30B5041E71F1000417
:1007E00004DB4FF00044404264EB0101141E73F13E
:1007F000000405DB1C464FF00043524263EB040348
:10080000994208BF904230BD064C074D06E0E068B3
:1008100040F0010394E8070098471034AC42F6D347
:10082000FFF7B6FC5C4603087C460308202A06DB7B
:10083000CB17203A41FA02F043EAE07306E041FAAE
:1008400002F3D040C2F1200291400843194670479C
:1008500070B50546AC6B206C00F0500050BB206CAE
:1008600040F4007020642068806800F04050E8B9CF
:10087000207ED8B92068C06A00F4700020B12068DA
:10088000806800F4806088B92068406820F020000B
:1008900021684860206C20F480702064206C00F493
:1008A000805018B9206C40F001002064204600F010
:1008B000E3FA0BE0206C00F0100018B1204600F0C5
:1008C000DDFA03E0A06BC16C2846884770BD70B5A7
:1008D0000546AC6B40202064606C40F0040060640E
:1008E000204600F0CBFA70BD70B50446A56B2846D3
:1008F00000F0C3FA70BD000055494A6822F4403246
:100900004A604A6843681A434A600268526822F49F
:10091000807203685A6002685368026943EA0222DF
:1009200003685A600268526822F0407203685A6095
:100930000268526883681A4303685A6002689268C2
:1009400022F4006203689A6002689268C3681A43DE
:1009500003689A603F4B826A9A4218D00268926894
:1009600022F0706203689A6002689268836A1A4390
:1009700003689A600268926822F0405203689A60A5
:1009800002689268C36A1A4303689A600BE00268BF
:10099000926822F0706203689A600268926822F09E
:1009A000405203689A600268926822F0020203686B
:1009B0009A6002689368027E43EA420203689A6082
:1009C0002022125CA2B10268526842F400620368FD
:1009D0005A600268526822F4604203685A600268F2
:1009E0005368426A521E43EA423203685A6005E085
:1009F0000268526822F4006203685A600268D26A90
:100A000022F470020368DA620268D36A828B521E93
:100A100043EA02520368DA620268926822F40072C2
:100A200003689A600268936890F8302043EA422293
:100A300003689A600268926822F4806203689A6090
:100A400002689368426943EA822203689A607047A9
:100A5000002301400100000F014601F00F000911C1
:100A600001F00F0101EB810251004218D0B2704732
:100A70007047000010B504462146024801F06CFCA6
:100A800010BD0000C839002010B5044801F077FC03
:100A9000042801D0012010BD0020FCE7C839002047
:100AA00010B5002400F014F8012801D0012010BD79
:100AB000064801F085FD044634B94FF4006103484F
:100AC00001F010FB00B101242046F0E7C8390020F6
:100AD00008B5012000909DF8000008BD2DE9F04107
:100AE00004460D461646002733462A46214604484A
:100AF00001F064FE00B101273846BDE8F081000036
:100B0000C839002001200149086070479800002082
:100B10002DE9F04104460D461646002733462A4685
:100B20002146044801F0FEFE00B101273846BDE829
:100B3000F0810000C8390020012001490860704799
:100B40009400002000BFFEE710B5024800F008FB4B
:100B500010BD00001C02002010B5024800F000FB90
:100B600010BD00004C3A00200146087810381823C8
:100B7000B0FBF3F20848805CC865032A05D9086811
:100B80006FF30900001D886503E008686FF3090032
:100B90008865886D704700008C9800080146002029
:100BA0008A6A8B69CBB932B1012A0DD0022A03D0EF
:100BB000032A10D10EE000BFCB6A03F08073B3F1BB
:100BC000807F00D1012007E0CB6AB3F1C07F00D164
:100BD000012001E000E000BF34E08B69B3F5005F65
:100BE0001AD132B1012A07D0022A03D0032A11D127
:100BF0000AE000BF01200EE0CB6A03F08073B3F17E
:100C0000807F00D1012006E0CB6AB3F1C07F00D124
:100C1000012000E000BF15E032B1012A05D0022A10
:100C200004D0032A0CD103E000BF00BF012008E07C
:100C3000CB6A03F08073B3F1807F00D1012000E024
:100C400000BF00BF704730B50468246824F48024D6
:100C500005682C60046863608468402C04D10468D3
:100C6000A2600468E16003E00468A1600468E260D7
:100C700030BD704710B5024800F067FC10BD0000A1
:100C800080390020704730B504460D4600222946C1
:100C9000204600F001F830BDF0B5034601250024E0
:100CA0001148407A01281CDA00200F4E767A0E4F48
:100CB000B8553846467A001D40F82630001F467A5F
:100CC000083082553E46707A461C7E72044604F116
:100CD000300008703A2048702F2088700020C870BB
:100CE00000252846F0BD0000BC3B002038B5024678
:100CF0000020009000BF92F83C00012801D10220A2
:100D000038BD012082F83C0000BF0868092816D9C8
:100D10001068C0680C780A3C04EB44050724AC401A
:100D2000A0431468E0600C780A3C04EB4404886833
:100D3000A0401468E46820431468E06013E0106881
:100D400000690C7804EB44050724AC40A043146808
:100D500020610C7804EB44048868A040146824697E
:100D60002043146820614868072817D21068406B38
:100D70000C79641E04EB84051F24AC40A043146866
:100D80006063088880B20C79641E04EB8404A04080
:100D90001468646B20431468606331E048680D2870
:100DA00017D21068006B0C79E41F04EB84051F2434
:100DB000AC40A04314682063088880B20C79E41F1B
:100DC00004EB8404A0401468246B2043146820635F
:100DD00016E01068C06A0C790D3C04EB84051F24F2
:100DE000AC40A0431468E062088880B20C790D3CE6
:100DF00004EB8404A0401468E46A20431468E062B1
:100E0000194B1A4C1068A04206D10868122803D169
:100E1000586840F480005860144C1068A0421CD1FF
:100E20000868102802D00868112816D1586840F4C4
:100E300000005860086810280FD10D4800680D4C5C
:100E4000B0FBF4F000EB80004000009002E000985E
:100E5000401E009000980028F9D100BF002082F8C1
:100E60003C0000BF00BF4BE70023014000200140D1
:100E7000B000002040420F007047704770470000EC
:100E800070B5044600250CB9012070BD1549A06A53
:100E9000884200D000BF206C30B9204600F024F812
:100EA0000020606484F83C00206C00F0100088B9D9
:100EB000206C20F4885040F0020020642046FFF7A8
:100EC0001BFD00206064206C20F0020040F0010057
:100ED000206400E0012500BF002084F83C0000BF32
:100EE0002846D2E70100000F10B586B00446142151
:100EF00001A8FFF7AFF92849206888424AD100BF0E
:100F0000002000902548006840F480702349086064
:100F10000846006800F48070009000BF00BF00BF6A
:100F2000002000901D481438006840F001001B4963
:100F3000143908600846006800F00100009000BF06
:100F400000BF01200190032002900020039001A91E
:100F5000134800F04FFB1348134908600020486015
:100F6000002111488160C1604FF480610161490036
:100F70004161890081614911C161002101624162C1
:100F800000F00EFA08B1FFF77DFE00BF0648A0632F
:100F9000846300BF06B010BD002001404438024009
:100FA00000000240106402401C020020F8B5044614
:100FB0000D4616460020009000BF94F83C00012822
:100FC00001D10220F8BD012084F83C0000BF206858
:100FD000806800F00100A0B92068806840F001003E
:100FE00021688860494800684949B0FBF1F000EB8E
:100FF0004000009002E00098401E009000980028F9
:10100000F9D12068806800F0010000287CD0206CB5
:1010100040F20161884340F4807020642068406899
:1010200000F4806028B1206C20F4005040F480501F
:101030002064206C00F48050B0F5805F04D1606CB7
:1010400020F00600606401E00020606400BF002022
:1010500084F83C0000BF2F4F2F48A16BC8632F4876
:10106000A16B08642E48A16BC8646FF02200216850
:1010700008602068406840F080602168486020680F
:10108000806840F4807021688860226802F14C0119
:1010900033462A46A06B00F0F9F9786800F01F008B
:1010A00018BB20492068884213D01F492068884215
:1010B00004D1381D006800F01F0050B11B492068A2
:1010C000884221D11348001D006800F01F0010283D
:1010D0001AD22068806800F0405028B920688068E3
:1010E00040F08040216888600EE00E492068884208
:1010F0000AD12068806800F0405028B920688068D4
:1011000040F080402168886000205BE7B00000204C
:1011100040420F000023014051080008E908000880
:10112000CF080008002001400021014000220140BA
:10113000014691F83500022803D08020486501203F
:101140007047052081F835000868006820F001002C
:101150000A6810600020F3E70146486D7047000000
:10116000F8B50446002000908C4800684FF41651F2
:10117000B0FBF1F7A56D2E6894F85C10082088404C
:10118000304098B12068006800F0040070B1206819
:10119000006820F004002168086094F85C100820C2
:1011A0008840A860606D40F00100606594F85C10B4
:1011B00001208840304068B12068406900F080001C
:1011C00040B194F85C1001208840A860606D40F048
:1011D0000200606594F85C1004208840304068B1DB
:1011E0002068006800F0020040B194F85C10042010
:1011F0008840A860606D40F00400606594F85C1061
:1012000010208840304078B32068006800F0080063
:1012100050B394F85C1010208840A86020680068E3
:1012200000F4802080B12068006800F4002028B914
:10123000206CC8B12046216C884715E0A06C98B19D
:101240002046A16C88470FE02068006800F4807099
:1012500028B92068006820F0080021680860206C28
:1012600010B12046216C884794F85C1020208840FB
:101270003040002865D02068006800F01000002889
:101280005FD094F85C1020208840A86094F8350066
:10129000052828D12068006820F016002168086021
:1012A0002068406920F0800021684861206C08B9FE
:1012B000A06C28B12068006820F008002168086050
:1012C00094F85C103F208840A86000BF002084F89C
:1012D000340000BF012084F83500206D10B1204695
:1012E000216D8847F8BD2068006800F4802080B137
:1012F0002068006800F4002028B9606C10B1204616
:10130000616C88471DE0E06BD8B12046E16B8847EF
:1013100017E02068006800F4807068B920680068F1
:1013200020F010002168086000BF002084F834001D
:1013300000BF012084F83500E06B10B12046E16B5E
:101340008847606D38B3606D00F00100F0B1052092
:1013500084F835002068006820F0010021680860EA
:1013600000BF0098401C0090B84200D905E02068FA
:10137000006800F001000028F3D100BF00BF00208A
:1013800084F8340000BF012084F83500E06C10B10F
:101390002046E16C884700BFA4E70000B0000020B1
:1013A0002DE9F0410446002500F032FA074614B951
:1013B0000120BDE8F081606A00B100BF00BF0020DD
:1013C00084F8340000BF022084F8350020680068EB
:1013D00020F00100216808600AE000F019FAC01B43
:1013E000052805D920206065032084F83500E0E752
:1013F0002068006800F001000028EED12068056830
:1014000021480540D4E901010843E1680843216906
:10141000084361690843A1690843E1690843216AF7
:1014200008430543606A042803D1D4E90B0108434B
:101430000543206805602068456925F00705606A56
:101440000543606A04280DD1A06A0543E06A48B1EB
:101450002046FFF7A3FB28B140206065012084F8F7
:101460003500A6E7206845612046FFF77DFB06466C
:1014700094F85C103F208840B06000206065012037
:1014800084F83500002094E73F8010F02DE9F04704
:1014900004460D4616461F464FF00008D4F85890F3
:1014A00000BF94F83400012802D10220BDE8F08783
:1014B000012084F8340000BF94F83500012825D1BC
:1014C000022084F83500002060653B4632462946FC
:1014D0002046FFF7B8FB94F85C103F208840C9F81D
:1014E00008002068006840F0160021680860206C41
:1014F00028B12068006840F0080021680860206872
:10150000006840F001002168086006E000BF00208C
:1015100084F8340000BF4FF002084046C6E70000E0
:1015200070B5044600F074F906462546681C10B1F3
:1015300004480078054400BF00F06AF9801BA84207
:10154000FAD370BDAC000020704710B50446206887
:1015500000F58050406900F0400040280FD120463F
:1015600000F045F84021206800F5805041610120DD
:1015700084F8440000BF002084F8450016E020688D
:1015800000F58050406900F0010078B1204600F07D
:101590002FF80121206800F580504161012084F876
:1015A000440000BF002084F8450000BF4FF48031A4
:1015B000206800F580504161206800F58050406946
:1015C00000F40040B0F5004F10D12046FFF7BCFFFB
:1015D0004FF40041206800F580504161012084F8FB
:1015E000440000BF002084F8450000BF10BD7047D4
:1015F00070470000F8B502460B4600250024002085
:101600000021DCE0012606FA01F51E6806EA050461
:10161000AC4273D15E68012E08D05E68022E05D000
:101620005E68112E02D05E68122E13D190684F00B2
:101630000326BE40B0434F00DE68BE40304390609A
:10164000506801268E40B0431E79C6F300168E40C6
:1016500030435060D0684F000326BE40B0434F0077
:101660009E68BE403043D0605E68022E02D05E6845
:10167000122E13D1CF0802F1200656F827004E078C
:10168000F70E0F26BE40B0434F07FF0E1E69BE4047
:101690003043CF0802F1200646F8270010684F00BB
:1016A0000326BE40B0431E7906F003064F00BE403D
:1016B000304310605E6806F08056B6F1805F7DD1E1
:1016C00000BF00260096404E366846F480463E4FE6
:1016D0003E603E46366806F48046009600BF00BF76
:1016E0003A4E8F0856F827008E07370F0F26BE4058
:1016F000B043374EB24202D1002624E05EE0354EC0
:10170000B24201D101261EE0334EB24201D102267F
:1017100019E0324EB24201D1032614E0304EB242FB
:1017200001D104260FE02F4EB24201D105260AE076
:101730002D4EB24201D1062605E02C4EB24201D117
:10174000072600E008268F073F0FBE4030431F4E9C
:101750008F0846F82700264E3068A0435E6806F4DE
:101760008036B6F5803F00D12043214E3060361DD3
:101770003068A0435E6806F40036B6F5003F00D13D
:1017800020431B4E361D3060361D3068A0435E6816
:1017900006F48016B6F5801F00D12043144E08369B
:1017A0003060361D3068A0435E6806F40016B6F55A
:1017B000001F00D120430E4E0C363060491C10290A
:1017C000FFF420AFF8BD0000443802400838014063
:1017D000000002400004024000080240000C0240E9
:1017E000001002400014024000180240001C024099
:1017F000003C0140024613690B400BB1012000E0A0
:10180000002070470AB1816101E00B0483617047D9
:101810000148006870470000A400002003480068E9
:10182000034909780844014908607047A400002072
:10183000AC00002010B50D48006840F400700B4962
:1018400008600846006840F4806008600846006848
:1018500040F480700860032000F0A6F8002000F03B
:1018600007F800F02BF8002010BD0000003C0240FB
:1018700070B504460E4800784FF47A71B1FBF0F071
:101880000C490968B1FBF0F5284601F0DFFB08B10F
:10189000012070BD102C07D200222146501E00F0FE
:1018A00045F80548046001E00120F2E70020F0E778
:1018B000AC000020B0000020A800002008B500BF48
:1018C000002000901048006840F480400E490860F5
:1018D0000846006800F48040009000BF00BF00BFD1
:1018E00000200090081F006840F08050091F086029
:1018F0000846006800F08050009000BF00BF042040
:1019000000F052F808BD0000443802400146084685
:10191000002809DB00F01F0301229A4043099B00C5
:1019200003F1E023C3F8002100BF70472DE9F05F09
:1019300080460D461646002703F018FD0746394637
:101940002A46334601F00700C0F1070ABAF1040F36
:1019500002D94FF0040A01E0C0F1070AD14600F1B4
:10196000040ABAF1070F02D24FF0000A01E0A0F119
:10197000030AD4464FF0010A0AFA09FAAAF1010A49
:101980000AEA020A0AFA0CFA4FF0010B0BFA0CFBF6
:10199000ABF1010B0BEA030B4AEA0B04214640466C
:1019A00003F0ECFCBDE8F09F00BF00F00702064B1F
:1019B00019684FF6FF031940044B0B4343EA022119
:1019C000014B196000BF70470CED00E00000FA0504
:1019D00070B504460D460CB9012070BD584800682A
:1019E00000F00F00A84209D255490D700846006862
:1019F00000F00F00A84201D00120EEE7207800F0AF
:101A0000020002281DD1207800F00400042805D12E
:101A10004C48006840F4E0504A490860207800F0E3
:101A20000800082805D14748006840F4604045494F
:101A300008604448006820F0F000A168084341496C
:101A40000860207800F00100A8B36068012807D181
:101A50003C4808380068C0F34040B8B90120BCE7F2
:101A60006068022802D06068032807D1354808382A
:101A70000068C0F3406048B90120AEE7314808383B
:101A80000068C0F3400008B90120A6E72D480068AF
:101A900020F00300616808432A490860FFF7B8FE98
:101AA000064609E0FFF7B4FE801B41F28831884208
:101AB00002D9032091E707E02248006800F00C00FB
:101AC0006168B0EB810FEDD11D48006800F00F0098
:101AD000A84209D91A490D700846006800F00F00A5
:101AE000A84201D0012078E7207800F00400042803
:101AF00007D11448006820F4E050E1680843114918
:101B00000860207800F00800082808D10D48006817
:101B100020F46040216940EAC1000A49086000F0F1
:101B20003FF808490968C1F30311074A515CC840EE
:101B30000649086006480068FFF79AFE00204CE757
:101B4000003C02400838024094980008B000002091
:101B5000A80000200148006870470000B000002085
:101B600000B5FFF7F7FF04490968C1F38221034A72
:101B7000515CC84000BD000008380240A49800082D
:101B800000B5FFF7E7FF04490968C1F34231034A92
:101B9000515CC84000BD000008380240A49800080D
:101BA0002DE9F047002400250026A14625480068BD
:101BB00000F00C0020B1042805D008283AD105E037
:101BC000DFF8849039E0DFF8849036E01D48001F8C
:101BD000006800F03F041B48001F006800F480000C
:101BE00078B11A481749091F0968C1F38811A0FB89
:101BF00001700146224600233846FEF7E1FA054609
:101C00000EE011480F49091F0968C1F38811A0FBB4
:101C100001700146224600233846FEF7D1FA0546F8
:101C20000848001F0068C0F30140401C4600B5FB97
:101C3000F6F902E0DFF8109000BF00BF4846BDE8AB
:101C4000F0870000083802400024F40040787D014D
:101C5000F8B504460CB90120F8BD207800F0010069
:101C6000002874D0F948006800F00C0004280DD05A
:101C7000F648006800F00C00082813D1F348001F54
:101C8000006800F48000B0F5800F0BD1EF480838F1
:101C90000068C0F34040002859D06068002856D141
:101CA0000120D9E700BF6068B0F5803F08D1E74860
:101CB0000838006840F48030E449083908601EE0C4
:101CC0006068B0F5A02F0DD1E0480838006840F4F6
:101CD0008020DE49083908600846006840F48030FA
:101CE00008600CE0D9480838006820F48030D749F3
:101CF000083908600846006820F48020086000BFAA
:101D0000606890B1FFF784FD054606E0FFF780FDAF
:101D1000401B642801D903209EE7CC48083800689E
:101D2000C0F340400028F1D011E0FFF771FD0546F7
:101D300006E0FFF76DFD401B642801D903208BE707
:101D4000C24808380068C0F340400028F1D120782C
:101D500000F0020002285FD1BC48006800F00C00CF
:101D600058B1BA48006800F00C0008281CD1B748E8
:101D7000001F006800F48000B0B9B448083800685B
:101D8000C0F3400020B1E068012801D0012063E7E2
:101D9000AE480838006820F0F800216940EAC10028
:101DA000AA490839086037E0E06800B30120A84973
:101DB0000860FFF72DFD054606E0FFF729FD401BF3
:101DC000022801D9032047E7A04808380068C0F37B
:101DD00040000028F1D09D480838006820F0F80045
:101DE000216940EAC10099490839086014E00020DF
:101DF00097490860FFF70CFD054606E0FFF708FD70
:101E0000401B022801D9032026E7904808380068C3
:101E1000C0F340000028F1D1207800F00800082825
:101E20002CD16069A8B101208A490860FFF7F0FC55
:101E3000054606E0FFF7ECFC401B022801D9032011
:101E40000AE782486C300068C0F340000028F1D0F7
:101E500014E000207F490860FFF7DAFC054606E041
:101E6000FFF7D6FC401B022801D90320F4E677488F
:101E70006C300068C0F340000028F1D1207800F0F9
:101E80000400042870D1002770483830006800F042
:101E9000805090B900BF002000906C483830006836
:101EA00040F080506949383108600846006800F009
:101EB0008050009000BF00BF01276748006800F411
:101EC0008070B0B96448006840F48070624908606E
:101ED000FFF79EFC054606E0FFF79AFC401B022830
:101EE00001D90320B8E65C48006800F4807000283F
:101EF000F2D000BFA068012808D1544868300068BB
:101F000040F001005149683108601DE0A0680528D3
:101F10000DD14E486830006840F004004B496831EC
:101F200008600846006840F0010008600CE047487F
:101F30006830006820F001004449683108600846B4
:101F4000006820F00400086000BFA068A8B1FFF797
:101F50005FFC054609E0FFF75BFC401B41F288315E
:101F6000884202D9032077E626E0384868300068C6
:101F7000C0F340000028EED013E0FFF749FC05460F
:101F800008E0FFF745FC401B41F28831884201D947
:101F9000032061E62D4868300068C0F34000002847
:101FA000EFD1012F07D129483830006820F0805048
:101FB00026493831086000BFA069002845D0234871
:101FC000006800F00C0008285DD0A069022845D107
:101FD00000201F490866FFF71BFC054606E0FFF7D7
:101FE00017FC401B022801D9032035E617480838A2
:101FF0000068C0F340600028F1D1D4E9070108432C
:10200000616A40EA81110122A06AC2EB500041EAF4
:1020100000412C20005D41EA00600C49091F086066
:1020200001200B490866FFF7F3FB054606E0FFF7C2
:10203000EFFB401B022801D903200DE603480838B6
:102040000068C0F340600028F1D03FE0083802404B
:1020500000004742800E47420070004000201C49AB
:102060000866FFF7D5FB054606E0FFF7D1FB401BEE
:10207000022801D90320EFE516480068C0F340604C
:102080000028F2D122E0A069012800D1E4E511483E
:102090000830066806F48001E069814214D106F038
:1020A0003F01206A81420FD147F6C0703040616A1B
:1020B000884209D106F44031A06A814204D106F079
:1020C0007061E06A814201D00120C5E50020C3E5CE
:1020D000000047420038024010B50446FEF7C8FC35
:1020E00010BD000070B58AB004460D46032084F888
:1020F0003400606C032820D0B5F5805F04D1A06B5C
:1021000040F08050A0631CE0B5F5006F07D1204679
:1021100002F051FB0646A06B3043A06311E03DB9CD
:10212000204602F014FB0646A06B3043A06308E093
:10213000A06B40F00060A06303E0A06B40F0805013
:10214000A063A06B38B1104821688863012084F82F
:1021500034000AB070BD60680490A0680590E06823
:102160000690079560690890A069099007A807C8BC
:102170008DE80700206804A90EC901F057FC012072
:1021800084F834000020E4E7FF05400070470000B9
:1021900010B50246506E800F0870506EC0F3836019
:1021A0004870506EC0F301608870506E000CC870AB
:1021B000B2F86400000A087192F864004871906EE9
:1021C000000DC880906EC0F3034008726820805AEA
:1021D000C0F3C03048726820805AC0F380308872E3
:1021E0006820805AC0F34030C8726820805AC0F31B
:1021F0000030087300204873506C002836D16820E6
:10220000805A8005030DD06E43EA90700861D06E4D
:10221000C0F3C2600875D06EC0F302604875D06E1E
:10222000C0F342508875D06EC0F38240C875D06E3E
:10223000C0F3C23008760869401C50650B7E506DB3
:1022400003F007039B1C01249C4060435065087AFF
:1022500000F00F03012098409065D2E915035B0A56
:102260005843D0654FF40073136621E0506C012889
:1022700013D16820805C8006830AD06E43EA104048
:1022800008610869401C83025365536DD3654FF4A0
:1022900000739365936D13660AE02E481368986384
:1022A000906B40F080509063012082F8340010BDA4
:1022B0006C20805AC0F3803001F8190F6C20805ACE
:1022C000C0F3C61048706C20805C00F07F008870FE
:1022D000106FC00FC870106FC0F341700871106F9D
:1022E000C0F382604871106FC0F383508871106F23
:1022F000C0F34050C87100200872106FC0F3004056
:1023000048727020805AC0F3C03088727020805AA2
:10231000C0F38030C8727020805AC0F34030087318
:102320007020805AC0F3003048737020805AC0F388
:10233000812088737020805AC0F30120C8737020F8
:10234000805CC0F3460008740120487419390020ED
:10235000ADE70000FF0540000246506C0860906C3D
:102360004860D06C8860106DC860506D0861906DD9
:102370004861D06D8861106EC86100207047F8B563
:102380000446002000906946204602F0C8F9054640
:1023900015B1A06B2843A0630098C0F343263046D4
:1023A000F8BD000070B50446256B2068406BC0F393
:1023B000C03030B105F0080018B1204602F08AF9AB
:1023C000F8E02068406BC0F30020002862D04FF492
:1023D0008070216888632068C06B4CF23A31884372
:1023E0002168C8632068C06A20F001002168C862C3
:1023F00005F0080038B305F0020010B905F0200020
:1024000050B1206801F0D2FC06462EB1A06B3043DB
:10241000A0632046FFF7BAFE40F23A502168886375
:10242000012084F834000020206305F0010010B979
:1024300005F0020018B1204600F06AFABAE0204622
:1024400000F06BFAB6E005F080000028B8D005F087
:10245000200050B1206801F0A9FC06462EB1A06B07
:102460003043A0632046FFF791FE05F001000028ED
:10247000A6D105F002000028A2D12068C06A20F091
:1024800008002168C862012084F83400204600F06A
:1024900044FA8FE02068406BC0F3803030B105F023
:1024A000080018B1204602F0BAF983E02068406BBA
:1024B00040F23A21084008B1012000E00020002845
:1024C00078D02068406BC0F3400018B1A06B40F09A
:1024D0000200A0632068406BC0F3C00018B1A06B7D
:1024E00040F00800A0632068406BC0F3401018B1B2
:1024F000A06B40F02000A0632068406BC0F3001088
:1025000018B1A06B40F01000A0632068406BC0F3CE
:10251000402018B1A06B40F00800A06340F23A7070
:10252000216888632068C06B40F23A318843216893
:10253000C863206801F03AFCA16B0843A06305F072
:10254000080040B1012084F83400002020632046B8
:10255000FFF71CFE2EE005F0800000B305F0100030
:1025600010B905F0200050B11348E16B0865E06B2D
:10257000FEF7DEFD98B1E06B01F007FF1AE005F011
:10258000010010B905F0020050B10C48216C08653B
:10259000206CFEF7CDFD10B1206C01F0C9FE09E002
:1025A0000020A063012084F834000020206320462E
:1025B000FFF792FD70BD00008B4300083143000817
:1025C00010B504460CB9012010BD94F8340020B9B0
:1025D00000202077204600F053F8032084F83400D0
:1025E000204600F00BF808B10120EDE70020A063C1
:1025F0002063012084F834000020E5E770B58AB03C
:1026000004460020049005900690079008907620DC
:10261000099007A807C88DE80700206804A90EC91B
:1026200001F004FA064616B101200AB070BD002080
:1026300012490860206801F013FA01200F49A039FF
:10264000C1F8A000204601F0DFFF05463DB10120A2
:1026500084F83400A06B2843A0630120E5E72046FE
:1026600001F051FF05463DB1012084F83400A06B14
:102670002843A0630120D8E70020D6E7A0802542A8
:1026800010B586B00446142101A8FDF7E3FD4549C5
:10269000206888427DD100BF002000904248006839
:1026A00040F40060404908600846006800F400609B
:1026B000009000BF00BF00BF002000903A481438CF
:1026C000006840F004003849143908600846006882
:1026D00000F00400009000BF00BF00BF0020009089
:1026E0000846006840F0080008600846006800F0EE
:1026F0000800009000BF00BF4FF4F8500190022086
:10270000029000200390032004900C20059001A962
:102710002648FEF76FFF042001900220029000205F
:102720000390032004900C20059001A92048FEF797
:1027300061FF2048204908604FF000604860002198
:102740001D488160C1604FF4806101618900416171
:10275000890081612021C16100210162042141625F
:10276000032181624FF40001C16289100163FEF709
:1027700017FE08B1FEF786FA00BF0F482064846395
:1027800000BF00BFE063846300BF00221146312018
:1027900000E004E0FFF7CAF83120FFF7B7F806B011
:1027A00010BD0000002C01404438024000080240E7
:1027B000000C0240586402404C3A00202DE9F043DE
:1027C00087B004460F4691461E46C8463FB9A06BE7
:1027D00040F00060A063012007B0BDE8F08394F8EA
:1027E0003400012871D10020A06308EB0601E06DE0
:1027F000814205D9A06B40F00070A0630120EBE797
:10280000032084F8340000202168C8622068C06B6F
:1028100040F22A3108432168C8633948216CC863F3
:102820003848216CC8640020216C08657202930846
:10283000226802F180013A46206CFEF727FE80B143
:102840002068C06B20F495702168C8632E48216809
:102850008863A06B40F08040A063012084F83400BE
:10286000BAE7012029490860606C012801D04FEACD
:1028700048284FF40071206801F054F905464DB125
:10288000214821688863A06B2843A063012084F855
:102890003400A1E74FF0FF300190700202909020C9
:1028A000039002200490002005900120069001A9C9
:1028B000206801F08DF8012E08D98220206341465E
:1028C000206801F097F9054607E016E081202063B3
:1028D0004146206801F0AAF9054665B10A48216819
:1028E0008863A06B2843A063012084F83400002093
:1028F0002063012070E700206EE702206CE70000F3
:10290000E942000875420008FF0540008C85254219
:1029100010B50446FEF7F6F810BD10B50446FEF7F4
:102920000BF910BD2DE9F04387B004468846914667
:102930001E464F46B8F1000F07D1A06B40F0006073
:10294000A063012007B0BDE8F08394F834000128AB
:1029500077D10020A063B919E06D814205D9A06B41
:1029600040F00070A0630120ECE7032084F83400FD
:1029700000202168C8622068C06B40F21A21084319
:102980002168C8633948E16BC8633948E16BC864A2
:102990000020E16B0865606C012800D07F024FF4D5
:1029A0000071206801F0BEF805464DB1314821683C
:1029B0008863A06B2843A063012084F83400C1E73A
:1029C000012E07D9A02020633946206801F00CFAB7
:1029D000054606E0902020633946206801F020FA81
:1029E000054665B1234821688863A06B2843A0632E
:1029F000012084F83400002020630120A2E7012098
:102A00001D49086071028B08216801F1800241466E
:102A1000E06BFEF73BFDA8B12068C06B40F21A21C5
:102A200088432168C863134821688863A06B40F01D
:102A30008040A063012084F834000020206301203E
:102A400080E711E04FF0FF3001907002029090207B
:102A500003900020049005900120069001A92068B1
:102A600000F0B6FF00206DE702206BE77943000815
:102A700075420008FF0540008C85254210B50446CC
:102A80000CB9012010BD606A00B900BF0021A1622D
:102A900094F8510028B9002084F85000204600F036
:102AA00033F8022084F851002068006820F04000CC
:102AB00021680860D4E901010843E16808432169FD
:102AC000084361690843218B01F400710843E169FF
:102AD0000843216A0843A16A084321680860042169
:102AE000A06901EA1040616A0843216848602068D3
:102AF000C06920F400602168C86100206065012081
:102B000084F851000020BDE710B586B004461421BA
:102B100001A8FDF79FFB5449206888424DD100BFB2
:102B2000002000905148006840F480504F490860F0
:102B30000846006800F48050009000BF00BF00BF4E
:102B40000020009049481438006840F001004749CF
:102B5000143908600846006800F00100009000BFCA
:102B600000BF00BF002000900846006840F002004F
:102B700008600846006800F00200009000BF00BF37
:102B80006020019002200290002003900320049016
:102B90000520059001A93648FEF72CFD2020019064
:102BA000022002900020039003200490052005904D
:102BB00001A93048FEF71EFD53E02F4920688842E6
:102BC0004FD100BF002000902848001F006840F44B
:102BD00080402649091F08600846006800F48040CC
:102BE000009000BF00BF00BF002000901F481438B5
:102BF000006840F004001D49143908600846006868
:102C000000F00400009000BF00BF00BF0020009053
:102C10000846006840F0020008600846006800F0BE
:102C20000200009000BF00BF0C2001900220029023
:102C300000200390032004900520059001A90F486F
:102C4000FEF7D8FC4FF48060019002200290002033
:102C50000390032004900520059001A90548FEF784
:102C6000C9FC06B010BD00000030014044380240ED
:102C7000000002400004024000380040000802400A
:102C80002DE9F84F0446884616461D464FF0000AC7
:102C900000BF94F85000012802D10220BDE8F88F4F
:102CA000012084F8500000BFFEF7B2FD0746B14690
:102CB00094F85100012802D04FF0020AA7E0B8F1C1
:102CC000000F00D016B94FF0010AA0E0032084F8ED
:102CD000510000206065C4F83080A686E686A063B7
:102CE000A087E08760642064A068B0F5004F05D13C
:102CF0002068006840F4804021680860206800680F
:102D000000F04000402805D02068006840F04000F6
:102D100021680860E068B0F5006F2FD1606810B1DD
:102D2000B9F1010F09D1206B00882168C860206BC0
:102D3000801C2063E08E401EE0861BE020688068D7
:102D400000F0020002280AD1206B00882168C860C8
:102D5000206B801C2063E08E401EE0860AE0FEF7B8
:102D600057FDC01BA84201D3681C00B915B94FF02C
:102D7000030A4CE0E08E0028E0D12EE0606810B13C
:102D8000B9F1010F09D1206B007821680873206B1D
:102D9000401C2063E08E401EE0861BE020688068B7
:102DA00000F0020002280AD1206B00782168087325
:102DB000206B401C2063E08E401EE0860AE0FEF798
:102DC00027FDC01BA84201D3681C00B915B94FF0FC
:102DD000030A1CE0E08E0028E0D13A46294620464E
:102DE00001F09AFE08B120206065A06850B900BFCC
:102DF000002000902068C0680090206880680090E3
:102E000000BF00BF606D08B14FF0010A00BF012094
:102E100084F8510000BF002084F8500000BF5046E5
:102E20003CE72DE9FF5F0446884691461D460E9E0D
:102E3000012002900020019000BF94F8500001286A
:102E400003D1022004B0BDE8F09F012084F85000B7
:102E500000BFFEF7DDFC074694F851B060680390B0
:102E6000AA46BBF1010F0BD00398B0F5827F04D1C5
:102E7000A06810B9BBF1040F02D002200190DBE082
:102E8000B8F1000F03D0B9F1000F00D015B901203F
:102E90000190D1E094F85100042802D0052084F874
:102EA000510000206065C4F83890E587A587C4F814
:102EB0003080E586A586206460642068006800F0A4
:102EC0004000402805D02068006840F0400021689C
:102ED0000860E068B0F5006F4AD1606810B1BAF1DF
:102EE000010F09D1206B00882168C860206B801C0D
:102EF0002063E08E401EE08633E02068806800F0AA
:102F00000200022810D1E08E70B1029801280BD186
:102F1000206B00882168C860206B801C2063E08ED5
:102F2000401EE086002002902068806800F00100CA
:102F300068B1E08F58B12068C068A16B0880A06BB1
:102F4000801CA063E08F401EE08701200290FEF706
:102F50005FFCC01BB04204D3701C10B10320019071
:102F60006AE0E08E0028C8D1E08F0028C5D14AE091
:102F7000606810B1BAF1010F09D1206B00782168A7
:102F80000873206B401C2063E08E401EE08634E016
:102F90002068806800F00200022810D1E08E70B135
:102FA000029801280BD1206B007821680873206BF0
:102FB000401C2063E08E401EE086002002902068C6
:102FC000806800F0010068B1E08F58B12068C068E7
:102FD000A16B0870A06B401CA063E08F401EE087CF
:102FE00001200290FEF714FCC01BB04201D3701CFC
:102FF00000B916B9032001901EE0E08E0028C7D169
:10300000E08F0028C4D13A463146204601F084FDC5
:1030100020B101200190202060650DE0A06850B92A
:1030200000BF002000902068C06800902068806881
:10303000009000BF00BF00BF012084F8510000BF16
:10304000002084F8500000BF0198FBE670B50446EC
:103050002546681EB0F1807F01D301200FE0681E75
:103060004FF0E02148610F214FF0FF3002F086F968
:1030700000204FF0E021886107200861002070BD2A
:10308000704700002DE9F047044620680568206875
:10309000C668206847694FF00008C14605F00F0870
:1030A000B8F1000F0AD105F0200038B106F0200079
:1030B00020B1204601F054FEBDE8F087B8F1000FC2
:1030C00072D007F0010018B906F4907000286BD098
:1030D00005F0010030B106F4807018B1E06B40F0EB
:1030E0000100E06305F0040030B107F0010018B101
:1030F000E06B40F00200E06305F0020030B107F041
:10310000010018B1E06B40F00400E06305F0080036
:1031100048B106F0200010B907F0010018B1E06BCB
:1031200040F00800E063E06B70B305F0200028B1C8
:1031300006F0200010B1204601F012FE2068406920
:10314000C0F38019E06B00F0080010B9B9F1000F6E
:1031500023D0204601F0E4FD2068406900F04000E3
:10316000402816D12068406920F04000216848615D
:10317000606B50B11748616B0865606BFDF7D8FF55
:1031800010B1606B016D88470CE02046FFF778FFB7
:1031900008E02046FFF774FF04E02046FFF770FFC9
:1031A0000020E06388E7FFE705F0800030B106F01B
:1031B000800018B1204602F01BF87DE705F04000C2
:1031C00030B106F0400018B1204601F0B9FD73E7B8
:1031D00000BF71E70D4D000810B504460CB9012081
:1031E00010BDA06900B100E000BF94F8390028B913
:1031F000002084F83800204600F028F8242084F8C5
:1032000039002068C06820F400502168C86020465A
:1032100001F0FAFD2068006920F4904021680861FF
:103220002068406920F02A00216848612068C06851
:1032300040F400502168C8600020E063202084F83A
:10324000390084F83A000020CAE7000010B586B0C3
:103250000446142101A8FCF7FDFF1F49206888429D
:1032600037D100BF002000901C48006840F40030B7
:103270001A4908600846006800F40030009000BF5A
:1032800000BF00BF0020009014481038006840F0D4
:1032900008001249103908600846006800F008006C
:1032A000009000BF00BF602001900220029001202A
:1032B0000390032004900720059001A90848FEF719
:1032C00099F9002211462620FEF730FB2620FEF752
:1032D0001DFB06B010BD0000004400404038024015
:1032E000000C024010B5034693F83A0020282FD175
:1032F00001B10AB9012010BD00BF93F838000128C0
:1033000001D10220F7E7012083F8380000BF99625D
:103310009A85DA850020D863222083F83A0000BF1E
:10332000002083F8380000BF1868C06840F480703F
:103330001C68E0601868406940F001001C6860612A
:103340001868C06840F020001C68E0600020D2E7E8
:103350000220D0E710B504460F48844215D10F482B
:1033600000780F490F4A127888540E480078401CA4
:103370000C49087008460078202806D92021084802
:10338000FCF768FF00200749087001220349024842
:10339000FFF7A8FF10BD00005C3B002040000020AC
:1033A0007C010020570000202DE9F84304460D461B
:1033B00016461F464FF0000994F8390020285DD1C9
:1033C00005B116B90120BDE8F88300BF94F83800B4
:1033D000012801D10220F6E7012084F8380000BF5F
:1033E0000020E063212084F83900FEF711FA8146BD
:1033F000A684E68400BF002084F8380000BF2BE0DC
:10340000E08C401EE084A068B0F5805F16D14B468A
:10341000002280212046009701F01EFF08B1032002
:10342000D1E7A846B8F80000C0F30800216848605A
:10343000206908B9AD1C0FE06D1C0DE04B46002261
:1034400080212046009701F007FF08B10320BAE76A
:1034500015F8010B21684860E08C0028D0D14B465C
:10346000002240212046009701F0F6FE08B103201B
:10347000A9E7202084F839000020A4E70220A2E771
:10348000704700BFFEE72DE9F04107460E4615469E
:1034900000F08CF8D02000F0D3F800F0B1F800B1C3
:1034A00025E0384600F0CCF800F0AAF800B11EE0A4
:1034B00000F07CF8D12000F0C3F800F0A1F800B1D2
:1034C00015E000240CE000F04FF83055681EA042D3
:1034D00002D000F011F801E000F030F8601C84B276
:1034E000AC42F0DB00F07AF80120BDE8F08100F09A
:1034F00075F80020F9E7000000B54FF080500A4948
:10350000086000F013F84FF400600749086000F00D
:103510000DF84FF000600449086000F007F84FF420
:1035200080500149086000BD180C0240282001E0CD
:10353000411EC8B20028FBD17047000000B54FF40F
:10354000805008490860FFF7F1FF4FF4006005491B
:103550000860FFF7EBFF4FF0006002490860FFF7DB
:10356000E5FF00BD180C024000B50022002317E063
:103570005006020E4FF400600B490860FFF7D6FFBB
:1035800009480838006800F4805008B1501CC2B2E5
:103590004FF0006004490860FFF7C8FF581CC3B231
:1035A000082BE5DB104600BD180C024000B54FF4B7
:1035B00000600949086040000860FFF7B7FF4FF05E
:1035C000805005490860FFF7B1FF4FF000600249E5
:1035D0000860FFF7ABFF00BD180C024000B54FF4C8
:1035E00000600649086040040860FFF79FFF4FF441
:1035F000805002490860FFF799FF00BD180C024097
:1036000000B54FF480500D490860FFF78FFF4FF46D
:1036100000600A490860FFF789FF08480838006819
:1036200000F4805008B1012200E000224FF0006059
:1036300002490860FFF77AFF104600BD180C0240EF
:1036400000B50246002321E002F0800020B14FF4D3
:1036500080501049086003E04FF080500D49086029
:10366000FFF764FF4FF400600A490860FFF75EFF50
:103670004FF0006007490860072B01D1C0130860B4
:103680005006020EFFF752FF581CC3B2082BDBDBBB
:1036900000BD0000180C02401FB5002000900190F2
:1036A00002900390154816490860002048600021E8
:1036B00013488160016101210176002180F820100A
:1036C000C162104981620021C1600121C16180F89D
:1036D00030104161FDF7D4FB08B1FDF7D3FA0020AB
:1036E0000090012001900620029069460448FDF7F1
:1036F000FDFA08B1FDF7C6FA1FBD00000020014029
:10370000D40100200100000F08B500BF0020009088
:103710000E48006840F480000C49086008460068C4
:1037200000F48000009000BF00BF00221146382046
:10373000FEF7FCF83820FEF7E9F8002211463B209E
:10374000FEF7F4F83B20FEF7E1F808BD3038024000
:1037500010B503490348FDF796FA0349087010BDF8
:103760009D000020789800089C00002000B587B0DC
:10377000142102A8FCF76EFD00BF00200190534801
:10378000006840F00400514908600846006800F0F5
:103790000400019000BF00BF00BF00200190084658
:1037A000006840F0800008600846006800F0800073
:1037B000019000BF00BF00BF0020019008460068D4
:1037C00040F0010008600846006800F00100019028
:1037D00000BF00BF00BF002001900846006840F015
:1037E000020008600846006800F00200019000BF77
:1037F00000BF00BF002001900846006840F00800AC
:1038000008600846006800F00800019000BF00BF93
:1038100000BF002001900846006840F010000860DA
:103820000846006800F01000019000BF00BF0022B1
:1038300001212748FDF7E6FF002210212548FDF76A
:10384000E1FF01224FF4E0512348FDF7DBFF0022A6
:1038500008212148FDF7D6FF0120029003900020A7
:103860000490059002A91A48FDF7C4FE10200290AA
:103870000120039000200490059002A91548FDF74F
:10388000B9FE4FF481600290012003900020049063
:10389000059002A91048FDF7ADFE4FF4C05002900C
:1038A00011200390002004900320059002A90A48EB
:1038B000FDF7A0FE0120029000200390049002A9D1
:1038C0000648FDF797FE07B000BD00003038024003
:1038D0000008024000000240000C024000100240BC
:1038E00006480749086000204860002104488160BC
:1038F000C160016141610A2181617047002C014072
:10390000C839002010B50F480F4908604FF4827085
:10391000486000210C488160C160022101610121E1
:103920004161490281612021C1610021016241623E
:1039300081620A21C162FFF7A1F808B1FDF7A2F97F
:1039400010BD000000300140AC3A002010B50E4818
:103950000E4908604FF48270486000210B48816076
:10396000C160016141614FF4007181610021C16159
:103970000162416281620A21C162FFF77FF808B1EA
:10398000FDF780F910BD000000380040043B002026
:1039900010B50B480B4908604FF4165048600021E1
:1039A00008488160C16001610C2141610021816191
:1039B000C161FFF711FC08B1FDF764F910BD00000B
:1039C000004400405C3B002000BFFEE770477047AA
:1039D00010B5024600230868506248689062D1E939
:1039E000020420430C6920434C6920430343D06AFE
:1039F00020F0F7001843D062002010BD014608698E
:103A0000C0B270470146086800F0030070470246E4
:103A100002F11400431818687047000010B50248FE
:103A2000FEF7C0FC10BD0000C83900200FB410B56F
:103A300004460021DDE903021043059A1043069A6B
:103A40001043079A1043089A10430143606847F6F1
:103A5000FF62904308436060002010BC5DF814FBD7
:103A600010B50446032020600220FDF759FD002018
:103A700010BD0146D1F88000704710B50246002302
:103A800008689060D1E901042043CC6820430C69A8
:103A900020430343D0686FF30B001843D06000202D
:103AA00010BD02460868C2F880000020704770B55B
:103AB00086B005460C4601943720029040200390C2
:103AC000002004904FF48060059001A92846FFF77C
:103AD000D4FF41F288323721284600F0DDF906464E
:103AE000304606B070BD000070B586B005460C4685
:103AF0000B48204301902920029040200390002091
:103B000004904FF48060059001A92846FFF7B5FFA7
:103B1000284600F0C9FA0646304606B070BD0000DF
:103B20000000108070B586B005460C460194102048
:103B3000029040200390002004904FF48060059094
:103B400001A92846FFF799FF41F288321021284643
:103B500000F0A2F90646304606B070BD70B586B0DA
:103B600005460C4601940620029040200390002058
:103B700004904FF48060059001A92846FFF77DFF6F
:103B800041F288320621284600F086F90646304682
:103B900006B070BD30B585B004460020009001909D
:103BA000029003904FF48060049069462046FFF72E
:103BB00064FF204600F050F90546284605B030BDA8
:103BC00030B585B004464FF4D570009008200190C0
:103BD00040200290002003904FF4806004906946DA
:103BE0002046FFF74AFF204600F0E6FA0546284641
:103BF00005B030BD70B586B005460C460194122064
:103C0000029040200390002004904FF480600590C3
:103C100001A92846FFF731FF41F2883212212846D8
:103C200000F03AF90646304606B070BD70B586B071
:103C300005460C460194112002904020039000207C
:103C400004904FF48060059001A92846FFF715FF06
:103C500041F288321121284600F01EF9064630460E
:103C600006B070BDF0B585B0064614461D460094FA
:103C70000720019040200290002003904FF48060C4
:103C8000049069463046FFF7F8FE41F2883207217A
:103C9000304600F001F90746384605B0F0BD30B5B2
:103CA00085B004460020009002200190C0200290C0
:103CB000002003904FF48060049069462046FFF78F
:103CC000DCFE204600F0BEF90546284605B030BDB2
:103CD00070B586B005460C46019409200290C020BC
:103CE0000390002004904FF48060059001A92846BD
:103CF000FFF7C3FE284600F0A5F90646304606B099
:103D000070BD30B585B0044600200090332001908E
:103D100040200290002003904FF480600490694698
:103D20002046FFF7AAFE41F288323321204600F0F8
:103D3000B3F80546284605B030BD70B586B00546D7
:103D40000C4601940D200290402003900020049026
:103D50004FF48060059001A92846FFF78EFE41F2DE
:103D600088320D21284600F097F80646304606B006
:103D700070BD70B586B005460C460020019003204A
:103D8000029040200390002004904FF48060059042
:103D900001A92846FFF771FE22460321284600F0BC
:103DA000AFF90646304606B070BD000030B585B0AC
:103DB0000446002000900C2001904020029000203A
:103DC00003904FF48060049069462046FFF755FE4B
:103DD000044A0C21204600F05FF80546284605B04D
:103DE00030BD000000E1F50570B586B005460C4613
:103DF00001941920029040200390002004904FF479
:103E00008060059001A92846FFF737FE41F288320D
:103E10001921284600F040F80646304606B070BD2D
:103E200070B586B005460C460194182002904020DB
:103E30000390002004904FF48060059001A928466B
:103E4000FFF71BFE41F288321821284600F024F8C3
:103E50000646304606B070BD01460E480068C008F0
:103E60004FF47A73B0FBF3F041F2883300FB03F2B6
:103E700000BF101EA2F1010202D14FF000407047B6
:103E8000486B00F080000028F3D0C5208863002034
:103E9000F5E70000B00000202DE9F04305460F468D
:103EA000904666480068C0084FF47A71B0FBF1F0A4
:103EB00000FB08F900BFB9F10000A9F1010903D125
:103EC0004FF00040BDE8F0836E6B06F0450000281F
:103ED000F1D006F400600028EDD1686B00F004001A
:103EE00010B10420A863EDE7686B00F0010010B189
:103EF0000120A863E6E7C520A8632846FFF77EFDFA
:103F0000B84201D00120DDE700212846FFF77FFD00
:103F100004464B48204008B90020D3E704F0004095
:103F2000B0F1004F02D14FF00070CBE704F08040B9
:103F3000B0F1804F01D14020C4E704F00050B0F14F
:103F4000005F01D18020BDE704F08050B0F1805FB8
:103F500002D14FF48070B5E704F00060B0F1006F5B
:103F600002D14FF40070ADE704F08060B0F1806FD3
:103F700002D14FF48060A5E704F08070B0F1807F3B
:103F800002D14FF400609DE704F40000B0F5000F8B
:103F900002D14FF4805095E704F48000B0F5800F13
:103FA00002D14FF400508DE704F40010B0F5001F6B
:103FB00002D14FF4804085E704F48010B0F5801FF3
:103FC00002D14FF400407DE704F48020B0F5802F4B
:103FD00002D14FF4003075E704F40030B0F5003F33
:103FE00002D14FF480206DE704F48030B0F5803FBB
:103FF00002D14FF4002065E704F40040B0F5004F13
:1040000002D14FF480105DE704F48040B0F5804F9A
:1040100002D14FF4001055E704F40050B0F5005FF2
:1040200002D14FF480004DE704F00800082801D1C8
:10403000000547E74FF4803044E70000B00000205F
:1040400008E0FFFD10B5014616480068C0084FF4AF
:104050007A74B0FBF4F041F2883400FB04F300BF43
:10406000181EA3F1010302D14FF0004010BD4A6BAE
:1040700002F045000028F3D002F400600028EFD1E0
:10408000486B00F0040010B104208863EEE7486B31
:1040900000F0010010B101208863E7E7C5208863C4
:1040A0000020E3E7B000002010B501461348006887
:1040B000C0084FF47A74B0FBF4F041F2883400FB8E
:1040C00004F300BF181EA3F1010302D14FF000401A
:1040D00010BD4A6B02F045000028F3D002F40060E6
:1040E0000028EFD1486B00F0040010B10420886371
:1040F000EEE7C52088630020EAE70000B00000205A
:104100002DE9F04304460F4690462A480068C0084F
:104110004FF47A71B0FBF1F041F2883100FB01F904
:1041200000BFB9F10000A9F1010903D14FF000402F
:10413000BDE8F083666B06F045000028F1D006F478
:1041400000600028EDD1606B00F0040010B1042085
:10415000A063EDE7606B00F0010010B10120A063E7
:10416000E6E72046FFF74AFCB84201D00120DFE72E
:10417000C520A06300212046FFF749FC054605F451
:10418000604020B9280CA8F800000020D0E705F412
:104190008040B0F5804F02D14FF40050C8E705F4DD
:1041A0000040B0F5004F02D14FF48050C0E74FF40B
:1041B0008030BDE7B000002010B501461848006807
:1041C000C0084FF47A74B0FBF4F041F2883400FB7D
:1041D00004F300BF181EA3F1010302D14FF0004009
:1041E00010BD4A6B02F045000028F3D002F40060D5
:1041F0000028EFD1486B00F0040010B10420886360
:10420000EEE7486B00F0010010B101208863E7E79A
:10421000486B00F0400008B1402088630020DFE7D1
:10422000B000002010B50446012007490870FCF7D3
:104230002BFC28B90448007820F0010002490870DE
:104240000148007810BD00009000002070B50446C1
:10425000FDF7DEFA054604E0FCF716FC08B900207D
:1042600070BDFDF7D5FA401BA042F5D34FF0FF30EB
:10427000F6E700002DE9F0410646B46B3046FCF746
:104280006BFF02282CD0206C476DE06BD0F8548077
:10429000012F02D0B8F1010F1FD1124821688863A5
:1042A0002068C06B20F49D702168C863A06B40F04B
:1042B0008040A0632046FEF762F80546062D01D037
:1042C000052D05D12068FFF771FDA16B0843A063A0
:1042D000012084F83400002020632046FDF756FFBB
:1042E000BDE8F081FF05400070B50646B46B206B59
:1042F00082280AD12068FFF759FD05462DB1A06B31
:104300002843A0632046FDF741FF2068C06A20F0E3
:1043100008002168C86240F23A5021688863012091
:1043200084F83400002020632046FEF7F1FA70BDC7
:1043300070B50546AC6B40F23A5021688863204660
:10434000FEF71DF80646012084F8340000202063A3
:10435000062E01D0052E05D12068FFF727FDA16BA1
:104360000843A063A06B18B92046FDF7B5FE02E034
:104370002046FDF70BFF70BD0146886B0268D26BCB
:1043800042F480720368DA63704770B50546AC6B1F
:1043900040F23A50216888632046FDF7F0FF064658
:1043A000012084F8340000202063062E01D0052E61
:1043B00005D12068FFF7FAFCA16B0843A063A06B4E
:1043C00018B92046FDF788FE02E02046FDF7DEFE24
:1043D00070BD2DE9F04389B004460F46FDF718FA89
:1043E00081464FF000080020019002903E460821CF
:1043F0002068FFF797FB05461DB1284609B0BDE8C8
:10440000F0835022125B11042068FFF750FB054631
:104410000DB12846F2E74FF0FF30039008200490DA
:10442000302005900220069000200790012008907F
:1044300003A92068FFF7CCFA2068FFF762FC054665
:104440000DB12846DAE715E02068406B00F4001053
:1044500038B12068FFF70DFB01A941F8280008F1E9
:104460000108FDF7D5F9A0EB0900401C10B94FF089
:104470000040C3E72068406B40F22A410840002812
:10448000E2D02068406B00F0080018B108202168D5
:104490008863B3E72068406B00F0020018B1022087
:1044A00021688863AAE72068406B00F0200018B1FB
:1044B000202021688863A1E740F23A502168886390
:1044C00002980006029901F47F4140EA0120029916
:1044D00001F47F0140EA1120029940EA1160306046
:1044E000361D01980006019901F47F4140EA012040
:1044F000019901F47F0140EA1120019940EA11601D
:10450000306000207AE730B58FB004460120039078
:104510002068FFF777FA18B94FF080600FB030BD10
:10452000606C03281BD02068FFF7B9FB05460DB16E
:104530002846F3E700212068FFF769FA6067042145
:104540002068FFF764FAA06708212068FFF75FFA88
:10455000E0670C212068FFF75AFA80210851606C4F
:10456000032807D003A92068FFF703FC05460DB117
:104570002846D3E7606C032820D0BDF80C102165D5
:104580005022125B11042068FFF7A2FB05460DB113
:104590002846C3E700212068FFF739FA6066042146
:1045A0002068FFF734FAA06608212068FFF72FFA89
:1045B000E0660C212068FFF72AFA206704212068B2
:1045C000FFF725FA010DE16404A92046FDF7E0FD9F
:1045D00010B14FF08050A1E75020005B01040A4663
:1045E00000232068FFF73EFB05460DB1284695E7FE
:1045F000D4E90412A069CDE90012029094E80F00FA
:10460000FFF714FA002089E7F8B50446002000906F
:10461000002600272068FFF7BDFA05460DB12846A1
:10462000F8BD2068FFF7CCFA054645B10021A1642A
:104630002068FFF7AFFA05461DB12846F0E70121D3
:10464000A164A06C012808D100212068FFF72FFA8F
:10465000054615B14FF08050E2E71DE000212068CB
:10466000FFF725FA05460DB12846D9E71849206815
:10467000FFF73AFA054615B14FF08050D0E7002118
:104680002068FFF7C4F90646012080EAD67080F062
:1046900001070098401C00904FF6FF710098884277
:1046A00001D2002FDAD04FF6FF710098884202D372
:1046B0004FF08070B4E706F08040B0F1804F02D137
:1046C0000120606401E0002060640020A8E7000091
:1046D000000010C12DE9F0410546AC6AEF6AE7B170
:1046E0004FF0000814E02868FFF7C3F9064626706B
:1046F000641C7F1E300A2070641C7F1E300C2070EA
:10470000641C7F1E300E2070641C7F1E08F101089F
:10471000B8F1080FE7D3AC62EF62BDE8F08170B585
:1047200004460D4615B94FF0006070BD5022125B73
:1047300011042068FFF701FB06460EB13046F4E78E
:1047400000212068FFF763F928600020EDE77CB5C1
:10475000044600200090019000212068FFF757F9DF
:1047600000F00070B0F1007F02D14FF400607CBD1A
:1047700069462046FFF72DFE05460DB12846F6E7AF
:10478000019800F4803098B15022125B1104206827
:10479000FFF78DF905460DB12846E8E700212068AE
:1047A000FFF7DCF905460DB12846E0E70020DEE71B
:1047B0004FF08060DBE77CB504460020009001905C
:1047C00000212068FFF723F900F00070B0F1007FAE
:1047D00002D14FF400607CBD69462046FFF7F9FD29
:1047E00005460DB12846F6E7019800F4802098B1FF
:1047F0005022125B11042068FFF759F905460DB1EC
:104800002846E8E702212068FFF7A8F905460DB120
:104810002846E0E70020DEE74FF08060DBE7F8B5F0
:1048200005462C6A6E6A1EB300271DE020780090B2
:10483000641C761E2078009941EA00200090641CD8
:10484000761E2078009941EA00400090641C761E94
:104850002078009941EA00600090641C761E694649
:104860002868FFF71EF97F1C082FDFD32C626E62C9
:10487000F8BD000010B50446FCF712F920B9204637
:10488000FFF7D0FC024908700148007810BD000015
:1048900090000020F0B589B007460D461446012669
:1048A0001648007800F0010010B1032009B0F0BDF7
:1048B00035B1012D06D0022D0BD0032D18D10FE0FC
:1048C000002617E001A8FCF7D5F80798206000261D
:1048D00010E001A8FCF7CEF808982080002609E037
:1048E00001A8FCF7C7F80898400A2060002601E0FC
:1048F000042600BF00BF3046D8E70000900000202B
:104900002DE9F05F83460D4690461E464FF0010AA2
:1049100047F23050FFF79AFC002802DA5046BDE813
:10492000F09F05F00300002867D132464146284633
:10493000FCF7D4F858BB002031490860FCF768FF49
:10494000044600BF2E48006830B9FCF761FF001B29
:1049500047F230518842F5D32948006810B94FF02A
:10496000010A4AE0002026490860FCF751FF04468E
:1049700005E0FCF789F810B94FF0000A06E0FCF7F3
:1049800047FF001B47F230518842F2D335E04FF029
:10499000000929E0414608F1010801221948FCF705
:1049A0009DF80746EFB9002015490860FCF730FF75
:1049B000044600BF1248006830B9FCF729FF001B0D
:1049C00047F230518842F5D30D48006800B90DE038
:1049D0004FF400720B492846FBF723FC05F50075E0
:1049E00000E003E009F10109B145D3D300BFB145AF
:1049F00002D10FB94FF0000A00BF50468FE7000008
:104A0000980000207C02002010B504462046FFF7E5
:104A100009FC10BD2DE9F05F83460D4691461E4608
:104A20004FF0010A00203A49086047F23050FFF782
:104A30000DFC002802DA5046BDE8F09F05F00300A7
:104A4000002863D1324649462846FCF761F840BB4E
:104A5000FCF7DEFE044600BF2D48006830B9FCF7C5
:104A6000D7FE001B47F230518842F5D32848006832
:104A700010B94FF0010A49E0002025490860FCF711
:104A8000C7FE044605E0FBF7FFFF10B94FF0000A30
:104A900006E0FCF7BDFE001B47F230518842F2D31E
:104AA00034E04FF0000829E0002019490860494629
:104AB00009F1010901221748FCF72AF80746D7B97E
:104AC000FCF7A6FE044600BF1148006830B9FCF7A9
:104AD0009FFE001B47F230518842F5D30C48006816
:104AE00000B90DE04FF400720A492846FBF799FB24
:104AF00005F5007500E003E008F10108B045D3D3E7
:104B000000BFB04502D10FB94FF0000A504693E7FD
:104B1000940000207C0200207CB504460D46164619
:104B2000164800681821B0FBF1F01549B0FBF1F010
:104B30004FF47A71484301906068B0F5827F0DD1DF
:104B40002B46002280212046009600F01BF898B1E9
:104B5000606D40F02000606503207CBD00BF0198BF
:104B600000B908E00198401E019020688068C0F3F9
:104B7000C0100028F3D100BF0020EEE7B0000020F5
:104B800040420F002DE9F04104460E4617461D46EF
:104B9000DDF818803EE0681CD8B3FCF739FEA0EBC6
:104BA0000800A84200D2A5BB2068406820F0E000C1
:104BB000216848606068B0F5827F0DD1A068B0F5CB
:104BC000004F03D0A068B0F5806F05D12068006861
:104BD00020F0400021680860A06AB0F5005F0DD1A8
:104BE00000BF2068006820F4005021680860206839
:104BF000006840F400502168086000BF012084F87C
:104C0000510000BF002084F8500000BF0320BDE821
:104C1000F081FFE7206880683040B04201D1012078
:104C200000E00020B842B6D10020F0E7704710B590
:104C3000FCF7F4FD10BD000000B593B0302107A8CB
:104C4000FBF708FB142102A8FBF704FB00BF0020C0
:104C500001902548006840F08050234908600846CC
:104C6000006800F08050019000BF00BF00BF00202E
:104C700001901E48006840F480401C4908600846C6
:104C8000006800F48040019000BF00BF0220079040
:104C900001200A9010200B9002200D9000210E910F
:104CA00008210F91402110910221119103211291AD
:104CB00007A8FCF7CDFF08B1FBF7E4FF0F20029037
:104CC00002200390802004904FF4A05005904FF4F0
:104CD00080500690012102A8FCF77AFE08B1FBF78C
:104CE000D1FF13B000BD000040380240007000400A
:104CF0000548006840F47000034908604FF0006008
:104D0000014980390860704788ED00E070B50546BC
:104D1000AC6B0020E085E0842046FEF7B1F970BD61
:104D20000168C96821F490710268D160016849691D
:104D300021F0010102685161202180F83A1070478A
:104D400010B504462068C06820F040002168C860A3
:104D5000202084F839002046FEF792FB002010BD89
:104D600070B5044694F83A0022284AD1A068B0F5FC
:104D7000805F13D1A56A206940B920684068C0F3FC
:104D800008002880A06A801CA06219E020684068A2
:104D9000C0B22880A06A401CA06211E0206938B926
:104DA00020684068C1B2A26A501CA062117007E07E
:104DB0002068406800F07F01A26A501CA062117058
:104DC000E08D401E80B2E085C8B92068C06820F040
:104DD00020002168C8602068C06820F480702168C5
:104DE000C8602068406920F00100216848612020E7
:104DF00084F83A002046FEF7ADFA002070BD00208E
:104E0000FCE70220FAE700002DE9F84F044620688D
:104E1000006920F44050E168084321680861216975
:104E2000A068084361690843E1690843009020686D
:104E3000C06849F20C618843009908432168C86042
:104E40002068406920F44070A169084321684861E6
:104E5000E069B0F5004F75D1E3492068884203D07E
:104E6000E249206888426FD1FCF78AFE8146022021
:104E70006168A0FB01510B461920A9FB00712A466D
:104E80003846FBF79DF96421B0FBF1F04FEA001AB8
:104E900002206168A0FB01510B461920A9FB00719B
:104EA0002A463846FBF78CF9074602206168A0FBCA
:104EB00001510B461920A9FB00B12A465846FBF7C1
:104EC0007FF96421B0FBF1F000EBC00101EB0010B1
:104ED000A7EB8000322101EBC0006421B0FBF1F0B0
:104EE00000F0F8000AEB400A02206168A0FB0151C3
:104EF0000B461920A9FB00712A463846FBF760F9DA
:104F0000074602206168A0FB01510B461920A9FB4E
:104F100000B12A465846FBF753F96421B0FBF1F083
:104F200000EBC00101EB0010A7EB8000322101EB88
:104F3000C0006421B0FBF1F000F00700504421688C
:104F400088604FE16EE0FFE7FCF70AFE8146022031
:104F50006168A0FB01510B461920A9FB00712A468C
:104F60003846FBF72DF96421B0FBF1F04FEA001A47
:104F700002206168A0FB01510B461920A9FB0071BA
:104F80002A463846FBF71CF9074602206168A0FB59
:104F900001510B461920A9FB00B12A465846FBF7E0
:104FA0000FF96421B0FBF1F000EBC00101EB001040
:104FB000A7EB8000322101EBC0006421B0FBF1F0CF
:104FC00000F0F8000AEB400A02206168A0FB0151E2
:104FD0000B461920A9FB00712A463846FBF7F0F86A
:104FE000074602206168A0FB015003461920A9FB77
:104FF00000B12A465846FBF7E3F86421B0FBF1F014
:1050000000EBC00101EB0010A7EB8000322101EBA7
:10501000C0006421B0FBF1F000F0070050442168AB
:105020008860DFE070492068884203D06F492068BB
:1050300088426BD1FCF7A4FD814604206168A0FB87
:1050400001510B461920A9FB00712A463846FBF78F
:10505000B7F8824604206168A0FB01510B46192075
:10506000A9FB00712A463846FBF7AAF86421B0FB79
:10507000F1F000EBC00101EB0010AAEB800032213F
:1050800001EB00106421B0FBF1F000F0F00A042005
:105090006168A0FB015003461920A9FB00712A4654
:1050A0003846FBF78DF86421B0FBF1F00AEB001AEB
:1050B00004206168A0FB01510B461920A9FB007177
:1050C0002A463846FBF77CF8074604206168A0FBB7
:1050D000015003461920A9FB00B12A465846FBF7A8
:1050E0006FF86421B0FBF1F000EBC00101EB0010A0
:1050F000A7EB8000322101EB00106421B0FBF1F03E
:1051000000F00F005044216888606BE0FCF728FD38
:10511000814604206168A0FB015003461920A9FBC9
:1051200000712A463846FBF74BF882460420616836
:10513000A0FB015003461920A9FB00712A463846FE
:10514000FBF73EF86421B0FBF1F000EBC00101EB8E
:105150000010AAEB8000322101EB00106421B0FBAB
:10516000F1F000F0F00A04206168A0FB0150034652
:105170001920A9FB00712A463846FBF721F8642163
:10518000B0FBF1F00AEB001A04206168A0FB01708B
:1051900003461920A9FB005001463A462846FBF772
:1051A0000FF8074604206168A0FB01500346192050
:1051B000A9FB00B12A465846FBF702F86421B0FB70
:1051C000F1F000EBC00101EB0010A7EB80003221F1
:1051D00001EB00106421B0FBF1F000F00F0050442F
:1051E00021688860BDE8F88F00100140001401407C
:1051F000014691F8390021282CD18868B0F5805FEC
:105200000FD10A6A1088C0F308000B68586008695B
:1052100018B9086A801C086209E0086A401C086224
:1052200005E00B6A581C086218780B685860C88C37
:10523000401E80B2C88458B90868C06820F0800059
:105240000B68D8600868C06840F040000B68D86000
:10525000002070470220FCE72DE9F04104460D468E
:1052600017469846069E21E0701CF8B12EB1FCF757
:10527000CFFAA0EB0800B04218D92068C06820F42B
:10528000D0702168C8602068406920F00100216862
:105290004861202084F8390084F83A0000BF0020DB
:1052A00084F8380000BF0320BDE8F0812068006862
:1052B0002840A84201D1012000E00020B842D3D00C
:1052C0000020F1E710B50248FDF7DCFE10BD00003C
:1052D0005C3B002000BFFEE770B5FCF799FA05467D
:1052E000002201210E48FCF78DFA052004F0A2FAF5
:1052F00000BFFF2004F09EFA0446FCF789FA401B29
:1053000040F6B831884200D970BD04F00100002891
:10531000EFD1012211460248FCF774FA00BFF3E70F
:10532000000802400FB4054B10B503A9044A0298C7
:1053300000F0FAF810BC5DF814FB00005181000881
:10534000BC0000200FB4084B10B504A902AA0398B2
:1053500000F0EAF8044602A9002000F07CFC204698
:1053600010BC5DF814FB0000575C000802480068A0
:10537000C0F30220704700000CED00E010B50028DB
:1053800004DB0A07130E054A135406E00A07140E3D
:10539000034A00F00F031B1FD45410BD00E400E0CB
:1053A00018ED00E002E008C8121F08C1002AFAD177
:1053B00070477047002001E001C1121F002AFBD195
:1053C000704700002DE9FF5FDDE90220010DDDF8E7
:1053D00038B0024318D044F61050A1F2FF314143D7
:1053E0000D140F98012820D0A5EB0B00401C5FEA9C
:1053F000000A4FF00004474EDFF81C91A0465046CB
:1054000016D5CAF1000728E00F98012443A201280D
:1054100008D0002100980F9BC0E90021C0E9024399
:10542000BDE8FF9F6FEA0B01F4E7CBF10000DEE778
:10543000074612E0F80707D0224633464046494661
:10544000FAF725FF8046894622463346104619461C
:10545000FAF71DFF04460E467F10002FEAD1DDE962
:105460000201BAF1000F42464B4602DAFAF70FFF8B
:1054700001E0FAF77EFF04460E460022284BFBF7B8
:10548000ABF903D84FF0FF30014607E00022254B6F
:1054900020463146FBF7E1F8FBF786F9102409E0D6
:1054A000002C0ADB0A220023FAF78AFE019B303225
:1054B0001A55641E50EA0102F2D1641C019AC4F12B
:1054C000110314440F9A012A03D0012208430DD17D
:1054D0000AE0084304D000204FF0110B0F9080E742
:1054E000A3EB0B056D1E0DE05B4504DD4FF00002E4
:1054F00005F1010504E003DA4FF00002A5F1010512
:10550000002AECD000980F99C0E90231C0E90045AB
:1055100086E70000000024400000F03F300000005B
:105520000000F0430000E03F2DE9FF4F95B09B469F
:105530008946064600250FE2252877D10024274614
:10554000F84A0121059400E0044316F8013F203B8E
:1055500001FA03F01042F7D130782A2811D06FF009
:105560002F033078A0F13002092A16D8059A44F0AA
:10557000020402EB820203EB42021044761C059007
:10558000EFE759F8042B0592002A03DA504244F45D
:105590000054059044F00204761C30782E2816D171
:1055A00016F8010F44F004042A280DD06FF02F02E2
:1055B0003078A0F13003092B09D807EB870302EB01
:1055C0004303C718761CF3E759F8047B761C307840
:1055D0006C280FD006DC4C2817D068280DD06A281C
:1055E00014D104E0742810D07A280FD10DE044F4CF
:1055F00000140AE044F4801401E044F4401472788A
:10560000824202D104F58014761C761C307866281C
:105610000BD013DC582877D009DC002875D045283A
:10562000F6D04628F4D047281AD19DE118E0632827
:1056300035D0642879D0652812D195E1702873D0CF
:1056400008DC6728F1D069286FD06E280DD06F284C
:1056500006D1B5E073282CD0752875D0782874D081
:105660005A46179990476D1C75E1C4F30250022801
:1056700009D003280DD0D9F8001004280DD00D60F2
:1056800009F1040967E1D9F80010EA17C1E90052ED
:10569000F6E7D9F800100D80F2E70D70F0E719F881
:1056A000041B8DF8001000208DF80100EA4601204F
:1056B00003E059F804AB4FF0FF3061074FF00001F1
:1056C00002D40DE008F101018846B9420FDA8045A5
:1056D000F8DB1AF808100029F4D108E008F10101FC
:1056E00088468142FADB1AF808100029F6D105989D
:1056F0005B46A0EB080721463846179A00F094FA5B
:10570000284400EB080507E04DE029E10DE01AF818
:10571000010B5A4617999047B8F10108F7D25B463A
:1057200021463846179A13E142E00A220092C4F358
:1057300002524FF0000A022A08D059F804CB032A7B
:105740004FEAEC710AD00DE029E02AE009F10701E7
:1057500021F00702F2E802C1914609E00FFA8CFC41
:105760004FEAEC71042A03D14FFA8CFC4FEAEC713A
:10577000002907DA0A460021DCF1000C61EB020186
:105780002D2202E0220504D52B228DF804200122CF
:1057900003E0E20701D02022F7E7904659E00A2112
:1057A00002E010220DE010214FF0000A00910BE002
:1057B00010224FF0000A44F004040827009203E08E
:1057C00008224FF0000A0092C4F30252022A05D0C8
:1057D00059F804CB0021032A08D009E009F1070198
:1057E00021F00702F2E802C1914605E01FFA8CFCA5
:1057F000042A01D10CF0FF0C4FF00008220728D535
:10580000702806D0009B83F0100353EA0A0305D0EA
:105810000EE040228DF80420012208E05CEA01023B
:1058200006D030228DF804208DF805000222904623
:10583000009B83F0080353EA0A030AD15CEA0102E1
:1058400001D1620705D530228DF804204FF0010800
:105850007F1E582804D034A003900EA802900DE0BB
:1058600036A0F9E753466046009AFAF7A9FC844649
:105870000398825C0298401E029002705CEA01006C
:10588000F0D1029806A9081A00F1200A600702D593
:1058900024F4803400E00127574502DDA7EB0A001D
:1058A00000E0002000EB0A01009005984144401AF6
:1058B0000590E00306D45B462146179A059800F050
:1058C000B3F90544002706E001A85A46C05D1799C0
:1058D00090476D1C7F1C4745F6DBE0030CD55B460B
:1058E0002146179A059800F09FF9054404E03020FE
:1058F0005A46179990476D1C0099481E0090002940
:10590000F5DC08E0029802995A460078491C029199
:10591000179990476D1CBAF10001AAF1010AF1DC58
:1059200065E1000009280100303132333435363763
:1059300038396162636465660000000030313233DB
:10594000343536373839414243444546000000007B
:1059500000F058F90544761C307800287FF4ECAD4F
:1059600019B02846BDE8F08F620700D4062709F178
:10597000070222F0070CFCE80223E14603F000488E
:105980005FEA080C02D00FF2702C0DE05FEA045CB5
:1059900002D50FF2682C07E05FEAC47C02D00FF258
:1059A000602C01E0AFF2700C4FF0FF3823F00043A1
:1059B000CDF850C065280CD006DC452809D0462813
:1059C0001DD047283DD13DE0662818D067287ED1FC
:1059D00038E00021112F01DB112000E0781CCDE917
:1059E000000106A90EA8FFF7EDFCDDE90F010E9AF4
:1059F00003910021009207F1010A04914DE04FF05C
:105A000000400097CDE9011006A90EA8FFF7DAFCC7
:105A1000DDE90F0203920E9B11990022DDF80CA024
:105A20000093049211B9791C00EB010AB7EB0A004C
:105A300004D4C0F1FF3007F1010A0490AAEB07007B
:105A4000019044E0012F00DA01270021112F01DD30
:105A5000112000E03846CDE9000106A90EA8FFF7A5
:105A6000B1FCDDE90F010E9A03910021049100922F
:105A7000BA4621070CD40399514500DA8A46BAF197
:105A8000010F05DD009AAAF10101515C302908D00F
:105A9000B84202DA10F1040F06DA0121CDE9011053
:105AA00015E0AAF10101E9E7002805DC04990144A9
:105AB0000491AAEB000102E0411C514500DD8A4639
:105AC0000499401A401C01904FF0004002902007BA
:105AD00004D40198504501DBCDF8048000208DF8F6
:105AE0004F0002980DF14F07B0F1004F25D02B2049
:105AF0000E9002984FF0020800280CDA4042029003
:105B00002D200E9007E00A210298FAF7DDFC3031D3
:105B1000029007F8011DB8F10001A8F10108F2DCBC
:105B200002980028EFD1791E0E980870307800F0A6
:105B3000200040F0450007F8020D12A8C01B00F13C
:105B400007081498007800B1012000EB0A010198C1
:105B500001EBE07105984144401A401E0590E003B6
:105B600006D45B462146179A059800F05DF8054477
:105B70001498007818B15A46179990476D1CE003A5
:105B800024D55B462146179A059800F04DF8054448
:105B90001CE00498002807DBDDE90301884203DDEF
:105BA0000098405C179901E0179930205A469047B9
:105BB000049805F10105401C04900198401E0190D5
:105BC00004D12E205A46179990476D1CBAF1000156
:105BD000AAF1010ADDDC05E017F8010B5A46179916
:105BE00090476D1CB8F10001A8F10108F4DC5B4698
:105BF0002146179A0598ABE62D0000002B00000007
:105C0000200000002DE9F041044600251E461746FD
:105C1000880404D405E039462020B0476D1C641E7A
:105C2000F9D52846BDE8F0812DE9F041044600256C
:105C30001E469046C80301D5302700E0202788047F
:105C400004D505E041463846B0476D1C641EF9D5C1
:105C50002846BDE8F0810A68531C0B60107070473D
:105C600038B50446002210211148FBF7CBFD202057
:105C700000904FF47A73012269460E48FDF700F850
:105C8000200A00904FF47A73012269460948FCF714
:105C9000F7FFE0B200904FF47A730122694605489D
:105CA000FCF7EEFF012210210148FBF7ABFD38BDE8
:105CB00000000240AC3A002038B504460022102112
:105CC0001148FBF79FFD102000904FF47A730122DA
:105CD00069460E48FCF7D4FF200A00904FF47A730F
:105CE000012269460948FCF7CBFFE0B200904FF46F
:105CF0007A73012269460548FCF7C2FF0122102190
:105D00000148FBF77FFD38BD00000240AC3A00209F
:105D100038B50446002210211248FBF773FD2820F5
:105D200000904FF47A73012269460F48FCF7A8FFF0
:105D300044F45060000A00904FF47A7301226946DF
:105D40000948FCF79DFFE0B200904FF47A730122FE
:105D500069460548FCF794FF012210210148FBF732
:105D600051FD38BD00000240AC3A002010B50022C1
:105D700010218148FBF746FD072000F097FA7F4984
:105D80000880012000F092FA7C498880022000F00F
:105D90008DFA7A494881062000F088FA77494880D0
:105DA000102000F083FA7549C880282000F07EFAA0
:105DB00072490881202000F079FA70498881012217
:105DC00010216D48FBF71EFD6C4801886CA0FFF7A1
:105DD000A9FA7048817B70A0FFF7A4FA7BA0FFF7B7
:105DE000A1FA6648007900F0010018B17DA0FFF724
:105DF00099FA02E084A0FFF795FA6048007900F074
:105E00000100002839D05D48808800F47060B0F54A
:105E1000806F20D009DCB0F5807F10D0B0F5007F16
:105E200011D0B0F5407F26D111E0B0F5A06F16D0AB
:105E3000B0F5C06F17D0B0F5E06F1CD117E07CA0B3
:105E4000FFF770FA18E080A0FFF76CFA14E085A065
:105E5000FFF768FA10E08AA0FFF764FA0CE08FA061
:105E6000FFF760FA08E094A0FFF75CFA04E099A05D
:105E7000FFF758FA00E000BF02E09DA0FFF752FADA
:105E80003E48007900F0010018B19FA0FFF74AFAE0
:105E900002E0A5A0FFF746FAAAA0FFF743FA3748A9
:105EA000807800F0010018B1ADA0FFF73BFA02E0E6
:105EB000B4A0FFF737FA3148807800F0010018B13C
:105EC000BBA0FFF72FFA02E0C2A0FFF72BFACCA08D
:105ED000FFF728FA2948807900F0010010B1D04876
:105EE000FFF720FACFA0FFF71DFAD6A0FFF71AFAA6
:105EF00022480089C0F30B00A0F55060152838D265
:105F0000DFE800F00B0F13171B1F37232737373736
:105F100037373737372B372F3300D0A0FFF702FA48
:105F200028E0D0A0FFF7FEF924E0D0A0FFF7FAF9AF
:105F300020E0D0A0FFF7F6F91CE0D0A0FFF7F2F9BF
:105F400018E0D1A0FFF7EEF914E0D1A0FFF7EAF9CD
:105F500010E0CBA0FFF7E6F90CE0CFA0FFF7E2F9E5
:105F600008E0CFA0FFF7DEF904E0CFA0FFF7DAF9F1
:105F700000E000BF00BF10BD00000240C0000020D4
:105F80000D0A6164373137355F69643A2025640D45
:105F90000A000000000000206164373137352077A7
:105FA0006F726B2073746174653A2025642C203005
:105FB0002069732073746F702C20312069732072F4
:105FC000756E6E696E670D0A000000000D0A61644F
:105FD0003731373520776F726B206D6F64653A0DFE
:105FE0000A00000055736520616E20657874657243
:105FF0006E616C207265666572656E636520766F92
:106000006C746167650D0A004E6F20657874657267
:106010006E616C207265666572656E636520766F71
:106020006C7461676520697320757365640D0A007F
:10603000E590AFE58AA8347573E8BDACE68DA2E5BE
:10604000BBB6E8BF9F0D0A00E590AFE58AA83136E0
:106050007573E8BDACE68DA2E5BBB6E8BF9F0D0A3F
:1060600000000000E590AFE58AA834307573E8BD04
:10607000ACE68DA2E5BBB6E8BF9F0D0A00000000AC
:10608000E590AFE58AA83130307573E8BDACE68D98
:10609000A2E5BBB6E8BF9F0D0A000000E590AFE5A2
:1060A0008AA83230307573E8BDACE68DA2E5BBB688
:1060B000E8BF9F0D0A000000E590AFE58AA83530E3
:1060C000307573E8BDACE68DA2E5BBB6E8BF9F0DA9
:1060D0000A000000E590AFE58AA8313030307573D2
:1060E000E8BDACE68DA2E5BBB6E8BF9F0D0A000097
:1060F000E585B3E997AD616463E8BDACE68DA2E5E3
:10610000BBB6E8BF9F0D0A004144432073696E6728
:106110006C652D6379636C6520636F6E7665727351
:10612000696F6E0D0A00000041444320636F6E7476
:10613000696E756F757320636F6E76657273696FC4
:106140006E0D0A000D0A616437313735E79A8467AE
:1061500070696FE9858DE7BDAE3A0D0A0000000059
:106160006770696F5F30206F757470757420726529
:10617000666572656E636520766F6C746167650D28
:106180000A0000006770696F5F3020646F657320DC
:106190006E6F74206F7574707574207265666572A9
:1061A000656E636520766F6C746167650D0A00002B
:1061B0006770696F5F31206F7574707574207265D8
:1061C000666572656E636520766F6C746167650DD8
:1061D0000A0000006770696F5F3120646F6573208B
:1061E0006E6F74206F757470757420726566657259
:1061F000656E636520766F6C746167650D0A0000DB
:106200000D0A616437313735E79A84E98787E6A05C
:10621000B7E9809AE98193E9858DE7BDAE0D0A0063
:106220008C4403080D0A616437313735E79A84E9F5
:106230008787E6A0B7E9809FE78E87E9858DE7BD70
:10624000AE0D0A005468652073616D706C696E67ED
:1062500020726174652069733A2000003235304B3A
:106260000D0A00003132354B0D0A000036322E3552
:106270004B0D0A0035304B0D0A00000033312E3231
:10628000354B0D0A0000000032354B0D0A000000AE
:1062900031304B0D0A00000032300D0A00000000C2
:1062A00031300D0A00000000350D0A007FB50546AB
:1062B000FF2002900024002210213148FBF7A2FAAF
:1062C00045F040000390042D22D04FF47A70012352
:1062D00001AA03A900902B48FCF7A3FD4FF47A70A4
:1062E000012301AA02A900902648FCF79AFD9DF817
:1062F000040004434FF47A70012301AA02A900901C
:106300002048FCF78EFD9DF8040040EA04242EE0AE
:106310004FF47A70012301AA03A900901948FCF7F1
:1063200080FD4FF47A70012301AA02A9009015485C
:10633000FCF777FD9DF8040004434FF47A700123C5
:1063400001AA02A900900F48FCF76BFD9DF804001C
:1063500040EA04244FF47A70012301AA02A90090B4
:106360000848FCF75EFD9DF8040040EA0424012281
:1063700010210348FBF746FA204604B070BD000028
:1063800000000240AC3A002010B52DED088B84B01F
:1063900000249FED440AB0EE408A002210214248BA
:1063A000FBF730FA40214048FBF724FA50B10122B4
:1063B00010213D48FBF726FABFEE000A04B0BDEC01
:1063C000088B10BD442003904FF47A70012302AA79
:1063D00003A900903548FCF724FD9DF8080004430C
:1063E000FF2003904FF47A70012302AA03A90090C2
:1063F0002E48FCF716FD9DF808404FF47A700123F3
:1064000002AA03A900902948FCF70BFD9DF808009B
:1064100040EA042443F61510844219D3201AFAF7EF
:1064200017F841EC1B0B9FED220B53EC102BF9F7E7
:106430002EFF41EC1A0B9FED200B53EC102BF9F7BC
:1064400098FF41EC190BFAF723F808EE100A20E048
:1064500043F61511081BF9F7FBFF41EC1B0B9FEDF1
:10646000140B53EC102BF9F712FF41EC1A0B9FEDB4
:10647000120B53EC102BF9F77CFF41EC190BFAF7D8
:1064800007F800EE100AFFEE000A20EE200AB0EE38
:10649000408A012210210448FBF7B4F9B0EE480A03
:1064A0008CE700000000000000000240AC3A002031
:1064B000000000000000A44000000000C068D040C0
:1064C00010B5044604B910BD608800F03DF8A088FE
:1064D00000F066F8E088FFF7EFFB2089FFF718FC73
:1064E000A089FFF7BDFB608900F002F800BFEAE772
:1064F00038B50446002210211148FBF783F9022029
:1065000000904FF47A73012269460E48FCF7B8FBFD
:10651000200A00904FF47A73012269460948FCF77B
:10652000AFFBE0B200904FF47A7301226946054850
:10653000FCF7A6FB012210210148FBF763F938BDE7
:1065400000000240AC3A002038B504460022102179
:106550001148FBF757F9062000904FF47A73012297
:1065600069460E48FCF78CFB200A00904FF47A73C2
:10657000012269460948FCF783FBE0B200904FF422
:106580007A73012269460548FCF77AFB0122102143
:106590000148FBF737F938BD00000240AC3A002053
:1065A00038B50446002210211148FBF72BF90120D1
:1065B00000904FF47A73012269460E48FCF760FBA5
:1065C000200A00904FF47A73012269460948FCF7CB
:1065D00057FBE0B200904FF47A73012269460548F8
:1065E000FCF74EFB012210210148FBF70BF938BDE7
:1065F00000000240AC3A00203EB5FF20029000228D
:1066000010211048FBF7FEF81420FAF789FF002448
:106610000CE04FF47A70012301AA02A900900A4805
:10662000FCF7FFFB09490870601CC4B20A2CF0DBC0
:106630001420FAF775FF012210210248FBF7E2F857
:106640003EBD000000000240AC3A002020000020C7
:1066500070B504460D4634B1012C09D0042C0CD081
:10666000052C14D10EE02946012000F013F80FE0AC
:106670002946282000F00EF80AE02946062000F0FE
:1066800009F805E02946062000F004F800E000BF04
:1066900000BF70BDF8B505460C460026002210214B
:1066A0001948FBF7AFF800954FF47A730122694659
:1066B0001648FCF7E5FA9DF8000040EA1420009027
:1066C0004FF47A73012269461048FCF7D9FAE0B218
:1066D0009DF80010084300904FF47A730122694638
:1066E0000A48FCF7CDFA012210210748FBF78AF887
:1066F0002846FFF7DBFD0646B44202D00CB101206C
:10670000F8BD3046FCE7000000000240AC3A002033
:1067100010B5012210210248FBF774F810BD0000EB
:106720000000024010B50420FFF7C0FD04462146DA
:1067300003A0FEF7F7FD0A48FEF7F4FD10BD0000C8
:106740006469676974616C20766F6C746167652039
:1067500076616C75652069733A2025640D0A000026
:10676000EC44030870B504460D460020E070401E5E
:1067700020632946204602F0BDFB08B1042070BD0D
:1067800004F2322001F0ABFE4AF65521884201D0D6
:106790000320F4E794F83400E92807D094F8340093
:1067A000EB2817D13620005D902813D104F16A0040
:1067B00001F089FE20F07F400749884201D1002086
:1067C000DDE704F1860001F07EFE0449884201D134
:1067D0000020D4E70220D2E746415400464154331A
:1067E000024600E0521C107810B110788842F9D1AE
:1067F0001078704730B502460B460020044601462B
:106800001CE01A4800EB01100068A8B1174800EB23
:10681000011000681568A8420FD1144800EB011060
:1068200040689568A84208D1104800EB01108068C4
:106830005569A84201D103E00124491C0229E0D393
:1068400000BF022906D10CB9022B01D1002030BDB6
:106850001220FCE733B9054800EB01108089B0F540
:10686000807F01D11020F2E70020F0E79C3B002060
:10687000014600200BE0074A02EB001212688A4230
:1068800004D10022034B03EB00131A60401C0228C2
:10689000F1D370479C3B0020F0B503460D461E68BF
:1068A000D86A021D680A7789B0FBF7F400BF02CAF4
:1068B00009B90020F0BD8C4200D202E0641A121D1A
:1068C000F5E700BF10682044F4E70246891E90698E
:1068D000801E884201D8002070475389D06A01FB8E
:1068E0000300F9E72DE9F04780460C4604F11A0051
:1068F00001F0F5FD10B10020BDE8F087207800F030
:106900003F00401E00EB800101EBC0054FF0010984
:10691000002621E01849895D081901F0E0FD0746CD
:10692000B9F1000F11D0FF2D0BD2384601F0D4F988
:10693000824629466D1C38F8110001F0CDF98245D8
:1069400001D00020D8E7B94605E04FF6FF70874236
:1069500001D00020D0E7761C0D2EDBD3207800F08C
:10696000400038B1B9F1000F04D038F8150008B173
:106970000020C1E70120BFE7AC9800082DE9F047EF
:1069800082468946DAF80040B9F1000F06D127693E
:1069900017B1A069B84215D8012713E049465046FF
:1069A00001F08AFC0646022E02D20120BDE8F087E3
:1069B000701C08B93046F9E7A069B04201D93046E9
:1069C000F4E74F463D4600BF6D1CA069A84204D8BD
:1069D0000225BD4201D90020E8E72946504601F0D2
:1069E0006BFC064606B909E0012E01D0701C08B9FF
:1069F0003046DBE7BD42E7D10020D7E700BF4FF0CC
:106A0000FF322946204602F00BFB8046B8F1000F0A
:106A100008D1B9F1000F05D02A464946204602F0B8
:106A2000FFFA8046B8F1000F0DD12561D4E90510B9
:106A3000801E814202D86069401E6061207940F06A
:106A40000100207107E0B8F1010F02D14FF0FF30D3
:106A500000E0012005462846A8E700002DE9F34F95
:106A600083B08146049800680190D9F80000D0F8FE
:106A70000CA000200646054600BF28466D1C019963
:106A80000C5C202C00DA41E02F2C01D05C2C0AD1C8
:106A900000E06D1C0198405D2F28FAD00198405D00
:106AA0005C28F6D032E0FF2E03D3062005B0BDE807
:106AB000F08FE4B2812C13DBE0B2FE2810DC284614
:106AC0006D1C01990F5C07EB042084B2402F01DBA1
:106AD0007E2F05DD802F01DBFE2F01DD0620E5E79F
:106AE0000121204601F0BAF804460CB90620DDE782
:106AF000802C06DA21466FA0FFF772FE08B106204F
:106B0000D4E73046761C2AF81040B6E700BF01985B
:106B1000411904980160202C01DA042000E00020D3
:106B2000804608E0701E3AF81040202C02D02E2C2F
:106B300000D002E0761E002EF4D100BF00202AF81B
:106B400016000EB90620B1E70B22202109F124001E
:106B500002F0C7F9002500E06D1C3AF81500202866
:106B6000FAD03AF815002E28F6D00DB148F00308F7
:106B700000E0761E26B1701E3AF810002E28F8D1DB
:106B80000020074602904FF0080B00BF28466D1CFE
:106B90003AF8104004B963E0202C03D02E2C04D125
:106BA000B54202D048F00308F0E70298584501D2F8
:106BB000B54214D1BBF10B0F02D148F003084FE0EE
:106BC000B54201D048F00308B54200D948E0354647
:106BD000082002904FF00B0BB806070ED6E7802C6A
:106BE00009DB204601F078F80021009001F036F82A
:106BF000044648F00208FF2C11DDABF101000299B8
:106C0000884204D848F00308CDF808B0BEE7221245
:106C10000298411C029109F124010A5419E024B19F
:106C2000214627A0FFF7DCFD18B15F2448F00308D8
:106C30000FE0412C04DB5A2C02DC47F0020708E08D
:106C4000612C06DB7A2C04DC47F00107A4F120005C
:106C500084B20298411C029109F124010C5495E779
:106C600000BF99F82400E52802D1052089F8240006
:106C7000BBF1080F01D1B806070E07F00C000C2875
:106C800003D007F00300032801D148F0020808F000
:106C9000020058B907F00300012801D148F010089C
:106CA00007F00C00042801D148F0080889F82F806B
:106CB0000020FBE6222A3A3C3E3F7C7F0000000099
:106CC0002B2C3B3D5B5D000010B50246531E1A465F
:106CD000022B17D20C4B03EB02139989B1F5807F7D
:106CE00000D10021002901DD4B1E99B2064B03EBB8
:106CF0000213998121B90023034C04EB0214236091
:106D0000002000E0022010BD9C3B00202DE9F04156
:106D100004460E46D4F800800021204600F0CBF94E
:106D20000546EDB9002700BF4046E16902F0E2F8F0
:106D3000054605B113E0206A0078E52802D0206AF4
:106D4000007820B9781C0746B04201D107E000273F
:106D50000121204600F088F80546002DE4D000BF50
:106D6000042D00D107252846BDE8F0812DE9F04724
:106D70000446D4F800A00021204600F09CF9064605
:106D800016B13046BDE8F0874FF0FF08C1464FF01E
:106D9000FF30206300BF5046E16902F0ABF80646C1
:106DA00006B15EE0206A05780DB9042659E0206A34
:106DB000C07A00F03F07A771E52D04D007F0080066
:106DC00038B10F2F05D04FF0FF084FF0FF30206390
:106DD00040E00F2F22D12F20005D00F0400098BB33
:106DE00005F0400038B1206A90F80D9005F0BF051D
:106DF000A8466069206345450CD1206A407B484520
:106E000008D1216ADAF80C00FFF76CFD10B1A8F187
:106E1000010000E0FF2000F0FF081BE0B8F1000FC8
:106E200005D1206A02F026FB484500D119E02F2049
:106E3000005D00F0010040B90B2204F12401206A3A
:106E400002F030F808B90CE004E04FF0FF084FF012
:106E5000FF3020630021204600F006F80646002E91
:106E600099D000BF30468DE72DE9F04704468946AA
:106E70002568606900F12007E06910B1B7F5001FCF
:106E800002D30420BDE8F087C7F30800002868D1CA
:106E9000E069401CE061A06938B92889B0EB571F50
:106EA0005FD80020E0610420ECE76889401E00EA1A
:106EB0005720002855D12046A16901F0FDF906466A
:106EC000012E01D80220DDE7701C08B90120D9E7A6
:106ED000A869B0423FD8B9F1000F03D10020E061AA
:106EE0000420CFE72046A169FFF748FD06460EB90A
:106EF0000720C7E7012E01D10220C3E7701C08B9A3
:106F00000120BFE7284602F00DFB08B10120B9E7D8
:106F10004FF40072002105F1340001F0E2FF4FF060
:106F2000000831462846FFF7D0FC28630CE001201A
:106F3000E870284602F0F6FA08B10120A2E708F14D
:106F40000108286B401C286368894045EFD8286BEE
:106F5000A0EB08002863A66131462846FFF7B5FC80
:106F6000E0616761C7F3080105F13400084420625D
:106F7000002087E72DE9FE4F044626682F20005D9C
:106F800000F0A00010B10620BDE8FE8F4FF0000910
:106F900001E009F10109F06830F819000028F8D182
:106FA0000C2204F12401684601F08EFF9DF80B00CD
:106FB00000F0010028B340212F2001554FF00108B7
:106FC0000EE04346694604F12400F26801F0CEF871
:106FD0002046FFF7CBFE054605B104E008F10108A5
:106FE000B8F1640FEDD300BFB8F1640F01D10720F1
:106FF000CAE7042D01D02846C6E79DF80B102F20C4
:1070000001559DF80B0000F0020030B109F10C00B1
:107010000D21B0FBF1F0401C00E00120074639468D
:107020002046FFF773FE05464DBB781E071E26D08F
:107030006069A0EB4711204600F03DF80546F5B920
:1070400004F1240002F016FA824600BF3046E169DE
:1070500001F050FF054605B110E0FAB2216A53462F
:10706000F06802F079F80120F07000212046FFF767
:10707000FBFE054615B9781E071EE7D100BFC5B94E
:107080003046E16901F036FF054695B9202200211E
:10709000206A01F026FF0B2204F12401206A01F08E
:1070A00013FF2F20005D00F01800216A08730120F3
:1070B000F070284668E72DE9F04104460D46266841
:1070C000B5F5001F02D205F01F0010B10220BDE887
:1070D000F0816561A7681FB93078032800DBB76AC3
:1070E00047B93089B0EB551F01D80220EFE7B06AED
:1070F000E0611CE070894FEA402811E039462046E3
:1071000001F0DAF80746781C08B90120DFE7022F02
:1071100002D3B069B84201D80220D8E7A5EB080530
:107120004545EBD239463046FFF7CFFBE061A7611A
:10713000E06908B90220CAE7E06900EB5520E06188
:10714000C5F3080106F13400084420620020BEE7C0
:1071500070B5044600250848005D58B9012006496D
:10716000085501F10802105D0A1D52F8242011682B
:1071700088470546284670BDBC3B00202DE9F041FC
:1071800004460D4616460649085D091F51F82410AD
:1071900032460B692946984707463846BDE8F081D4
:1071A000C43B00202DE9F04104460D4616461F461B
:1071B0000749085D091F51F824103B463246D1F8B3
:1071C00008C02946E04780464046BDE8F0810000FF
:1071D000C43B002070B50446044A105D121F52F8EB
:1071E0002420516888470546284670BDC43B0020CE
:1071F0002DE9F04104460D4616461F460749085D35
:10720000091F51F824103B463246D1F80CC02946DC
:10721000E04780464046BDE8F0810000C43B0020C6
:10722000002100E0491C022905D2064800EB0110AC
:1072300000680028F6D1022901D001207047002003
:10724000FCE700009C3B002010B5002407E04FF451
:10725000405101EB043002F0C9FA601C84B2072CE3
:10726000F5DB10BD38B50546284600F0B0FB0446F6
:1072700064B96946284602F07EF9044634B92869A3
:10728000FFF722FD04460CB900202860204638BDD7
:107290002DE9F04F89B004460D4607A9204602F0BB
:1072A0006AF90890089808B9607D0890089818B1A4
:1072B000089809B0BDE8F08FE06A00287CD0681C0F
:1072C000002843D1D4F82CA05AF8040B02900220D5
:1072D0000190A76867B300BF03970020049001984E
:1072E000801C019000BF05970498401C049039460B
:1072F000204600F0E1FF0746012F02D8022060750A
:10730000D7E7781C10B901206075D2E70598401CBA
:107310008742E8D0DDE90101884205D804984AF89F
:10732000040B03984AF8040B07988069B842D3D835
:107330000198E16A0860DDE90101884203D8002074
:10734000CAF80000FAE011200890F7E0E068A842CF
:1073500000D2E568A561002DF4D0691E2046FFF734
:107360009BFAE061E1690798FFF7AFFA8146B9F14E
:10737000000F02D1022060759BE707984089401EEC
:10738000691E00EA51208144208BC0F308000028C8
:10739000D8D0206A4845D5D0207D00F0800080B14B
:1073A000226A07994878012304F13001FFF720FF92
:1073B00018B1012060757CE712E0207D00F07F00AD
:1073C00020750799487801234A4604F13001FFF7F8
:1073D000E9FE10B1012060756BE7C4F82090ADE0C4
:1073E000E068A84204D2207D00F0020000B9E56800
:1073F000A06906904FF0000BC4F818B0002D6AD0B9
:10740000079840894FEA4028069890B1681EB0FB63
:10741000F8F10698401EB0FBF8F0814209D30698B7
:10742000401EA8F101018843A061A0692D1AE669F8
:1074300012E0A6687EB900212046FFF79FFA0646B3
:10744000012E02D10220607533E7701C10B90120B3
:1074500060752EE7A660E661D6B325E0A5EB0805CA
:10746000A0694044A061207D00F0020040B100BF4F
:1074700031462046FFF782FA064636B9002515E068
:107480003146204600F018FF0646701C10B9012056
:1074900060750EE7012E03D907988069B04202D8C3
:1074A0000220607505E7E6614545D7D800BFA069B1
:1074B0002844A061C5F3080050B131460798FFF792
:1074C00004FA8346BBF1000F03D102206075F0E699
:1074D00001E00BEB552BE168A069884205D9A06952
:1074E000E060207D40F040002075208BC0F3080054
:1074F00020B3206A584521D0207D00F0800078B16B
:10750000226A07994878012304F13001FFF770FEE1
:1075100010B101206075CCE6207D00F07F00207561
:107520000799487801235A4604F13001FFF73AFEE3
:1075300010B101206075BCE6C4F820B00898B8E628
:107540002DE9F74FADF5107D0446164624B9092004
:107550000DF5137DBDE8F08F06F03F06324682A997
:1075600091A800F00BFC0546002D7CD182988390F9
:1075700001A88299C86083A8919900F097FD0546FB
:107580008DB99DF83B0200F0800008B106250AE0A5
:1075900026F0010008B1012000E00020014683A888
:1075A000FFF728F9054606F01C0000285CD06DB1F5
:1075B000042D08D1FFF734FE18B183A8FFF7DAFCD9
:1075C00000E01220054646F008060AE09DF8120287
:1075D00000F0110008B1072503E006F0040000B137
:1075E0000825002D51D106F0080000284DD000F0EC
:1075F000D3FE81908B9901F10E00819901F00EFF6D
:107600008B9901F11600819901F008FF20208B99D8
:10761000C8728B99829800F043FF814600228B99B3
:10762000829801F0E9FE8B9901F11C00002101F024
:10763000F5FE01208299C870B9F1000F25D082981B
:10764000006B81900022494683A801F024FE054684
:10765000DDB98199829801F04DFC0546A9F1010040
:107660008299086111E075E07DB99DF8120200F081
:10767000100008B1042508E006F0020028B19DF8CA
:10768000120200F0010000B10725BDB906F00800A4
:1076900008B146F040068298006B60628B98A06249
:1076A00026F0010008B1012000E00020014683A877
:1076B00000F098FE2061206900B90225002D57D105
:1076C0008B99829800F0ECFEA0608B9901F11C0070
:1076D00000F0F9FEE0600020E0628298206082986D
:1076E000C088A0802675002060752062A0614FF4DC
:1076F0000072002104F1300001F0F3FB06F02000DD
:1077000040B3E06830B3E068A061829840894FEAF6
:10771000402AA768D4F80C800CE03946204600F0D7
:10772000CBFD0746012F00D80225781C00B90125A2
:10773000A8EB0A080DB9D045EFD8E76155B9C8F3F1
:10774000080038B139468298FFF7BFF8B0F1000B56
:1077500001D102250CE00BEB58202062226A8299AD
:107760004878012304F13001FFF71CFD00B1012529
:107770000DB1002020602846EAE60FB42DE9F04F55
:107780009DB009A8269901F064FD28A81C9000BFAF
:10779000279810F8014B279004B90DE1252C04D04F
:1077A000214609A801F018FDF2E7002006468146AF
:1077B000279810F8014B2790302C05D101262798E7
:1077C00010F8014B279006E02D2C04D102262798B3
:1077D00010F8014B279009E009EB890004EB400009
:1077E000A0F13009279810F8014B2790302C01DBCD
:1077F000392CF1DD6C2C01D04C2C05D146F004065F
:10780000279810F8014B279004B9D5E02546612D43
:1078100004DB7A2D02DCA5F12000C5B24F2D49D042
:1078200006DC422D43D0432D38D0442D4CD144E0CA
:10783000532D04D0552D41D0582D45D141E01C98F1
:1078400050F804BB1C904FF0000801E008F101085B
:107850001BF808000028F9D106F0020048B903E03F
:10786000202109A801F0B8FC404608F1010848456C
:10787000F6D304E01BF8011B09A801F0ADFC9BF84E
:1078800000000028F6D103E0202109A801F0A4FCA3
:10789000404608F101084845F6D379E71C9810F8EE
:1078A000042BD1B21C9009A801F096FC70E70220CD
:1078B00008900EE0082008900BE000BF0A20089016
:1078C00007E01020089004E0214609A801F084FC9C
:1078D0005EE700BF06F0040028B11C9800681C9900
:1078E000091D1C910CE0442D05D11C9800681C99C1
:1078F000091D1C9104E01C9800681C99091D1C912D
:107900008246442D06D10AF0004018B1CAF1000A9F
:1079100046F00806002700BF0898BAFBF0F100FB0C
:1079200011A0C5B20898BAFBF0FA092D06DD782C33
:1079300001D1272000E007202844C5B205F130001E
:10794000C2B238467F1C0DF80020BAF1000F01D0FA
:10795000202FE1D306F0080020B12D2238467F1CED
:107960000DF80020B84606F0010008B1302000E014
:107970002020054603E0294609A801F02DFC06F069
:10798000020020B9404608F101084845F3D300BF82
:10799000781E07461DF8001009A801F01DFC002FF5
:1079A000F6D103E0294609A801F016FC404608F18B
:1079B00001084845F6D3EBE600BF00201C9009A85B
:1079C00001F031FC1DB0BDE8F00F5DF814FBF8B517
:1079D00004466946204601F0CEFD0646002E44D1FD
:1079E000207D00F0400000283FD0207D00F0800086
:1079F00070B1226A00994878012304F13001FFF741
:107A0000F7FB08B10120F8BD207D00F07F00207554
:107A100000F0C2FC0746616A009801F06BFA064666
:107A20001EBBA56AE87A40F02000E8722946A268E9
:107A3000206801F0E1FC05F11C00E16801F0EEFCBA
:107A4000394605F1160001F0E9FC002105F11200AC
:107A500001F0F0FC01200099C870009801F01AFDB7
:107A60000646207D00F0BF0020753046CBE72DE9AB
:107A7000FF4F83B0044615469B46049800900020B3
:107A8000CBF8000001A9204601F075FD0290029894
:107A900010B9607D029018B1029807B0BDE8F08F70
:107AA000207D00F0020008B90720F6E700BFA069BA
:107AB0002844A169884202D2A069C0F1FF35C3E021
:107AC000208BC0F3080000287DD101984089401E1A
:107AD000A16900EA512ABAF1000F26D1A06938B98C
:107AE000A76897B900212046FEF748FF07460CE03B
:107AF000E06A28B12046A169FEF7CEFE074604E001
:107B00002046E169FEF73AFF074607B99FE0012FDB
:107B100002D102206075C0E7781C10B901206075A1
:107B2000BBE7E761A06800B9A760207D00F0800096
:107B300078B1226A01994878012304F13001FFF7F6
:107B400057FB10B101206075A7E7207D00F07F0092
:107B50002075E1690198FEF7B8FE064616B90220C5
:107B600060759AE756444FEA5529B9F1000F2BD0BA
:107B70000AEB090001994989884203D90198408993
:107B8000A0EB0A09019948784B4632460099FFF765
:107B90002FFB10B1012060757FE7206A801B4845EC
:107BA0000ED2206A801B009A02EB40214FF4007233
:107BB00004F1300001F088F9207D00F07F0020758D
:107BC0004FEA49282BE013E0206AB0420FD0E16869
:107BD000A06988420BD2019948780123324604F10A
:107BE0003001FFF7DFFA10B10120607555E726621A
:107BF000208BC0F30800C0F50078A84500D9A8463E
:107C0000218BC1F3080204F130015018424600995B
:107C100001F05AF9207D40F08000207500BF0098E7
:107C200040440090A0694044A061E168A069884296
:107C300001D9A06900E0E068E060DBF800004044A2
:107C4000CBF80000A5EB0805002D7FF439AF00BF8D
:107C5000207D40F04000207500201EE72DE9F04116
:107C600002460F46802A01DA10462FE01FB1184B5A
:107C700045F2205602E0174B45F22056002510240D
:107C800016E0A6EB050C0CEBDC7805EB68014FEA7F
:107C9000410C33F81CC0944500D10BE04FEA410C75
:107CA00033F81CC0944501DA0D4600E00E46641E10
:107CB000002CE6D100BF34B14FF0010C0CEB410CAD
:107CC00033F81CC001E04FF0000C6046BDE8F081C5
:107CD0005AED0108D698000830B5B0F5805F01DA9A
:107CE000244D00E0244D294600BF31F8022B0AB193
:107CF000904200DA3CE031F8023B1C12DBB2D518AE
:107D0000854230DD092C2CD2DFE804F005090F1381
:107D1000171B1F232700851A31F8150021E0851A4B
:107D200005F00105451BA8B21BE0A0F11005A8B2A3
:107D300017E0A0F12005A8B213E0A0F13005A8B229
:107D40000FE0A0F11A05A8B20BE000F10805A8B2F7
:107D500007E0A0F15005A8B203E0A0F5E355A8B2F2
:107D600000BF00BF04E0002CBFD101EB4301BCE722
:107D700000BF30BDDE410308D04303082DE9F74FB3
:107D80008AB000210B9801600A9800F007FB089068
:107D90000898002803DA0B200DB0BDE8F08FB34936
:107DA000089851F820400CB90C20F5E70B980460B6
:107DB0000C9800F0FE000C90207878B16078FFF706
:107DC00009FA814609F0010040B90C9820B109F088
:107DD000040008B10A20DFE70020DDE70020207062
:107DE000089860706078FFF7B3F9814609F00100E8
:107DF00008B10320D0E70C9820B109F0040008B1C5
:107E00000A20C9E7002739462046FEF7ABFC0546A5
:107E1000022D01D02EDA2DE0002614E04FF4DF70A1
:107E200000EB061104F13400084409900998007928
:107E300020B10998083000F046FB00E0002002A9BC
:107E400041F82600761C042EE8D3002606B1761EE3
:107E500000BF02A850F8267027B139462046FEF729
:107E600081FC00E003200546022D03DB701C064662
:107E70000428EED3042D01D101208DE7022D01DB72
:107E80000D2089E704F13F0000F029FBB0F5007FE9
:107E900001D00D2080E704F14A0000F020FB80466D
:107EA000B8F1000F04D104F1580000F00CFB80463B
:107EB000C4F81C804420005DA070A078012804D084
:107EC000A078022801D00D2066E7A07808FB00F812
:107ED0004120005D6081608918B16089411E0840C1
:107EE00008B10D2058E704F1450000F0F8FA2081B0
:107EF000207A00F00F0008B10D204DE704F1470093
:107F000000F0EDFA8246BAF1000F04D104F15400FA
:107F100000F0D9FA824604F1420000F0E0FA019044
:107F2000019808B90D2037E701984044218900EBFA
:107F3000111007900798824501D20D202CE7079871
:107F4000AAEB00006189B0FBF1FBBBF1000F01D18E
:107F50000D2021E703254FF6F570834500D8022553
:107F600040F6F570834500D801250BF10200A061B1
:107F7000276201983844606207983844E062032D14
:107F800013D104F15E0000F0AAFA08B10D2003E756
:107F9000208908B10D20FFE604F1600000F093FA9B
:107FA000A062A0698000069014E0208908B90D2025
:107FB000F2E6606A4044A062022D02D1A06940004E
:107FC00007E0207E00F00100A16901EB410100EB18
:107FD00051000690E169069800F2FF10B1EB502FB6
:107FE00001D20D20D8E64FF0FF3060612061802083
:107FF0002071032D2CD104F1640000F070FA0128E7
:1080000026D1791C204600F075FF08BB00202071A6
:1080100004F2322000F063FA4AF65521884217D163
:1080200004F1340000F04FFA1149884210D104F5F0
:10803000067000F048FA0F49884209D104F507702C
:1080400000F041FA606104F5087000F03CFA20612C
:10805000257009480088401C80B207490880E080EC
:108060002046FEF705FC002096E60000B400002044
:108070005252614172724161B80000201CB5192052
:10808000019005200090002001F0B0FB01220021AA
:10809000684601F08FFA0122002101A801F0B4FA2C
:1080A00001220021684601F085FA1CBD2DE9F3414B
:1080B00004462646D6F8008002E00198401C019054
:1080C000019800782F28F8D0019800785C28F4D027
:1080D0000020B06001980078202808D280212F204D
:1080E000015500212046FEF7E6FF05462CE000BFC3
:1080F00001A92046FEF7B2FC054605B123E0204663
:10810000FEF734FE05462F20075D3DB1042D04D156
:1081100000BF07F0040000B9052514E007F00400D3
:1081200000B110E0B07900F0100008B905250AE0B0
:10813000A08AC0F3080208F134001118404600F08C
:10814000AFF9B060D4E700BF2846BDE8FC8100006D
:1081500013B50C464FF47A73012269460248FBF7C7
:1081600023F900981CBD00005C3B00202DE9FF4F67
:1081700083B0074691461E460B223846049900F00C
:10818000A3FE052E19D9B04612E039F802BB00252E
:108190000CE0584668F35F0080464FEA6B0B08F42A
:1081A000803010B1234888EA00086D1C102DF0D3F0
:1081B000B9F800000028E8D14646072500BF06F0C0
:1081C0000F0000F1300ABAF1390F03DD0AF10700A0
:1081D00000F0FF0A28466D1E01A901F800A036092B
:1081E000002EECD17E20485500240BE0385D81281C
:1081F00007DB385DFE2804DC681EA04200D106E0E3
:10820000641C641CAC4202D2385D2028EED100BF51
:1082100000BF082D04D228466D1C01A9095C00E0AE
:1082200020212046641C3954082CF2D307B0BDE845
:10823000F08F0000211001001FB5FF2002900022E6
:1082400010211A48F9F7DEFA472003904FF47A70AC
:10825000012301AA03A900901548FAF7E2FD4FF4A3
:108260007A70012301AA02A900901148FAF7D9FDFA
:108270009DF804000F4908804FF47A70012301AA89
:1082800002A900900A48FAF7CCFD0A4800789DF848
:10829000041041EA00200749088001221021034808
:1082A000F9F7B0FA0348008804B010BD000002409E
:1082B000AC3A0020C00000202DE9F04781460C4672
:1082C000D9F80050022C02D3A869A04202D84FF07E
:1082D00001085EE04FF0FF382878012804D002281A
:1082E0002CD0032851D13CE0264606EB5606686A9E
:1082F00000EB5621284600F0FDFD00B148E0304675
:10830000761CC0F3080105F13400475C686A00EB95
:108310005621284600F0EEFD00B139E0C6F3080111
:1083200005F13400405C47EA002704F0010008B181
:10833000380901E0C7F30B00804629E0686A00EBCA
:108340001421284600F0D6FD00B121E040F2FF11D3
:1083500001EA440205F13401501800F0C0F88046EB
:1083600016E0686A00EBD411284600F0C3FD00B1A6
:108370000EE040F2FF1101EA840205F134015018C9
:1083800000F0A1F820F0704802E04FF0010800BFB3
:1083900000BF4046BDE8F0870020704770B5024638
:1083A0004FF0FF301568DDB1116800E0491C0D7811
:1083B000202D02D30D783A2DF8D10D783A2D0ED11B
:1083C000146814F8015BA5F130030A2B06D28C4225
:1083D00004D11BB918464D1C2946156070BD0020FC
:1083E00000BFFBE710B502460B46002116E02B4804
:1083F00000EB011000681468A0420ED1274800EB82
:10840000011040689468A04207D1244800EB011095
:1084100080685469A04200D102E0491C0229E6D3D9
:1084200000BF022922D1002100E0491C022905D207
:108430001A4800EB011000680028F6D1022901D18A
:10844000002010BD154C04EB011410682060134C83
:1084500004EB011490686060104C04EB0114506947
:10846000A06000200D4C04EB0114A08133B10B4837
:1084700000EB0110808908B10020E2E713B14FF44E
:10848000807004E0054800EB01108089401C034C1B
:1084900004EB0114A081481CD3E700009C3B0020A2
:1084A00070B505460C4604F11A0000F018F80646AF
:1084B0002878032805D104F1140000F010F846EAEA
:1084C0000046304670BD0146C8788A7842EA0020EE
:1084D0004A7842EA00200A7842EA002070470146C2
:1084E00048780A7842EA00207047000010B521A0C1
:1084F000FCF718FF29A0FCF715FF37A0FCF712FFC7
:1085000045A0FCF70FFF46A0FCF70CFF52A0FCF7BC
:1085100009FF5FA0FCF706FF6CA0FCF703FF7AA041
:10852000FCF700FF86A0FCF7FDFE9348FCF7FAFE7F
:108530009248FCF7F7FE38A0FCF7F4FE90A0FCF799
:10854000F1FE9FA0FCF7EEFEADA0FCF7EBFEBBA09A
:10855000FCF7E8FEC8A0FCF7E5FE2FA0FCF7E2FE62
:10856000D4A0FCF7DFFEE2A0FCF7DCFEEEA0FCF7F7
:10857000D9FEF9E10D0AE4BBA5E4B88BE4B8BA5022
:1085800043E7ABAFE68EA7E588B6E68C87E4BBA4ED
:10859000E6B187E680BB5C720A0000002020202044
:1085A0002020202020E68C87E4BBA420202020204F
:1085B00020202020202020202020202020202020BB
:1085C000202020202020E58A9FE883BDE8AFB4E684
:1085D000988E0D0A000000002020204745545F417E
:1085E0004C4C5F494E464F5F434D44202020202095
:1085F000202020202020202020202020E88EB7E5E9
:108600008F96E68980E69C89E6A8A1E59D97E4BF60
:10861000A1E681AF5C720A000D0A0D0A000000009D
:108620002020204745545F4144435F494E464F5FF9
:10863000434D4420202020202020202020202020C6
:1086400020202020E88EB7E58F96414443E4BFA167
:10865000E681AF0D0A0000002020205345545F4101
:1086600044435F434F4E465F434D4420202020202B
:10867000202020202020202020202020E9858DE798
:10868000BDAE414443E4BFA1E681AF0D0A00000046
:1086900020202052554E5F4144435F434D442020EB
:1086A00020202020202020202020202020202020CA
:1086B00020202020E590AFE58AA8414443E9878740
:1086C000E6A0B7E58A9FE883BD0D0A00202020536D
:1086D000544F505F4144435F434D442020202020AD
:1086E000202020202020202020202020202020208A
:1086F000E5819CE6ADA2414443E98787E6A0B7E562
:108700008A9FE883BD0D0A0020202052455345541E
:108710005F4144435F434D442020202020202020FF
:10872000202020202020202020202020E5A48DE4CF
:10873000BD8D414443E6A8A1E59D970D0A000000C8
:1087400020202043414C49425F4144435F434D4414
:108750002020202020202020202020202020202019
:1087600020202020E6A0A1E58786414443E98787B1
:10877000E6A0B70D0A0000003C450308A445030825
:108780002020204745545F5254435F494E464F5F77
:10879000434D442020202020202020202020202065
:1087A00020202020E88EB7E58F96E5BD93E5898DE2
:1087B000E5AE9EE697B6E697B6E997B40D0A0000D7
:1087C0002020205345545F5254435F434F4E465F31
:1087D000434D442020202020202020202020202025
:1087E00020202020E8AEBEE7BDAEE5BD93E5898D33
:1087F000E5AE9EE697B6E697B6E997B40D0A000097
:1088000020202052455345545F5254435F434D440A
:108810002020202020202020202020202020202058
:1088200020202020E5A48DE4BD8DE697B6E9929F37
:10883000E6A8A1E59D970D0A000000002020205227
:10884000554E5F5254435F434D442020202020204A
:108850002020202020202020202020202020202018
:10886000E8BF90E8A18CE697B6E9929FE6A8A1E55B
:108870009D970D0A0000000020202053544F505FA8
:108880005254435F434D44202020202020202020AC
:10889000202020202020202020202020E5819CE670
:1088A000ADA2E697B6E9929FE6A8A1E59D970D0ACD
:1088B000000000002020204745545F4E45545F498A
:1088C0004E464F5F434D4420202020202020202072
:1088D0002020202020202020E88EB7E58F96E7BDBD
:1088E00091E7BB9CE4BFA1E681AF0D0A0000000048
:1088F0002020205345545F4E45545F49505F41440A
:1089000044525F434D44202020202020202020205E
:1089100020202020E8AEBEE7BDAE4950E59CB0E582
:108920009D800D0A00000000202020524553455430
:108930005F4E45545F434D442020202020202020BE
:10894000202020202020202020202020E5A48DE4AD
:10895000BD8DE4BBA5E5A4AAE7BD91E6A8A1E59D70
:10896000975C720A0000000012A0FCF7DBFC21A05B
:10897000FCF7D8FCAFF26030FCF7D4FC2DA0FCF77C
:10898000D1FC3BA0FCF7CEFC48A0FCF7CBFCAFF23F
:108990007830FCF7C7FC54A0FCF7C4FC61A0FCF7DE
:1089A000C1FCAFF28C30FCF7BDFC6DA0FCF7BAFC4B
:1089B00010BD000020202052554E5F4E45545F43AD
:1089C0004D44202020202020202020202020202056
:1089D0002020202020202020E8BF90E8A18CE4BBAC
:1089E000A5E5A4AAE7BD91E6A8A1E59D975C720A5A
:1089F0000000000020202053544F505F4E45545F2C
:108A0000434D4420202020202020202020202020F2
:108A10002020202020202020E5819CE6ADA2E4BB80
:108A2000A5E5A4AAE7BD91E6A8A1E59D975C720A19
:108A3000000000002020204745545F53445F5354FA
:108A40004154455F434D44202020202020202020F9
:108A50002020202020202020E88EB7E58F96534448
:108A6000E58DA1E78AB6E680815C720A000000000D
:108A7000202020524541445F53445F444154415FAC
:108A8000434D442020202020202020202020202072
:108A900020202020E8AFBBE58F965344E58DA1E56B
:108AA0008685E5AEB95C720A0000000020202057E0
:108AB000524954455F53445F444154415F434D44E0
:108AC00020202020202020202020202020202020A6
:108AD000E58699E585A55344E58DA1E58685E5AE56
:108AE000B95C720A000000002020204442475F5316
:108AF000544152545F434D44202020202020202008
:108B0000202020202020202020202020E5BC80E5DF
:108B100090AFE5BEAAE78EAFE68993E58DB05C72B3
:108B20000A0000002020204442475F454E445F4336
:108B30004D442020202020202020202020202020E4
:108B40002020202020202020E5819CE6ADA2E5BE4B
:108B5000AAE78EAFE68993E58DB00D0A000000000C
:108B600020202048454C505F434D442020202020A9
:108B700020202020202020202020202020202020F5
:108B800020202020E68993E58DB0E68980E69C8947
:108B9000E68C87E4BBA45C720A0000002DED048B18
:108BA0008AB0F8F747FEFCF747F8FAF7DFFDFAF767
:108BB000ABFDFAF795FEFAF7A5FEFAF7C7FEFAF74E
:108BC000E7FEFAF7C5FDFAF767FD0A228B498C48E4
:108BD000F8F7ECF901228B498B48FAF783FB8B49B4
:108BE00048688047FFF728FB88480168884888471D
:108BF0008849886A804700F0DBFBFDE08448807B81
:108C0000012806D1814908698047834880ED040A1C
:108C10000AE07F48807B38B99FED800A7E4880ED6E
:108C2000040A7A494869804701227D490020FAF701
:108C30002AFC01227B491046FAF725FC01227A49D9
:108C40000220FAF720FC012278490420FAF71BFCE5
:108C5000012277490520FAF716FC01227549062002
:108C6000FAF711FC6E480078734909788842C4D03D
:108C700000F05AF96648807B70B1674890ED040AAD
:108C800010EE101A0846F7F7F0FB41EC180B53EC06
:108C9000182B6AA0FCF746FB61480078664908700B
:108CA0005F490878F7F7D8FE6B4908705D49087886
:108CB000F7F7D2FE684948705B490878F7F7CCFEB1
:108CC0006549887059490878F7F7C6FE6249C87047
:108CD00057490878F7F7C0FE5F4908715549087889
:108CE000F7F7BAFE5C494871084680784FF4616135
:108CF00010FB01F058494978C1EB011100EB8100EC
:108D000055490978084454498860414890ED050A5E
:108D100010EE101A0846F7F7A8FB41EC180B3C4878
:108D200090ED040A10EE101A0846F7F79EFB41EC8E
:108D3000190B8DED088B8DED069B474880684649E1
:108D40000978454A5278444B9B78CDE90132CDE908
:108D500003104148C07800903F48037942793F4969
:108D60003F48FCF7EFFA3F480078002844D13A48E2
:108D7000C07800903848037942793BA14248FCF71B
:108D8000E1FA122240494148FEF7DAFB40480078F8
:108D900078B901203E4908703C48C168FEF778FA6E
:108DA0003C4B03223CA13948FEF761FE3748FEF7F1
:108DB0000EFE3548807C39490978884210D0324807
:108DC000807C364908703148C168FEF761FA244A50
:108DD00033A12E48FEF7D1FC2C48FEF743FA0BE0F6
:108DE0002A48C168FEF754FA1D4A2DA12748FEF70C
:108DF000C4FC2648FEF736FA00E70000AC0100206C
:108E0000D4010020400000205C3B00202400002012
:108E10000000002060000020C000002000000000D2
:108E200042000020430000204400002045000020B4
:108E3000460000204700002041000020766F6C743F
:108E40006167655F63685F30203D20252E316620B5
:108E50006D560D0A00000000E00000200C460308DB
:108E6000EC000020540000204578706572696D6543
:108E70006E745F32302530326425303264253032F2
:108E8000642E74787400000064010020B006002095
:108E900055000020500000200D0A00005600002060
:108EA00025730000F0B503461D460C46002000BFA8
:108EB00015F8017B14F801CBA7EB0C00561E321EEF
:108EC00001D00028F4D0F0BD30B503460C463AB1CD
:108ED00000BF14F8015B03F8015B551E2A1EF8D190
:108EE00030BD10B5034600BF03F8011B541E221EFF
:108EF000FAD110BD70B504460D460026206BA8427D
:108F000010D0204600F00EFB06465EB960780123C3
:108F10002A4604F13401FEF745F910B14FF0FF3550
:108F200001262563304670BD10B5002423A12548D5
:108F3000F7F79BF938B90020234908702021214810
:108F4000F7F788F910BD21A11E48F7F78EF918B17F
:108F50000124FFF7CBFA26E01FA11A48F7F785F99D
:108F600020B101242149886880471CE020A11548D0
:108F7000F7F77BF920B1012401202049887312E022
:108F80001FA11048F7F771F920B1012400201B49F7
:108F9000887308E01EA10B48F7F767F918B10124A0
:108FA0001249886980473CB10020074908700024B5
:108FB00020210448F7F74EF900BFC3E75F434D4453
:108FC000000000007C0100205700002048454C5064
:108FD0005F434D44000000004745545F4144435FF8
:108FE000494E464F5F434D440000000024000020DE
:108FF00052554E5F4144435F434D44000000002002
:1090000053544F505F4144435F434D4400000000C0
:1090100043414C49425F4144435F434D440000009B
:109020002DE9F04704460D4616464FF00209022D81
:1090300074D3A069A84271D92078012804D00228ED
:1090400049D003280DD15EE02F4607EB5707606A31
:1090500000EB57212046FFF74DFF8146B9F1000F85
:1090600000D075E038467F1CC0F3080104F13400DD
:1090700001EB000805F0010028B1F1B298F80000FA
:1090800061F31F1000E0304688F800000120E07016
:10909000606A00EB57212046FFF72CFF8146B9F1AB
:1090A000000F00D054E0C7F3080104F1340001EBD5
:1090B000000805F0010010B1C6F3071006E098F8AB
:1090C000000000F0F000C6F30321084388F8000018
:1090D0000120E0703CE0606A00EB15212046FFF7BC
:1090E00009FF8146B9F1000F00D031E0B1B240F282
:1090F000FF1202EA450304F13402981800F09AF9CD
:109100000120E07024E0606A00EBD5112046FFF7F3
:10911000F1FE8146B9F1000F01D019E019E040F2EB
:10912000FF1101EA850204F134015018FFF7CBF971
:1091300066F31B00064640F2FF1101EA850204F1C6
:1091400034015018314600F069F90120E07000BF89
:1091500000BF4846BDE8F0872DE9F04707460C46BA
:109160001546984684F80D800F20E0720020207389
:10917000002104F11A0000F05DF9681E00EB800187
:1091800001EBC00900200646824600BF4FF6FF7083
:10919000864204D0484609F1010937F810600D49AC
:1091A00011F80A100819314600F044F90EB94FF6CB
:1091B000FF760AF1010082460D28E7D34FF6FF70D3
:1091C000864202D037F8190008B945F040052570ED
:1091D000BDE8F087AC980008F8B504460E460A2EA4
:1091E00003D10D212046FFF7F7FF6568002D00DA57
:1091F000F8BD28466D1C04F10C010E543D2D0CDB0E
:109200006B462A462068FEF732FC0098A84201D13E
:10921000002001E04FF0FF3005466560A068401C6B
:10922000A06000BFE4E738B50446606800280DDBA5
:109230006B4604F10C01D4E90002FEF718FC28B9D2
:1092400060680099884201D1A06838BD4FF0FF30B6
:10925000FBE70160002242608260704710B504465F
:1092600020221102204600F0A5F910BD70B5054678
:109270000C46601E4FF4405202EB001110222846AB
:1092800000F098F970BD10B504460822510220463E
:1092900000F090F910BD2DE9F04781460E461746C3
:1092A0004FF00008D9F80040022E02D3A069B04266
:1092B00002D80220BDE8F08767B100BF4FF0FF324F
:1092C00039462046FFF7ACFE8046B8F1000F01D0CA
:1092D0004046EFE700BF31464846FEF7EDFF054642
:1092E00005B922E0012D01D10220E3E7681C08B98D
:1092F0000120DFE7002231462046FFF791FE80463D
:10930000B8F1000F01D04046D4E7D4E90510801E23
:10931000814206D26069401C6061207940F0010002
:1093200020712E46A069B042D5D800BF0020C1E709
:1093300010B5044620221102204600F065F910BD48
:109340007FB5054600200090019002900390002414
:1093500012480088B0F5966F02DBFDF775FF7FBD00
:1093600000BF4FF4405000EB04111022684600F09B
:1093700021F9641C9DF802006328F2DC07490C8087
:1093800008460088401E4FF4405202EB00111022A4
:10939000284600F039F900BFE1E700009C010020F9
:1093A00010B5044608225102204600F02DF910BDE8
:1093B00010B502A0FBF7B6FF10BD00002848454CD1
:1093C000505F434D442920636F6D6D616E6420636F
:1093D000616E207072696E7420616C6C20636F6DB9
:1093E0006D616E6420696E666F726D6174696F6E17
:1093F0002121210D0A00000070B506460C461546D5
:10940000A9B204F11A0000F015F83078032804D14D
:10941000290C04F1140000F00DF870BD00F8011BD8
:10942000090A00F8011B090A00F8011B090A00F8E3
:10943000011B704700F8011B091200F8011B70475F
:109440001CB50020009001906846FFF71CFF4FF408
:10945000805000F0CBF90198401C04494860084650
:10946000FFF79EFF0248FFF763FF1CBD5800002076
:10947000C000002030B5014600200B2200BF431081
:1094800003EBC01411F8015B6319D8B2531E1A1E06
:10949000F5D130BD70B50446204600F043F80546CE
:1094A000002D38D1207803282ED1207901282BD106
:1094B0004202002104F13400FFF713FD4AF6552162
:1094C00004F23220FFF7B6FF144904F13400FFF72D
:1094D000A5FF134904F50670FFF7A0FF04F5077018
:1094E0006169FFF79BFF04F508702169FFF796FF9C
:1094F000206A401C20636078012304F13401226B50
:10950000FDF776FE00202071607800221146FDF7FD
:1095100035FE00B10125284670BD00005252614160
:10952000727241612DE9F04104460027E078F8B1FC
:10953000256B607801232A4604F13401FDF758FEBB
:1095400008B1012714E00020E070606A281AE16980
:1095500088420DD2A67809E0E069054460780123CD
:109560002A4604F13401FDF743FE761E022EF3D2A3
:109570003846BDE8F08170B504460D4609268CB129
:10958000206878B12068007860B1A0882168C98817
:10959000884207D121684878FDF71CFE00F00100E1
:1095A00000B900260EB9206800E00020286030468F
:1095B00070BD000070B505460C461646002201211C
:1095C0001048F8F71FF9032000F034F9C4F30740FE
:1095D00000F030F9C4F3072000F02CF9E0B200F0FD
:1095E00029F904E0FF2000F025F928706D1C301ED9
:1095F000A6F101018EB2F5D1012211460148F8F71A
:1096000001F970BD000802402DE9F05F07460E46E3
:1096100014464FF00009C846C2460025AB4606F086
:10962000FF0ACAF10000C5B22046E11704EB116140
:10963000C1F30729E11704EB11610912A4EB012121
:1096400001F0FF08BAF1000F22D1B9F1000F05D1E6
:1096500022463146384600F06BF866E008E02246C4
:109660003146384600F064F806F5807607F58077D5
:10967000B9F10000A9F1010101F0FF09EFD1B8F142
:10968000000F52D042463146384600F051F84CE0C7
:10969000B9F1000F18D1A84510DDA8EB050000F0C6
:1096A000FF0B2A463146384600F042F82E442F443C
:1096B0005A463146384600F03BF836E022463146FD
:1096C000384600F035F830E0601B84B22046E117E0
:1096D00004EB1161C1F30729E11704EB11610912D1
:1096E000A4EB012101F0FF082A463146384600F07C
:1096F0001FF82E442F4409E04FF48072314638465B
:1097000000F016F806F5807607F58077B9F10000CD
:10971000A9F1010101F0FF09EED1B8F1000F04D069
:1097200042463146384600F003F8BDE8F09F00009D
:1097300070B505460C461646B6F5807F01DD4FF440
:10974000807600F087F8FBF7C7FD00220121114861
:10975000F8F758F8022000F06DF8C4F3074000F065
:1097600069F8C4F3072000F065F8E0B200F062F891
:1097700003E0287800F05EF86D1C301EA6F10101B0
:109780008EB2F6D1012211460248F8F73BF8FBF7FA
:10979000A3FD70BD000802402DE9F0410024002522
:1097A00000260027002201210F48F8F72BF89F2000
:1097B00000F040F8FF2000F03DF80546FF2000F0E3
:1097C00039F80646FF2000F035F807460122114619
:1097D0000548F8F717F8280440EA062040EA07048D
:1097E0002046BDE8F08100000008024010B50446A4
:1097F00000F030F8FBF770FD002201210C48F8F76B
:1098000001F8202000F016F8C4F3074000F012F829
:10981000C4F3072000F00EF8E0B200F00BF80122CC
:1098200011460348F7F7EEFFFBF756FD10BD0000A9
:109830000008024001B582B04FF47A70012301AAFA
:1098400002A900900248F9F7ECFA9DF804000EBD59
:10985000043B002010B5002201210648F7F7D2FF93
:109860000620FFF7E7FF012211460248F7F7CAFF7B
:1098700010BD00000008024075480008094A0008B1
:1098800001490008154A000895480008000610160E
:109890000006101600000000000000000102030492
:1098A0000607080900000000010203040103050780
:1098B000090E10121416181C1E00010004001000DE
:1098C0004000000100020000010002000400080046
:1098D000100020000000A400E8A1A700ECA1A8004F
:1098E000A7A1B000E3A1B100C0A1B700A4A1D70017
:1098F000C1A1E000A4A8E100A2A8E800A8A8E9008E
:10990000A6A8EA00BAA8EC00ACA8ED00AAA8F2004C
:10991000B0A8F300AEA8F700C2A1F900B4A8FA00FD
:10992000B2A8FC00B9A80101A1A81301A5A81B01B8
:10993000A7A82B01A9A84401BDA84801BEA84D01B4
:10994000ADA86B01B1A8CE01A3A8D001ABA8D201EC
:10995000AFA8D401B3A8D601B5A8D801B6A8DA013A
:10996000B7A8DC01B8A85102BBA86102C0A8C70211
:10997000A6A1C902A5A1CA0240A8CB0241A8D9024A
:1099800042A89103A1A69203A2A69303A3A69403BF
:10999000A4A69503A5A69603A6A69703A7A6980333
:1099A000A8A69903A9A69A03AAA69B03ABA69C0303
:1099B000ACA69D03ADA69E03AEA69F03AFA6A003D3
:1099C000B0A6A103B1A6A303B2A6A403B3A6A503A0
:1099D000B4A6A603B5A6A703B6A6A803B7A6A9036F
:1099E000B8A6B103C1A6B203C2A6B303C3A6B4030B
:1099F000C4A6B503C5A6B603C6A6B703C7A6B803D3
:109A0000C8A6B903C9A6BA03CAA6BB03CBA6BC03A2
:109A1000CCA6BD03CDA6BE03CEA6BF03CFA6C00372
:109A2000D0A6C103D1A6C303D2A6C403D3A6C5033F
:109A3000D4A6C603D5A6C703D6A6C803D7A6C9030E
:109A4000D8A60104A7A71004A1A71104A2A7120475
:109A5000A3A71304A4A71404A5A71504A6A7160476
:109A6000A8A71704A9A71804AAA71904ABA71A0442
:109A7000ACA71B04ADA71C04AEA71D04AFA71E0412
:109A8000B0A71F04B1A72004B2A72104B3A72204E2
:109A9000B4A72304B5A72404B6A72504B7A72604B2
:109AA000B8A72704B9A72804BAA72904BBA72A0482
:109AB000BCA72B04BDA72C04BEA72D04BFA72E0452
:109AC000C0A72F04C1A73004D1A73104D2A7320404
:109AD000D3A73304D4A73404D5A73504D6A73604B6
:109AE000D8A73704D9A73804DAA73904DBA73A0482
:109AF000DCA73B04DDA73C04DEA73D04DFA73E0452
:109B0000E0A73F04E1A74004E2A74104E3A7420421
:109B1000E4A74304E5A74404E6A74504E7A74604F1
:109B2000E8A74704E9A74804EAA74904EBA74A04C1
:109B3000ECA74B04EDA74C04EEA74D04EFA74E0491
:109B4000F0A74F04F1A75104D7A710205CA9132058
:109B500043A81420AAA1152044A81620ACA11820BF
:109B6000AEA11920AFA11C20B0A11D20B1A12520BC
:109B700045A82620ADA13020EBA13220E4A133205E
:109B8000E5A1352046A83B20F9A1AC2080000321A7
:109B9000E6A1052147A8092148A81621EDA1212108
:109BA00059A96021F1A26121F2A26221F3A26321ED
:109BB000F4A26421F5A26521F6A26621F7A267212D
:109BC000F8A26821F9A26921FAA26A21FBA26B21FD
:109BD000FCA27021A1A27121A2A27221A3A27321D1
:109BE000A4A27421A5A27521A6A27621A7A27721FD
:109BF000A8A27821A9A27921AAA29021FBA1912152
:109C0000FCA19221FAA19321FDA1962149A89721B7
:109C10004AA898214BA899214CA80822CAA10F2232
:109C2000C7A11122C6A115224DA81A22CCA11D221E
:109C3000D8A11E22DEA11F224EA82022CFA12322BE
:109C40004FA82522CEA12722C4A12822C5A12922BE
:109C5000C9A12A22C8A12B22D2A12E22D3A134220B
:109C6000E0A13522DFA13622C3A13722CBA13D22BC
:109C7000D7A14822D6A14C22D5A1522250A86022B9
:109C8000D9A16122D4A16422DCA16522DDA16622D2
:109C900051A8672252A86E22DAA16F22DBA1952279
:109CA00092A89922D1A1A522CDA1BF2253A8122307
:109CB000D0A16024D9A26124DAA26224DBA26324A9
:109CC000DCA26424DDA26524DEA26624DFA2672470
:109CD000E0A26824E1A26924E2A27424C5A275244A
:109CE000C6A27624C7A27724C8A27824C9A2792460
:109CF000CAA27A24CBA27B24CCA27C24CDA27D2430
:109D0000CEA27E24CFA27F24D0A28024D1A28124FF
:109D1000D2A28224D3A28324D4A28424D5A28524CF
:109D2000D6A28624D7A28724D8A28824B1A28924C7
:109D3000B2A28A24B3A28B24B4A28C24B5A28D240F
:109D4000B6A28E24B7A28F24B8A29024B9A29124DF
:109D5000BAA29224BBA29324BCA29424BDA29524AF
:109D6000BEA29624BFA29724C0A29824C1A299247F
:109D7000C2A29A24C3A29B24C4A20025A4A901259F
:109D8000A5A90225A6A90325A7A90425A8A90525F3
:109D9000A9A90625AAA90725ABA90825ACA90925C3
:109DA000ADA90A25AEA90B25AFA90C25B0A90D2593
:109DB000B1A90E25B2A90F25B3A91025B4A9112563
:109DC000B5A91225B6A91325B7A91425B8A9152533
:109DD000B9A91625BAA91725BBA91825BCA9192503
:109DE000BDA91A25BEA91B25BFA91C25C0A91D25D3
:109DF000C1A91E25C2A91F25C3A92025C4A92125A3
:109E0000C5A92225C6A92325C7A92425C8A9252572
:109E1000C9A92625CAA92725CBA92825CCA9292542
:109E2000CDA92A25CEA92B25CFA92C25D0A92D2512
:109E3000D1A92E25D2A92F25D3A93025D4A93125E2
:109E4000D5A93225D6A93325D7A93425D8A93525B2
:109E5000D9A93625DAA93725DBA93825DCA9392582
:109E6000DDA93A25DEA93B25DFA93C25E0A93D2552
:109E7000E1A93E25E2A93F25E3A94025E4A9412522
:109E8000E5A94225E6A94325E7A94425E8A94525F2
:109E9000E9A94625EAA94725EBA94825ECA94925C2
:109EA000EDA94A25EEA94B25EFA9502554A8512527
:109EB00055A8522556A8532557A8542558A85525C6
:109EC00059A856255AA857255BA858255CA8592596
:109ED0005DA85A255EA85B255FA85C2560A85D2566
:109EE00061A85E2562A85F2563A8602564A8612536
:109EF00065A8622566A8632567A8642568A8652506
:109F000069A866256AA867256BA868256CA86925D5
:109F10006DA86A256EA86B256FA86C2570A86D25A5
:109F200071A86E2572A86F2573A8702574A8712575
:109F300075A8722576A8732577A8812578A882252B
:109F400079A883257AA884257BA885257CA88625E1
:109F50007DA887257EA8882580A8892581A88A25AF
:109F600082A88B2583A88C2584A88D2585A88E257D
:109F700086A88F2587A8932588A8942589A8952544
:109F80008AA8A025F6A1A125F5A1B225F8A1B3259F
:109F9000F7A1BC258BA8BD258CA8C625F4A1C72593
:109FA000F3A1CB25F0A1CE25F2A1CF25F1A1E22589
:109FB0008DA8E3258EA8E4258FA8E52590A8052681
:109FC000EFA10626EEA1092691A84026E2A142268D
:109FD000E1A10030A1A10130A2A10230A3A1033070
:109FE000A8A10530A9A1063065A9073096A90830B7
:109FF000B4A10930B5A10A30B6A10B30B7A10C301D
:10A00000B8A10D30B9A10E30BAA10F30BBA11030EC
:10A01000BEA11130BFA1123093A81330FEA114309D
:10A02000B2A11530B3A11630BCA11730BDA11D30AF
:10A0300094A81E3095A8213040A9223041A9233090
:10A0400042A9243043A9253044A9263045A9273008
:10A0500046A9283047A9293048A94130A1A4423057
:10A06000A2A44330A3A44430A4A44530A5A4463000
:10A07000A6A44730A7A44830A8A44930A9A44A30D0
:10A08000AAA44B30ABA44C30ACA44D30ADA44E30A0
:10A09000AEA44F30AFA45030B0A45130B1A4523070
:10A0A000B2A45330B3A45430B4A45530B5A4563040
:10A0B000B6A45730B7A45830B8A45930B9A45A3010
:10A0C000BAA45B30BBA45C30BCA45D30BDA45E30E0
:10A0D000BEA45F30BFA46030C0A46130C1A46230B0
:10A0E000C2A46330C3A46430C4A46530C5A4663080
:10A0F000C6A46730C7A46830C8A46930C9A46A3050
:10A10000CAA46B30CBA46C30CCA46D30CDA46E301F
:10A11000CEA46F30CFA47030D0A47130D1A47230EF
:10A12000D2A47330D3A47430D4A47530D5A47630BF
:10A13000D6A47730D7A47830D8A47930D9A47A308F
:10A14000DAA47B30DBA47C30DCA47D30DDA47E305F
:10A15000DEA47F30DFA48030E0A48130E1A482302F
:10A16000E2A48330E3A48430E4A48530E5A48630FF
:10A17000E6A48730E7A48830E8A48930E9A48A30CF
:10A18000EAA48B30EBA48C30ECA48D30EDA48E309F
:10A19000EEA48F30EFA49030F0A49130F1A492306F
:10A1A000F2A49330F3A49B3061A99C3062A99D3046
:10A1B00066A99E3067A9A130A1A5A230A2A5A330AF
:10A1C000A3A5A430A4A5A530A5A5A630A6A5A73013
:10A1D000A7A5A830A8A5A930A9A5AA30AAA5AB30E3
:10A1E000ABA5AC30ACA5AD30ADA5AE30AEA5AF30B3
:10A1F000AFA5B030B0A5B130B1A5B230B2A5B33083
:10A20000B3A5B430B4A5B530B5A5B630B6A5B73052
:10A21000B7A5B830B8A5B930B9A5BA30BAA5BB3022
:10A22000BBA5BC30BCA5BD30BDA5BE30BEA5BF30F2
:10A23000BFA5C030C0A5C130C1A5C230C2A5C330C2
:10A24000C3A5C430C4A5C530C5A5C630C6A5C73092
:10A25000C7A5C830C8A5C930C9A5CA30CAA5CB3062
:10A26000CBA5CC30CCA5CD30CDA5CE30CEA5CF3032
:10A27000CFA5D030D0A5D130D1A5D230D2A5D33002
:10A28000D3A5D430D4A5D530D5A5D630D6A5D730D2
:10A29000D7A5D830D8A5D930D9A5DA30DAA5DB30A2
:10A2A000DBA5DC30DCA5DD30DDA5DE30DEA5DF3072
:10A2B000DFA5E030E0A5E130E1A5E230E2A5E33042
:10A2C000E3A5E430E4A5E530E5A5E630E6A5E73012
:10A2D000E7A5E830E8A5E930E9A5EA30EAA5EB30E2
:10A2E000EBA5EC30ECA5ED30EDA5EE30EEA5EF30B2
:10A2F000EFA5F030F0A5F130F1A5F230F2A5F33082
:10A30000F3A5F430F4A5F530F5A5F630F6A5FC304C
:10A3100060A9FD3063A9FE3064A90531C5A80631E6
:10A32000C6A80731C7A80831C8A80931C9A80A3189
:10A33000CAA80B31CBA80C31CCA80D31CDA80E3159
:10A34000CEA80F31CFA81031D0A81131D1A8123129
:10A35000D2A81331D3A81431D4A81531D5A81631F9
:10A36000D6A81731D7A81831D8A81931D9A81A31C9
:10A37000DAA81B31DBA81C31DCA81D31DDA81E3199
:10A38000DEA81F31DFA82031E0A82131E1A8223169
:10A39000E2A82331E3A82431E4A82531E5A8263139
:10A3A000E6A82731E7A82831E8A82931E9A8203212
:10A3B000E5A22132E6A22232E7A22332E8A2243229
:10A3C000E9A22532EAA22632EBA22732ECA22832F9
:10A3D000EDA22932EEA231325AA9A33249A98E3315
:10A3E0004AA98F334BA99C334CA99D334DA99E3369
:10A3F0004EA9A1334FA9C43350A9CE3351A9D133AB
:10A4000052A9D23353A9D53354A9004EBBD2014E21
:10A41000A1B6024E4081034EDFC6044E4181054E77
:10A420004281064E4381074EF2CD084EC9D5094EF2
:10A43000FDC80A4ECFC90B4EC2CF0C4EA2D80D4E4E
:10A44000BBB20E4EEBD30F4E4481104EA4D8114E2A
:10A45000F3B3124E4581134EA8D7144ED2C7154EF2
:10A46000A7D8164EC0CA174E4681184EF0C7194ECF
:10A47000FBB11A4EB5D21B4ED4B41C4EABB61D4E1A
:10A48000BFCB1E4EA9D81F4E4781204E4881214E7A
:10A490004981224EAAB6234E4A81244EBDC1254E83
:10A4A000CFD1264E4B81274EA5C9284EADD8294E77
:10A4B0004C812A4EF6B82B4EBED12C4EDCE32D4EED
:10A4C000D0D62E4E4D812F4E4E81304EE1B7314EBB
:10A4D0004F81324EAEB4334E5081344ED9C1354ED9
:10A4E0005181364EBCD8374E5281384EE8CD394E68
:10A4F000A4B53A4EAACE3B4EF7D63C4E53813D4EC4
:10A50000F6C03E4ED9BE3F4EAFD8404E5481414E6C
:10A510005581424E5681434ECBC4444E5781454EE1
:10A52000C3BE464E5881474EB1D8484EB4C3494E7B
:10A53000E5D24A4E59814B4EAED64C4EDACE4D4EF8
:10A54000A7D54E4EF5BA4F4EA6B7504ED6C0514E77
:10A550005A81524EB9C6534ED2C5544EC7C7554EF6
:10A560005B81564ED4B9574E5C81584ECBB3594E91
:10A57000D2D25A4E5D815B4E5E815C4EBFD85D4E3D
:10A58000C5BE5E4EF2C65F4EB2D2604EB0CF614ED7
:10A59000E7CF624E5F81634E6081644E6181654E9C
:10A5A0006281664EE9CA674E6381684E6481694E76
:10A5B000C0D86A4E65816B4E66816C4E67816D4E68
:10A5C00068816E4E69816F4E6A81704EF2C2714E23
:10A5D000D2C2724E6B81734EE9C8744E6C81754E57
:10A5E0006D81764E6E81774E6F81784E7081794E97
:10A5F00071817A4E72817B4E73817C4E74817D4E67
:10A6000075817E4EACC77F4E7681804E7781814EBC
:10A610007881824E7981834E7A81844E7B81854E0A
:10A620007C81864ECBC1874E7D81884EE8D3894E92
:10A63000F9D58A4E7E818B4EC2CA8C4EFEB68D4EA7
:10A64000A1D88E4EDAD38F4EF7BF904E8081914EB7
:10A65000C6D4924EA5BB934EC1D8944EE5CE954E2E
:10A66000AEBE964E8181974E8281984EA8D8994E63
:10A6700083819A4EC7D19B4EA9D09C4E84819D4E1A
:10A6800085819E4E86819F4EBDD8A04EEFD9A14EAA
:10A69000F6CDA24EBABFA34E8781A44EBBBDA54E38
:10A6A000A5BAA64EE0D2A74EFAB2A84EE0BAA94E7D
:10A6B000B6C4AA4E8881AB4EEDCFAC4EA9BEAD4E0E
:10A6C000A4CDAE4EC1C1AF4E8981B04E8A81B14E8C
:10A6D0008B81B24ED7C7B34EF1D9B44E8C81B54EF3
:10A6E000F4D9B64E8D81B74E8E81B84E8F81B94E5A
:10A6F0009081BA4ECBC8BB4EE9D8BC4E9181BD4EBD
:10A700009281BE4E9381BF4EDAD2C04EB2CAC14EC4
:10A71000CAC8C24EECD8C34EEAD8C44EC6D8C54E3D
:10A72000F6BDC64ECDC6C74EF0B3C84E9481C94ED5
:10A73000EBD8CA4EF1BDCB4EE9BDCC4E9581CD4E86
:10A74000D4C8CE4ED3B4CF4E9681D04E9781D14E41
:10A75000D8C2D24E9881D34ED6B2D44ED0D7D54E91
:10A76000CBCAD64EFBCBD74ECCD5D84EB6B8D94EE9
:10A77000C9CFDA4E9981DB4E9A81DC4E9B81DD4E4A
:10A78000DAD9DE4EF0D8DF4EAAC7E04E9C81E14E0A
:10A79000EED8E24E9D81E34EFAB4E44EEEC1E54EB2
:10A7A000D4D2E64E9E81E74E9F81E84EEDD8E94E29
:10A7B000A081EA4EC7D2EB4EEFD8EC4EC7C3ED4EA8
:10A7C000A181EE4EA281EF4EA381F04EF6D1F14E63
:10A7D000A481F24ED9D6F34EF2D8F44EA581F54EAF
:10A7E000F5D8F64EFEBCF74EDBBCF84EA681F94E0E
:10A7F000A781FA4EA881FB4ECEC8FC4EA981FD4E22
:10A80000DDB7FE4EAA81FF4EC2B7004FAB81014FAC
:10A81000F3C6024FAC81034FAD81044FAE81054FAB
:10A82000AF81064FB081074FB181084FB281094F08
:10A83000F8D80A4FC1D20B4FB3810C4FB4810D4FE2
:10A84000E9CE0E4FBFBC0F4FFCB7104FA5B7114F4D
:10A85000DDD0124FB581134FB681144FB781154F1C
:10A86000B881164FB981174FDAD6184FC5D3194F93
:10A87000EFBB1A4FE1BB1B4FF1D81C4FBA811D4FE4
:10A88000BB811E4FA1C91F4FB0CE204FABB4214F8B
:10A89000BC81224FF3D8234FBD81244FCBC9254F14
:10A8A000F6D8264FD7C2274FF7D8284FBE81294F59
:10A8B000BF812A4FB1CE2B4FF9D82C4FC0812D4FDD
:10A8C000C1812E4FC2812F4FAEB2304FC0B9314F30
:10A8D000C381324FA3D9334FC481344FE9B0354FD0
:10A8E000C581364FE6C1374FC681384FECC9394F65
:10A8F000C7813A4FC5CB3B4FC8813C4FC6CB3D4F7C
:10A90000A4D93E4FC9813F4FCA81404FCB81414FAF
:10A91000CC81424FCD81434FE8B5444FCE81454F66
:10A92000CF81464FABB5474FD081484FD181494F7A
:10A93000D2814A4FD3814B4FD4814C4FD5814D4F5B
:10A94000BBCE4E4FCDB54F4FA1D7504FF4D7514F3F
:10A95000D3D3524FD681534FE5CC544FD781554F67
:10A96000CEBA564FD881574FA2D9584FDCD9594F3C
:10A97000E0D35A4FFDD85B4FF0B75C4FF7D75D4F30
:10A98000FED85E4FFAD85F4FA1D9604FE3C4614F44
:10A99000D981624FDA81634FB6D3644FF4D8654FE3
:10A9A000DDD9664FDB81674FFBD8684FDC81694F8B
:10A9B000E5C56A4FDD816B4FDE816C4FD0C06D4FB6
:10A9C000DF816E4FE0816F4FF0D1704FDBB0714F80
:10A9D000E181724FE281734FD1BC744FA6D9754F9C
:10A9E000E381764FA5D9774FE481784FE581794FA0
:10A9F000E6817A4FE7817B4FACD97C4FAED97D4F52
:10AA0000E8817E4FABD97F4FB9CA804FE981814F32
:10AA1000EA81824FEB81834FA9D9844FB6D6854F07
:10AA2000EC81864FED81874FEE81884FDEB3894FF1
:10AA3000A8D98A4FEF818B4FFDC08C4FF0818D4F8D
:10AA4000CCCA8E4FF1818F4FAAD9904FF281914F8E
:10AA5000A7D9924FF381934FF481944FB0D9954F7A
:10AA6000F581964FF681974FB1B6984FF781994F80
:10AA7000F8819A4FF9819B4FA9B99C4FFA819D4F5C
:10AA8000C0D29E4FFB819F4FFC81A04FC0CFA14FF2
:10AA9000FD81A24FFE81A34FC2C2A44F4082A54FA9
:10AAA000C4BDA64FECD5A74FE0B2A84FC8C7A94F69
:10AAB000EBBFAA4FADD9AB4F4182AC4FAFD9AD4F31
:10AAC0004282AE4FEACEAF4FEEBAB04F4382B14FA3
:10AAD0004482B24F4582B34F4682B44F4782B54F4E
:10AAE000D6C7B64F4882B74F4982B84F4A82B94F4E
:10AAF0004B82BA4F4C82BB4F4D82BC4F4E82BD4FF2
:10AB00004F82BE4F5082BF4FE3B1C04F5182C14F01
:10AB10005282C24F5382C34FD9B4C44FEDB6C54F12
:10AB2000B4D9C64F5482C74F5582C84F5682C94FB9
:10AB30005782CA4FA1BFCB4F5882CC4F5982CD4FBD
:10AB40005A82CE4FDED9CF4FCEC7D04FFEC0D14FA5
:10AB5000B8D9D24F5B82D34F5C82D44F5D82D54F40
:10AB60005E82D64F5F82D74FD7CBD84FFDB7D94F34
:10AB70006082DA4FB5D9DB4F6182DC4FB7D9DD4F48
:10AB8000A3B1DE4FE1D3DF4FB9D9E04F6282E14F8D
:10AB9000C5D0E24F6382E34FB6D9E44F6482E54FFC
:10ABA0006582E64FB1D9E74F6682E84FB2D9E94FE7
:10ABB000A9C1EA4FB3D9EB4F6782EC4F6882ED4FE2
:10ABC000F3BCEE4FDED0EF4FA9B8F04F6982F14FE2
:10ABD000E3BEF24F6A82F34FBDD9F44F6B82F54F5B
:10ABE0006C82F64F6D82F74F6E82F84FBAD9F94FEB
:10ABF0006F82FA4FB3B0FB4F7082FC4F7182FD4FF2
:10AC00007282FE4FC2D9FF4F73820050748201508E
:10AC10007582025076820350778204507882055004
:10AC2000798206507A8207507B8208507C820950D4
:10AC30007D820A507E820B5080820C50C4D90D5008
:10AC4000B6B10E5081820F50BFD910508282115080
:10AC500083821250B9B5135084821450F3BE15503C
:10AC6000858216508682175087821850C8CC19509A
:10AC7000F2BA1A50D0D21B5088821C50C3D91D5032
:10AC800089821E508A821F50E8BD20508B8221503D
:10AC9000ABB322508C8223508D8224508E8225505B
:10ACA000C5D92650EBBE27508F822850C6D92950CF
:10ACB000BBD92A50DFC42B5090822C50BED92D50C6
:10ACC000C1D92E50C0D92F5091823050928231502C
:10ACD000938232509482335095823450968235500C
:10ACE0009782365098823750998238509A823950DC
:10ACF0009B823A50AED53B509C823C50B5D63D50DD
:10AD00009D823E50E3C73F509E8240509F824150FB
:10AD1000A0824250A1824350C8D94450A2824550DB
:10AD2000A3824650A4824750D9BC4850CAD9495042
:10AD3000A5824A50A6824B50A7824C50BCD94D5098
:10AD4000A8824E50CBD94F50ABC65050A98251501B
:10AD5000AA825250AB825350AC825450AD825550AF
:10AD6000C9D95650AE825750AF825850B082595010
:10AD7000B1825A50F6D75B50B2825C50A3CD5D5081
:10AD8000B3825E50B4825F50B5826050B68261502B
:10AD9000B7826250B8826350B9826450BA826550FB
:10ADA000A1BD6650BB826750BC826850BD826950AD
:10ADB000BE826A50BF826B50C0826C50CCD96D503D
:10ADC000C1826E50C2826F50C3827050C482715073
:10ADD000C5827250C6827350C7827450C882755043
:10ADE000C9827650BCC57750B5CD7850CA827950AB
:10ADF000CB827A50CC827B50CDD97C50CD827D5095
:10AE0000CE827E50C7D97F50A5B38050FEBF8150FF
:10AE1000CF828250D0828350D1828450D28285509A
:10AE2000B5B88650D3828750D4828850FCC08950F0
:10AE3000D5828A50D6828B50D7828C50D8828D5042
:10AE4000F8B08E50D9828F50DA829050DB829150C8
:10AE5000DC829250DD829350DE829450DF829550E6
:10AE6000E0829650E1829750E2829850E3829950B6
:10AE7000E4829A50E5829B50E6829C50E7829D5086
:10AE8000E8829E50E9829F50EA82A050EB82A15056
:10AE9000EC82A250ED82A350F6B4A450EE82A550ED
:10AEA000CED9A650EF82A750CFD9A850A2B4A950AE
:10AEB000D0D9AA50F082AB50F182AC50DFB4AD5083
:10AEC000F282AE50F382AF50F482B050F582B150AE
:10AED000F682B250C1B0B350F782B450F882B55088
:10AEE000F982B650FA82B750FB82B850FC82B95052
:10AEF000FD82BA50D1D9BB50B5C9BC50FE82BD50FD
:10AF00004083BE504183BF504283C0504383C150F1
:10AF10004483C2504583C3504683C4504783C550C1
:10AF20004883C6504983C7504A83C8504B83C95091
:10AF30004C83CA504D83CB504E83CC504F83CD5061
:10AF40005083CE505183CF50F1CFD0505283D15047
:10AF50005383D2505483D3505583D4505683D55005
:10AF60005783D650D2D9D7505883D8505983D95007
:10AF70005A83DA50C5C1DB505B83DC505C83DD5003
:10AF80005D83DE505E83DF505F83E0506083E1507D
:10AF90006183E2506283E3506383E4506483E5504D
:10AFA0006583E650D6D9E750AEC9E8506683E950CC
:10AFB0006783EA506883EB506983EC50D5D9ED5034
:10AFC000D4D9EE50D7D9EF506A83F0506B83F1504B
:10AFD0006C83F2506D83F350DBCBF4506E83F550ED
:10AFE000A9BDF6506F83F7507083F8507183F95004
:10AFF0007283FA507383FB50A7C6FC507483FD50D4
:10B000007583FE507683FF5077830051788301511A
:10B01000798302517A8303517B8304517C830551E8
:10B020007D830651D3D90751D8D908517E83095160
:10B0300080830A5181830B51D9D90C5182830D51E0
:10B0400083830E5184830F51858310518683115160
:10B0500087831251E5C81351888314518983155190
:10B060008A8316518B8317518C8318518D83195104
:10B070008E831A518F831B5190831C5191831D51D4
:10B0800092831E5193831F519483205195832151A4
:10B09000DCC02251968323519783245198832551F4
:10B0A000998326519A8327519B8328519C83295148
:10B0B0009D832A519E832B519F832C51A0832D5118
:10B0C000A1832E51A2832F51A3833051A4833151E8
:10B0D000A5833251A6833351A7833451A8833551B8
:10B0E000A9833651AA833751AB833851AC83395188
:10B0F000AD833A51AE833B51AF833C51B0833D5158
:10B10000B1833E51B2833F51F9B64051A3D841516A
:10B11000CAD44251B3834351AAD44451D6D04551E5
:10B12000E4B34651D7D54751B4834851C8CF4951AC
:10B13000E2B94A51B5834B51CBBF4C51B6834D5107
:10B14000E2C34E51B7834F51B8835051B983515127
:10B15000D2B65251BA835351BB835451C3CD5551CA
:10B16000EED95651F0D95751BC835851BD8359512E
:10B17000BE835A51B3B55B51BF835C51B5B65D51C7
:10B18000C0835E51C1835F51C2836051C3836151EB
:10B19000C4836251A4BE6351C5836451C6836551A3
:10B1A000EBC86651C7836751C8836851ABC8695102
:10B1B000C9836A51CA836B51CBB06C51ABB96D5125
:10B1C000F9C16E51E2D96F51CB837051BCC071513E
:10B1D000B2B97251CC837351D8B97451CBD0755177
:10B1E000F8B17651E4C67751DFBE7851E4B57951B4
:10B1F000C8D77A51CD837B51F8D17C51E6BC7D51C3
:10B20000DECA7E51CE837F51CF838051BDBC815138
:10B21000E6D98251E7D88351D0838451D1838551B7
:10B22000DAC48651D2838751D3838851D4B88951E7
:10B23000BDC88A51D4838B51D5838C51E1B28D51D5
:10B24000D9D48E51D6838F51D7839051D8839151C1
:10B25000D9839251B0C39351DA839451DB839551D2
:10B26000E1C39651A2DA9751DFC89851DC83995116
:10B27000B4D09A51DD839B51FCBE9C51A9C59D5110
:10B28000DE839E51DF839F51E083A051DAB9A15143
:10B29000E183A251A3DAA351E283A451A9D4A55119
:10B2A000A4DAA651E383A751E483A851E583A95109
:10B2B000E683AA51E783AB51FBD9AC51ACB6AD5193
:10B2C000E883AE51E983AF51EBB7B051F9B1B15159
:10B2D000FCD9B251E5B3B351F6BEB451EA83B551CE
:10B2E000F6BFB651B1D2B751E4C0B851EB83B951F2
:10B2F000EC83BA51ED83BB51B3B6BC51FED9BD51FD
:10B30000FDD9BE51EE83BF51EF83C051BBBEC151C9
:10B31000F083C251F183C351F283C451E0C6C551D9
:10B32000F383C651BCD7C751A1DAC851F483C951C0
:10B33000B9C1CA51F583CB51F2B5CC51E8C1CD5159
:10B34000F683CE51F783CF51F5BCD051F883D1515C
:10B35000D5B4D251F983D351FA83D451FB83D5515B
:10B36000FC83D651FD83D751FE83D8514084D951F7
:10B370004184DA514284DB51DDC1DC514384DD512B
:10B38000FDC4DE514484DF514584E051B8BCE15135
:10B39000B2B7E2514684E3514784E451EFB7E55137
:10B3A0004884E6514984E7514A84E8514B84E95185
:10B3B0004C84EA514D84EB51ECD9EC514E84ED5163
:10B3C000BEC6EE514F84EF51ADBFF051CBBBF15132
:10B3D0005084F2515184F351CAB5F4515284F5515D
:10B3E000C9DBF651D7D0F7515384F851B9CDF95193
:10B3F000BCB0FA51F6B3FB51F7BBFC51CADBFD51AF
:10B40000AFBAFE515484FF51E4D40052B6B5015294
:10B41000F3B50252D6D80352D0C80452558405520F
:10B4200056840652D6B70752D0C70852D7D8095209
:10B4300057840A52AFBF0B5258840C5259840D5294
:10B44000BBDB0E52D8D80F525A8410525B84115273
:10B45000CCD01252AEBB13525C8414525D84155290
:10B460005E841652BEEB1752D0C11852F5C1195264
:10B47000F2D41A52D5B81B52B4B41C525F841D5278
:10B48000F5B31E5260841F5261842052BEC92152FE
:10B49000628422526384235264842452D0C525528C
:10B4A000658426526684275267842852D9C529525A
:10B4B000FBC02A5268842B52F0B12C5269842D5261
:10B4C000D9D82E52CEB92F526A843052BDB53152DE
:10B4D0006B8432526C843352DAD834526D843552D4
:10B4E0006E843652C6D63752A2CB3852AFC83952C4
:10B4F000B2C93A52CCB43B52CCBF3C526F843D529D
:10B50000F4B93E5270843F52DBD84052DCD84152ED
:10B51000E7B64252C1BC4352EACC44527184455210
:10B5200072844652738447527484485275844952D7
:10B5300076844A52F7CF4B5277844C52DDD84D5225
:10B54000B0C74E5278844F5279845052D0B951527C
:10B55000A3BD52527A8453527B845452DECC55524E
:10B560007C845652CAC657527D8458527E845952A2
:10B5700080845A5281845B5282845C52E0D85D524E
:10B5800083845E52DED85F52848460528584615227
:10B59000DFD86252868463528784645288846552FD
:10B5A000FEB0665289846752E7BE68528A84695247
:10B5B000A3CA6A52F4BC6B528B846C528C846D5259
:10B5C0008D846E528E846F52B1B870528F847152D6
:10B5D00090847252EEB87352918474529284755270
:10B5E00093847652948477529584785296847952D3
:10B5F00097847A5298847B5299847C529A847D52A3
:10B60000E2D87E529B847F52CBBD80529C84815273
:10B61000E4D88252E3D883529D8484529E8485521A
:10B620009F848652A0848752A1848852FCC5895287
:10B63000A2848A52A3848B52A4848C52A5848D52F6
:10B64000A6848E52A7848F52A8849052E5D8915236
:10B65000A9849252AA849352E6D89452AB8495520C
:10B66000AC849652AD849752AE849852AF8499526E
:10B67000B0849A52B1849B52A6C19C52B2849D520E
:10B68000B0C89E52ECB09F52A6B9A052D3BCA152F2
:10B69000F1CEA252BDDBA352D3C1A452B384A552B2
:10B6A000B484A652B584A752B684A852AFB6A952A4
:10B6B000FAD6AA52ACC5AB52D9BDAC52BEDBAD5224
:10B6C000BFDBAE52B784AF52B884B052B984B15226
:10B6D000F8C0B252A2BEB352CDC0B452BA84B55271
:10B6E000BB84B652BC84B752BD84B852BE84B95232
:10B6F000BF84BA52C084BB52C184BC52C284BD5202
:10B70000C384BE52C0DBBF52C6CAC052C484C15239
:10B71000C584C252C684C352AAB2C452C784C55299
:10B72000C884C652C984C752C2D3C852CA84C95237
:10B73000E3C3CA52CB84CB52ABD1CC52CC84CD52D2
:10B74000CD84CE52CE84CF52CF84D052C2DBD152E0
:10B75000D084D252D5C0D352D184D452D284D552BF
:10B76000D384D652C3DBD752D484D852B1BFD95276
:10B77000D584DA52D684DB52D784DC52D884DD52A9
:10B78000D984DE52DA84DF52BCC4E052DB84E15259
:10B79000DC84E252DD84E352DE84E452DAC7E5520F
:10B7A000DF84E652E084E752E184E852E284E95221
:10B7B000E384EA52E484EB52E584EC52E684ED52F1
:10B7C000E784EE52E884EF52E984F052C4DBF15290
:10B7D000EA84F252EB84F352EC84F452ED84F55295
:10B7E000EE84F652EF84F752F084F852F184F95265
:10B7F000E8D9FA52D7C9FB52F284FC52F384FD52C5
:10B80000F484FE52B4B9FF52F0CE0053C8D40153B1
:10B81000F5840253F6840353F7840453F8840553E4
:10B82000FCB00653D2B40753F9840853D9D0095356
:10B83000FA840A53FB840B53FC840C53FD840D5390
:10B84000E9D90E53FE840F53CBDE1053EBD91153BD
:10B850004085125341851353428514534385155334
:10B86000B0D81653AFBB1753B1B118534485195311
:10B87000D7B31A53CED81B5345851C5346851D5349
:10B88000D1D41E5347851F5348852053B3BD215340
:10B89000EFBF225349852353BBCF24534A852553F9
:10B8A0004B852653D0D827534C8528534D85295393
:10B8B0004E852A53CBB72B534F852C5350852D5390
:10B8C00051852E53D1D82F53528530535385315340
:10B8D00054853253558533535685345357853553E4
:10B8E00058853653598537535A8538535B853953B4
:10B8F000A5C63A53F8C73B53BDD23C535C853D5374
:10B900005D853E53D2D83F53E4C440535E854153D6
:10B91000AECA42535F854353A7C74453608545531E
:10B92000A6D8465361854753FDC94853E7CE4953CE
:10B93000DCBB4A53EBB04B5362854C5363854D538C
:10B9400064854E53AABB4F53ADD0505365855153B8
:10B95000B0B15253E4D75353BFD7545366855553B0
:10B96000A5B55653F4C25753CFC45853678559539E
:10B9700068855A53A9B25B5369855C53B7B25D536E
:10B980006A855E53E5B15F53B2DF6053BCD5615346
:10B99000A8BF6253ACC26353D5D86453B1C26553D8
:10B9A0006B856653D4D86753D4CE68536C8569537E
:10B9B000E0DA6A536D856B53C0CE6C536E856D5360
:10B9C0006F856E53B4D86F53AEC37053A1D3715308
:10B9D000A3CE725370857353B4BC7453B4C87553FB
:10B9E000D1C2765371857753EDBE7853B6D0795373
:10B9F00072857A53E1DA7B5373857C5374857D536A
:10BA000075857E5376857F53E4C780537785815350
:10BA100078858253A7B3835379858453F2B68553CF
:10BA2000FCCC8653FAC087537A8588537B8589532B
:10BA3000F7C08A537C858B53B9D18C53E1D18D5398
:10BA4000C7D88E537D858F537E85905380859153C3
:10BA5000818592538285935383859453848595532E
:10BA6000DEB296538585975386859853E5C09953E2
:10BA700087859A53F1BA9B5388859C5389859D533A
:10BA8000C8D89E538A859F53ADD4A0538B85A153AC
:10BA90008C85A253E1CFA353C9D8A4538D85A55358
:10BAA000CAD8A653C3CFA7538E85A853F8B3A953BA
:10BAB000C7BEAA538F85AB539085AC539185AD53C8
:10BAC0009285AE53CBD8AF539385B0539485B15381
:10BAD0009585B2539685B3539785B4539885B553DE
:10BAE0009985B653CCDBB7539A85B8539B85B95328
:10BAF0009C85BA539D85BB53A5C8BC539E85BD5339
:10BB00009F85BE53A085BF53D8CFC053A185C153D5
:10BB1000FEC8C253CEB2C353A285C453A385C55336
:10BB2000A485C653A585C753A685C853D6D3C95384
:10BB3000E6B2CA53B0BCCB53D1D3CC53ABCBCD536D
:10BB4000B4B7CE53A785CF53A885D053A985D15379
:10BB5000A2B7D253AA85D353AB85D453E5CAD553E4
:10BB6000AC85D653A1C8D753DCCAD853E4B1D95356
:10BB7000F0D0DA53AD85DB53D1C5DC53AE85DD5350
:10BB8000AF85DE53B085DF53C5DBE053FEB5E1532F
:10BB9000B185E253B285E353DABFE453C5B9E55347
:10BBA000E4BEE653EDC1E753B385E853B6DFE9538E
:10BBB000B5DFEA53BBD6EB53D0BDEC53D9D5ED532B
:10BBC000C8B0EE53A3B6EF53C9BFF053A8CCF1539E
:10BBD000B3DFF253B7CAF353D2D3F453B485F5535A
:10BBE000CFD8F653B6D2F753C5BAF853BECBF953F4
:10BBF000BECCFA53B585FB53B7DFFC53F0B5FD530C
:10BC0000B4DFFE53B685FF53B7850054B8850154A1
:10BC1000F5D30254B9850354D4B30454F7B805548A
:10BC2000BA850654BADF0754BB850854CFBA095405
:10BC3000AABC0A54F5B50B54BC850C54ACCD0D54BC
:10BC4000FBC30E54F3BA0F54F4C01054C2CD1154B8
:10BC5000F2CF1254B8DF1354C5CF1454BD85155418
:10BC6000C0C21654B9DF1754F0C21854BE85195417
:10BC7000BF851A54C0851B54FDBE1C54C1851D547C
:10BC8000DFC11E54CCCD1F54F7D22054CDB7215460
:10BC9000C1DF2254C2852354C4DF2454C3852554F4
:10BCA000C4852654F1B72754C9B02854D6B62954B0
:10BCB000D4B72A54C5852B54ACBA2C54FDCC2D5482
:10BCC000D4BF2E54B1CB2F54F4C63054C685315452
:10BCD000A8D63254C5DF3354C7853454E2CE355428
:10BCE000B3B33654C8853754C9853854FCCE39545B
:10BCF000B5B43A54CA853B54C7CE3C54F0BA3D540F
:10BD0000CB853E54E1CE3F54CC854054BDD1415407
:10BD1000CD854254CE854354C0DF4454CF8545542D
:10BD2000D0854654F4B44754D1854854CAB34954D5
:10BD3000D2854A54E6B84B54BBDF4C54D3854D549E
:10BD4000D4854E54D5854F54D6855054C5C45154CE
:10BD5000D7855254BCDF5354BDDF5454BEDF555415
:10BD6000BBC55654BFDF5754C2DF5854B1D45954E1
:10BD7000C3DF5A54D8855B54BAC75C54D8CE5D54DF
:10BD8000D9855E54DA855F54DB856054DC85615467
:10BD9000DD856254D8C46354DE856454CADF6554BB
:10BDA000DF856654CFDF6754E0856854DCD669547C
:10BDB000E1856A54E2856B54E3856C54E4856D54E7
:10BDC000E5856E54E6856F54E7857054E8857154B7
:10BDD000C9DF7254DADF7354B6CE7454E9857554F2
:10BDE000C7BA7654CEDF7754C8DF7854DEC57954AD
:10BDF000EA857A54EB857B54EBC97C54F4BA7D54C4
:10BE0000FCC37E54EC857F54ED858054D7BE8154AD
:10BE1000EE858254C6DF8354EF858454CDDF85548C
:10BE2000F0858654D8C58754F1858854F2858954A5
:10BE3000F3858A54F4858B54A6D58C54CDBA8D5491
:10BE4000F5858E54CCBE8F54BDD39054C0B8915458
:10BE5000F6859254E4D69354F7859454C7DF9554ED
:10BE6000BEB99654A7BF9754F8859854F98599544C
:10BE7000FCC19A54CBDF9B54CCDF9C54FA859D5473
:10BE8000D0DF9E54FB859F54FC85A054FD85A154B2
:10BE9000FE85A2544086A354DBDFA454E5DFA554FD
:10BEA0004186A654D7DFA754D6DFA854C9D7A954D2
:10BEB000E3DFAA54E4DFAB54EBE5AC54A7D2AD54B6
:10BEC000D2DFAE544286AF54A9BFB0544386B154BA
:10BED000DBD4B2544486B354C8BFB454D4DFB55491
:10BEE0004586B6544686B7544786B854CCCFB95425
:10BEF0004886BA544986BB54DDDFBC544A86BD54DB
:10BF0000CAD1BE544B86BF54DEDFC054A7B0C15463
:10BF1000B7C6C254D3DFC3544C86C454E5BAC55423
:10BF20004D86C654DFB6C754DBCDC854FEB9C954DC
:10BF3000D5D4CA544E86CB544F86CC54DFDFCD5473
:10BF4000ECCFCE54A5B0CF54E7DFD054D1DFD154DD
:10BF5000C6D1D254D5DFD354D8DFD454D9DFD55489
:10BF6000DCDFD6545086D754A9BBD8545186D95457
:10BF7000E0DFDA54E1DFDB545286DC54E2DFDD54EB
:10BF8000E6DFDE54E8DFDF54B4D3E0545386E154F7
:10BF90005486E2545586E3545686E4545786E55455
:10BFA000E7B8E654B6C5E754EADFE854DAC9E9541D
:10BFB000A8C1EA54C4C4EB545886EC545986ED54D5
:10BFC000DEBFEE54F8CFEF545A86F0545B86F1543E
:10BFD0005C86F254DCD5F354EEDFF4545D86F55400
:10BFE0005E86F6545F86F7546086F8546186F9548D
:10BFF0006286FA54B8B2FB546386FC54DFBAFD542F
:10C00000ECDFFE546486FF54C1DB005565860155A4
:10C01000E4D1025566860355678604556886055542
:10C0200069860655F4CB0755BDB408556A8609558F
:10C03000A6B00A556B860B556C860C556D860D5552
:10C040006E860E556F860F55F1DF1055C6CC115513
:10C05000F2DF12557086135571861455EDDF1555B4
:10C060007286165573861755748618557586195538
:10C0700076861A5577861B55E9DF1C5578861D553F
:10C0800079861E557A861F557B862055EBDF215514
:10C090007C862255EFDF2355F0DF2455BDBB2555A7
:10C0A0007D8626557E862755F3DF285580862955BF
:10C0B00081862A55F4DF2B5582862C55A3BB2D553E
:10C0C00083862E55DBCA2F55A8CE3055A7E03155B3
:10C0D000AAB3325584863355A6E034558586355546
:10C0E0008686365587863755A1E038558886395576
:10C0F00089863A558A863B558B863C55FEDF3D55F1
:10C100008C863E55D9CD3F55FCDF40558D86415537
:10C11000FADF42558E864355D0BF4455C4D74555A6
:10C120008F864655CCC947559086485591864955C6
:10C13000F8DF4A55A1B04B5592864C5593864D5524
:10C1400094864E5595864F5596865055FDDF515530
:10C150009786525598865355998654559A865555C3
:10C16000FBDF5655A2E057559B8658559C8659557E
:10C170009D865A559E865B559F865C55A8E05D5509
:10C18000A0865E55A1865F55A2866055A38661553F
:10C19000C8B76255A4866355A5866455A1C6655582
:10C1A000B6C96655B2C06755F5DF6855A6866955AC
:10C1B000A7866A55BEC56B55A8866C55C4D86D5503
:10C1C000F9DF6E55F6C46F55A9867055AA8671556C
:10C1D000AB867255AC867355AD867455AE86755573
:10C1E000A3E07655A4E07755A5E07855A5D079551C
:10C1F000AF867A55B0867B55B4E07C55E4CC7D554E
:10C20000B1867E55B1E07F55B2868055A6BF815577
:10C21000AFE08255B9CE8355ABE08455C6C985558C
:10C22000B3868655B4868755AEC08855AEE089552D
:10C23000EDBA8A55B0BA8B55A9E08C55B5868D55A7
:10C24000B6868E55B7868F55F6DF9055B8869155D0
:10C25000B3E09255B9869355BA869455B8E0955592
:10C26000BB869655BC869755BD869855ADB49955F5
:10C27000B9E09A55BE869B55BF869C55B2CF9D5559
:10C28000C8BA9E55C0869F55B0E0A055C186A1553D
:10C29000C286A255C386A355C486A455C586A55596
:10C2A000C686A655C786A755FAD0A855C886A955EB
:10C2B000C986AA55CA86AB55CB86AC55CC86AD553A
:10C2C000CD86AE55CE86AF55CF86B055D086B1550A
:10C2D000ACE0B255D186B355FBD4B455D286B55532
:10C2E000F7DFB655D386B755E7C5B855D486B955E7
:10C2F000ADE0BA55D586BB55F7D3BC55D686BD55EE
:10C30000B6E0BE55B7E0BF55D786C055D886C155F3
:10C31000D986C255DA86C355DB86C455C4E0C555F7
:10C32000E1D0C655DC86C755DD86C855DE86C955C1
:10C33000BCE0CA55DF86CB55E086CC55C9E0CD556B
:10C34000CAE0CE55E186CF55E286D055E386D15579
:10C35000BEE0D255AAE0D355A4C9D455C1E0D55505
:10C36000E486D655B2E0D755E586D855E686D95548
:10C37000E786DA55E886DB55E986DC55C8CADD551F
:10C38000C3E0DE55EA86DF55B5E0E055EB86E155C2
:10C39000CBCEE255EC86E355C3CBE455CDE0E55575
:10C3A000C6E0E655C2E0E755ED86E855CBE0E95535
:10C3B000EE86EA55BAE0EB55BFE0EC55C0E0ED552E
:10C3C000EF86EE55F086EF55C5E0F055F186F15554
:10C3D000F286F255C7E0F355C8E0F455F386F555FB
:10C3E000CCE0F655F486F755BBE0F855F586F955DF
:10C3F000F686FA55F786FB55F886FC55F986FD5505
:10C40000D4CBFE55D5E0FF55FA860056D6E001564E
:10C41000D2E00256FB860356FC860456FD8605567E
:10C42000FE8606564087075641870856D0E00956D3
:10C43000CEBC0A5642870B5643870C56D1E00D56A8
:10C4400044870E56C2B80F56C5D8105645871156A8
:10C4500046871256478713564887145649871556FC
:10C460004A8716564B8717564C871856EAD01956E6
:10C470004D871A564E871B56EFC21C564F871D56C6
:10C4800050871E56CFE01F56BDE0205651872156DB
:10C490005287225653872356D4E02456D3E025569C
:10C4A0005487265655872756D7E02856568729564B
:10C4B00057872A5658872B5659872C56DCE02D561D
:10C4C000D8E02E565A872F565B8730565C873156F8
:10C4D000F6D63256B0B333565D873456ECD7355660
:10C4E0005E873656BBCB37565F87385660873956DE
:10C4F000DAE03A5661873B56FBCE3C5662873D56A2
:10C5000063873E5664873F56D9BA40566587415681
:10C5100066874256678743566887445669874556FB
:10C520006A8746566B8747566C8748566D874956CB
:10C530006E874A566F874B5670874C56E1E04D56D2
:10C54000DDE04E56ADD24F56718750567287515628
:10C55000738752567487535675875456E2E0555682
:10C560007687565677875756DBE05856D9E05956A6
:10C57000DFE05A5678875B5679875C56E0E05D5677
:10C580007A875E567B875F567C8760567D876156CB
:10C590007E876256DEE0635680876456E4E0655627
:10C5A000818766568287675683876856F7C66956BD
:10C5B000ACD86A56EBD46B56E6E06C56C9CA6D56D9
:10C5C00084876E5685876F56868770568787715623
:10C5D000E5E0725688877356898774568A87755640
:10C5E0008B877656C1B877568C8778568D87795663
:10C5F0008E877A568F877B56E7E07C56E8E07D563B
:10C6000090877E5691877F56928780569387815672
:10C610009487825695878356968784569787855642
:10C62000E9E08656E3E087569887885699878956C9
:10C630009A878A569B878B569C878C569D878D56EA
:10C640009E878E56BFBA8F56E7CC90569F879156DD
:10C65000A0879256A1879356EAE09456A2879556F2
:10C66000A3879656A4879756A5879856A687995666
:10C67000A7879A56A8879B56A9879C56AA879D5636
:10C68000AB879E56AC879F56AD87A056AE87A15606
:10C69000AF87A256B087A356F9CFA456B187A55647
:10C6A000B287A656B387A756B487A856B587A956AA
:10C6B000B687AA56B787AB56B887AC56B987AD567A
:10C6C000BA87AE56BB87AF56EBE0B056BC87B156C3
:10C6D000BD87B256BE87B356BF87B456C087B5561E
:10C6E000C187B656C287B756C2C8B856C387B956AF
:10C6F000C487BA56C587BB56C687BC56C0BDBD5693
:10C70000C787BE56C887BF56C987C056CA87C15695
:10C71000CB87C256CC87C356CD87C456CE87C55665
:10C72000CF87C656D087C756D187C856D287C95635
:10C73000D387CA56D2C4CB56D487CC56D587CD56CC
:10C74000D687CE56D787CF56D887D056D987D156D9
:10C75000DA87D256DB87D356DC87D456ECE0D55641
:10C76000DD87D656DE87D756EDE0D856DF87D95617
:10C77000E087DA56F4C7DB56C4CBDC56E187DD56DA
:10C78000EEE0DE56D8BBDF56B6D8E056F2D2E15620
:10C79000EFE0E256C5CDE356E287E456DAB6E55659
:10C7A000E387E656E487E756E587E856E687E956E5
:10C7B000E787EA56E887EB56F1E0EC56E987ED5655
:10C7C000B0D4EE56EA87EF56EB87F056A7C0F15685
:10C7D000D1B4F256EC87F356ED87F456A7CEF55652
:10C7E000F0E0F656EE87F756EF87F856F087F956E1
:10C7F000F2E0FA56CCB9FB56F187FC56F287FD56AB
:10C80000FAB9FE56BCCDFF56F3E00057F387015747
:10C81000F4870257F5870357D4C60457F4E0055749
:10C82000F6870657B2D40757F7870857A6C809579F
:10C83000F6E00A57F5E00B57F8870C57F9870D57C4
:10C84000FA870E57FB870F57FC871057FD87115744
:10C85000FE8712574088135741881457428815574E
:10C8600043881657448817574588185746881957DC
:10C8700047881A5748881B5749881C57F7E01D57A7
:10C880004A881E574B881F57C1CD20574C882157C7
:10C890004D8822574E882357A5CA24574F882557BD
:10C8A000508826575188275752882857DAD4295755
:10C8B000D7DB2A57D9DB2B5753882C57D8DB2D577A
:10C8C000E7B92E57DCDB2F57DDDB3057D8B53157B2
:10C8D0005488325755883357DADB345756883557E2
:10C8E0005788365758883757598838575A8839578C
:10C8F000DBDB3A57A1B33B57DFDB3C575B883D5747
:10C900005C883E57F8BB3F575D884057B7D64157C4
:10C910005E884257E0DB43575F884457608845573D
:10C920006188465762884757F9BE48576388495718
:10C9300064884A57BBB74B5765884C57D0DB4D5777
:10C94000AECC4E57B2BF4F57B5BB5057F8D7515723
:10C95000D3BF5257668853576788545768885557CE
:10C96000698856576A885757E9BF58576B8859578F
:10C970006C885A57E1BC5B57B3CC5C57DEDB5D5724
:10C98000D3B05E57EBCE5F57D8B76057B9D7615772
:10C99000C2C662576D8863576E886457A4C06557D6
:10C9A0006F886657B9CC675770886857E7DB695757
:10C9B000E1DB6A57BAC66B57E3DB6C5771886D577A
:10C9C000E8DB6E5772886F57F7C5705773887157D9
:10C9D0007488725775887357EADB74577688755771
:10C9E00077887657E9DB7757C0BF785778887957CB
:10C9F00079887A577A887B57E6DB7C57E5DB7D5769
:10CA00007B887E577C887F577D8880577E888157BA
:10CA100080888257B9B48357ACC08457A2C2855767
:10CA2000E2DB8657E4DB87578188885782888957FD
:10CA300083888A5784888B57CDD08C57EDDB8D57F0
:10CA400085888E5786888F57878890578888915712
:10CA500089889257DDC09357F2DB94578A8895579F
:10CA60008B8896578C8897578D8898578E889957BA
:10CA70008F889A5790889B57E2B69C5791889D570C
:10CA800092889E5793889F579488A057F3DBA157AD
:10CA9000D2DBA257B8B9A357ABD4A457ECDBA55748
:10CAA0009588A657D1BFA757F0DBA8579688A957F6
:10CAB000D1DBAA579788AB57E6B5AC579888AD57E6
:10CAC000EBDBAE57E5BFAF579988B0579A88B1579F
:10CAD0009B88B257EEDBB3579C88B457F1DBB55750
:10CAE0009D88B6579E88B7579F88B857F9DBB957C6
:10CAF000A088BA57A188BB57A288BC57A388BD5746
:10CB0000A488BE57A588BF57A688C057A788C15715
:10CB1000A888C257A1B9C357A3B0C457A988C5579D
:10CB2000AA88C657AB88C757AC88C857AD88C957BD
:10CB3000AE88CA57AF88CB57F1C2CC57B088CD5713
:10CB4000B188CE57C7B3CF57EFDBD057B288D15794
:10CB5000B388D257F8DBD357B488D457D2C6D55749
:10CB6000F4DBD657B588D757B688D857F5DBD957F1
:10CB7000F7DBDA57F6DBDB57B788DC57B888DD57C9
:10CB8000FEDBDE57B988DF57F2D3E057BAB2E15780
:10CB9000BA88E257BB88E357BC88E457FDDBE5570A
:10CBA000BD88E657BE88E757BF88E857C088E95771
:10CBB000C188EA57C288EB57C388EC57C488ED5741
:10CBC000A4DCEE57C588EF57FBDBF057C688F1575A
:10CBD000C788F257C888F357C988F457FADBF55766
:10CBE000CA88F657CB88F757CC88F857FCDBF9573B
:10CBF000E0C5FA57F9BBFB57CD88FC57CE88FD57E7
:10CC0000A3DCFE57CF88FF57D0880058A5DC015819
:10CC1000D1880258C3CC0358D2880458D388055809
:10CC2000D4880658D1B60758C0DD0858D5880958A9
:10CC3000D6880A58D7880B58A1DC0C58D8880D58CC
:10CC4000A2DC0E58D9880F58DA881058DB881158A2
:10CC5000B5C71258DC881358DD881458DE8815587B
:10CC6000E9B61658DF881758E0881858E18819582F
:10CC7000A7DC1A58E2881B58E3881C58E4881D5822
:10CC8000E5881E58A6DC1F58E6882058A9DC2158E4
:10CC9000A4B12258E7882358E8882458CCB52558F1
:10CCA000E9882658EA882758EB882858EC882958BC
:10CCB000ED882A58B0BF2B58EE882C58EF882D5895
:10CCC000F0882E58F1882F58F2883058DFD131582B
:10CCD000F3883258F4883358F5883458F688355834
:10CCE000C2B63658F7883758F8883858F98839580E
:10CCF000FA883A58FB883B58FC883C58FD883D58D8
:10CD0000FE883E5840893F584189405842894158E1
:10CD1000438942584489435845894458A8DC4558BA
:10CD20004689465847894758488948584989495843
:10CD30004A894A584B894B584C894C58FACB4D5824
:10CD4000F3EB4E584D894F584E8950584F895158E2
:10CD5000DCCB52585089535851895458FECB555802
:10CD6000528956585389575854895858C1CC5958E4
:10CD700055895A5856895B5857895C5858895D5867
:10CD800059895E58FBC85F585A8960585B89615859
:10CD90005C8962585D8963585E8964585F8965580B
:10CDA000AADC665860896758618968586289695841
:10CDB00063896A5864896B58EECC6C58ABDC6D584B
:10CDC00065896E5866896F58678970586889715887
:10CDD000698972586A8973586B8974586C89755857
:10CDE0006D8976586E8977586F8978587089795827
:10CDF00071897A5872897B5873897C5874897D58F7
:10CE000075897E58D3DB7F5876898058AFDC81588E
:10CE1000ACDC825877898358B3BE845878898558AA
:10CE2000FBCA8658798987587A8988587B898958B6
:10CE3000ADDC8A587C898B587D898C587E898D58C9
:10CE400080898E5881898F5882899058838991581A
:10CE500084899258CAC99358B9C4945885899558F9
:10CE600086899658878997588889985889899958C2
:10CE7000BDC79A58AEDC9B588A899C588B899D58AF
:10CE80008C899E58F6D49F58E6D0A0588D89A15819
:10CE90008E89A2588F89A3589089A4589189A55842
:10CEA0009289A6589389A7589489A858ABC4A958C1
:10CEB000D5B6AA589589AB589689AC589789AD587C
:10CEC0009889AE589989AF589A89B0589B89B158BA
:10CED0009C89B2589D89B3589E89B4589F89B5588A
:10CEE000A089B658A189B758A289B858A389B9585A
:10CEF000A489BA58A589BB58A689BC58D4DBBD58AB
:10CF0000A789BE58A889BF58A989C058AA89C158FD
:10CF1000DAB1C258AB89C358AC89C458AD89C55879
:10CF2000D5DBC658AE89C758AF89C858B089C9582B
:10CF3000B189CA58B289CB58B389CC58B489CD5875
:10CF4000B589CE58B689CF58B789D058B889D15845
:10CF5000D6DBD258B989D358BA89D458BB89D558A9
:10CF6000BEBAD658BC89D758BD89D858BE89D958B9
:10CF7000BF89DA58C089DB58C189DC58C289DD58BD
:10CF8000C389DE58C489DF58C589E058C689E1588D
:10CF9000C789E258C889E358C989E458C0C8E55828
:10CFA000CA89E658CB89E758CC89E858CD89E95831
:10CFB000CE89EA58CF89EB58BFCAEC58C9C8ED589A
:10CFC000D089EE58B3D7EF58D189F058F9C9F15844
:10CFD000D289F258D389F358C7BFF458D489F55889
:10CFE000D589F658F8BAF758D689F858D789F95834
:10CFF000BCD2FA58D889FB58D989FC58DA89FD582F
:10D00000DB89FE58DC89FF58DD890059DE8901592A
:10D01000DF890259BAE20359E0890459A6B40559D7
:10D02000E1890659E2890759B8B10859E3890959D4
:10D03000E4890A59E5890B59E6890C59E7890D59A4
:10D04000B4B80E59E8890F59C4CF1059E98911595C
:10D05000EA891259EB891359EC891459E7D9155902
:10D06000A6CF1659E2CD1759ED891859EE891959ED
:10D07000EDD91A59E0B61B59EF891C59B9D21D597F
:10D08000F0891E59F1891F59BBB92059F2892159DC
:10D09000F3892259F4892359F5892459B9E225598C
:10D0A000B7E22659F6892759F3B42859F78929593F
:10D0B000ECCC2A59ABCC2B59F2B72C59F8892D5905
:10D0C000B2D82E59EBD12F59BBBA3059F989315901
:10D0D000A7CA3259FA893359FB893459B7CD355922
:10D0E000FC893659FD893759C4D23859E4BF3959BA
:10D0F000D0BC3A59E1B63B59FE893C59C5DE3D5991
:10D10000408A3E59418A3F59428A4059438A41598F
:10D11000C6DE4259BCDB4359448A4459D9D14559EA
:10D12000458A4659468A4759E6C64859CEC44959A0
:10D13000EEB74A59478A4B59DCB74C59488A4D5982
:10D14000498A4E59FCBF4F59E0D750594A8A515924
:10D15000F5C652594B8A53594C8A5459BCB155594A
:10D16000C8DE5659B1BD5759D7CC5859CADE59599E
:10D170004D8A5A59C9DE5B594E8A5C594F8A5D59AE
:10D18000508A5E59518A5F59528A6059ECB561598B
:10D19000538A6259DDC96359548A6459558A65595D
:10D1A000C2B06659568A6759578A6859588A695968
:10D1B000598A6A595A8A6B595B8A6C595C8A6D59CB
:10D1C0005D8A6E595E8A6F595F8A7059608A71599B
:10D1D000618A7259628A7359AEC57459ABC5755963
:10D1E000638A7659CCC47759648A7859E9BC7959ED
:10D1F000FDCB7A59658A7B59668A7C59678A7D5945
:10D20000C3BA7E59688A7F59698A80596A8A815966
:10D21000F9E58259E7C88359FAE58459FDCD855966
:10D220006B8A8659B1D78759BEB88859E8C28959DF
:10D230006C8A8A59D1C88B596D8A8C596E8A8D59DE
:10D24000FBE58E596F8A8F59708A9059718A91596E
:10D25000728A9259CAB69359CBBC9459738A95591C
:10D26000748A9659FDD19759A1E69859758A9959AA
:10D27000EEC39A59768A9B59778A9C59788A9D5928
:10D28000798A9E59A4E69F597A8AA0597B8AA15926
:10D290007C8AA2597D8AA359FEE5A459A5E6A55921
:10D2A000D7CDA6597E8AA759808AA859C1B7A9594E
:10D2B000FCE5AA59FDE5AB59A3E6AC59818AAD5905
:10D2C000828AAE59DDC4AF59A8E6B059838AB159F4
:10D2D000848AB259A7E6B359858AB459868AB55962
:10D2E000878AB659888AB759898AB8598A8AB959B2
:10D2F000C3C3BA598B8ABB59DEC6BC598C8ABD5987
:10D300008D8ABE59AAE6BF598E8AC0598F8AC159E3
:10D31000908AC259918AC359928AC459938AC5592D
:10D32000948AC659B7C4C759958AC859968AC959A3
:10D33000978ACA59A2E6CB59BCCACC59988ACD590A
:10D34000998ACE599A8ACF599B8AD059E3BDD1592F
:10D35000C3B9D259A6E6D359D5D0D459AFCED559F1
:10D360009C8AD6599D8AD759A9E6D859B0E6D95989
:10D370009E8ADA59A6D2DB599F8ADC59AABDDD59AB
:10D38000ADE6DE59A08ADF59A18AE059A28AE159A7
:10D39000A38AE259A48AE359AFE6E459A58AE5597C
:10D3A000D1C0E659A68AE759A78AE859CCD2E959EB
:10D3B000A88AEA59A98AEB59AA8AEC59A7BCED595F
:10D3C000AB8AEE59AC8AEF59AD8AF059AE8AF15961
:10D3D000AF8AF259B08AF359B18AF459B28AF55931
:10D3E000B38AF659B48AF759B58AF859B68AF95901
:10D3F000B1E6FA59B78AFB59F6D2FC59B88AFD59F9
:10D40000B98AFE59BA8AFF59CBD7005ABB8A015A4A
:10D41000FECD025ABC8A035ADECD045AA6C2055A72
:10D42000ABE6065AACE6075ABFBD085AAEE6095A43
:10D43000B3E60A5ABD8A0B5ABE8A0C5AB2E60D5A96
:10D44000BF8A0E5AC08A0F5AC18A105AC28A115A0C
:10D45000B6E6125AC38A135AB8E6145AC48A155A41
:10D46000C58A165AC68A175AC78A185AEFC4195A53
:10D47000C88A1A5AC98A1B5ACA8A1C5AC8C41D5A51
:10D48000CB8A1E5ACC8A1F5AEABE205AEFC9215AAB
:10D49000CD8A225ACE8A235AB7E6245ACF8A255AF1
:10D4A000F0B6265AD08A275AD18A285AD28A295ABF
:10D4B000E4C32A5AD38A2B5AD48A2C5AD58A2D5A95
:10D4C000D68A2E5AD78A2F5AD88A305AD98A315AB0
:10D4D000E9D3325AB4E6335ADA8A345AB5E6355AC1
:10D4E000DB8A365AA2C8375ADC8A385ADD8A395A5A
:10D4F000DE8A3A5ADF8A3B5AE08A3C5ABDE63D5AF8
:10D50000E18A3E5AE28A3F5AE38A405AB9E6415AD2
:10D51000E48A425AE58A435AE68A445AE78A455AD7
:10D52000E88A465AC5C6475AE98A485AEA8A495A91
:10D53000F1CD4A5ABBE64B5AEB8A4C5AEC8A4D5A0B
:10D54000ED8A4E5AEE8A4F5AEF8A505AF08A515A53
:10D55000F18A525AF28A535AF38A545AF48A555A23
:10D56000BCE6565AF58A575AF68A585AF78A595AD3
:10D57000F88A5A5AE9BB5B5AF98A5C5AFA8A5D5AA8
:10D58000FB8A5E5AFC8A5F5AFD8A605AFE8A615A9B
:10D59000408B625ABEE6635A418B645A428B655A8D
:10D5A000438B665A448B675ABAE6685A458B695A68
:10D5B000468B6A5AB7C06B5A478B6C5A488B6D5A68
:10D5C000498B6E5A4A8B6F5A4B8B705A4C8B715ADF
:10D5D0004D8B725A4E8B735A4F8B745AA4D3755A13
:10D5E000BFE6765AF4C9775AC3E6785A508B795A0F
:10D5F000518B7A5AC4E67B5A528B7C5A538B7D5A94
:10D60000548B7E5A558B7F5AF6D0805A568B815A4E
:10D61000578B825A588B835A598B845A5A8B855A06
:10D620005B8B865A5C8B875A5D8B885A5E8B895AD6
:10D630005F8B8A5A608B8B5A618B8C5A628B8D5AA6
:10D64000638B8E5A648B8F5A658B905A668B915A76
:10D65000678B925ABDC3935A688B945A698B955ABB
:10D660006A8B965A6B8B975A6C8B985A6D8B995A1A
:10D670006E8B9A5AC4C39B5AC2E69C5A6F8B9D5AB2
:10D68000708B9E5A718B9F5A728BA05A738BA15AC2
:10D69000748BA25A758BA35A768BA45A778BA55A92
:10D6A000788BA65A798BA75A7A8BA85A7B8BA95A62
:10D6B0007C8BAA5AC1E6AB5A7D8BAC5A7E8BAD5A95
:10D6C000808BAE5A818BAF5A828BB05A838BB15A02
:10D6D000848BB25AC7E6B35AB1CFB45A858BB55AC8
:10D6E000F4EBB65A868BB75A878BB85ACAE6B95A42
:10D6F000888BBA5A898BBB5A8A8BBC5A8B8BBD5A82
:10D700008C8BBE5AC5E6BF5A8D8BC05A8E8BC15AC0
:10D71000DEBCC25AA9C9C35A8F8BC45A908BC55A52
:10D72000918BC65A928BC75A938BC85A948BC95AFD
:10D73000B5BCCA5A958BCB5A968BCC5AD3CFCD5AFF
:10D74000978BCE5A988BCF5A998BD05A9A8BD15AA5
:10D750009B8BD25AC8E6D35A9C8BD45AC9E6D55A69
:10D760009D8BD65ACEE6D75A9E8BD85AD0E6D95A38
:10D770009F8BDA5AA08BDB5AA18BDC5AD1E6DD5A9B
:10D78000A28BDE5AA38BDF5AA48BE05ACBE6E15A78
:10D79000D5B5E25AA58BE35ACCE6E45AA68BE55AF6
:10D7A000A78BE65ACFE6E75AA88BE85AA98BE95A25
:10D7B000DBC4EA5AAA8BEB5AC6E6EC5AAB8BED5A9D
:10D7C000AC8BEE5AAD8BEF5AAE8BF05AAF8BF15A51
:10D7D000CDE6F25AB08BF35AB18BF45AB28BF55AAC
:10D7E000B38BF65AB48BF75AB58BF85AB68BF95AF5
:10D7F000B78BFA5AB88BFB5AB98BFC5ABA8BFD5AC5
:10D80000BB8BFE5ABC8BFF5ABD8B005BBE8B015B92
:10D81000BF8B025BC08B035BC18B045BC28B055B60
:10D82000C38B065BC48B075BC58B085BC68B095B30
:10D83000D2E60A5BC78B0B5BC88B0C5BC98B0D5B9D
:10D84000CA8B0E5BCB8B0F5BCC8B105BCD8B115BD4
:10D85000CE8B125BCF8B135BD08B145BD18B155BA4
:10D86000D28B165BD4E6175BD3E6185BD38B195BC0
:10D87000D48B1A5BD58B1B5BD68B1C5BD78B1D5B4C
:10D88000D88B1E5BD98B1F5BDA8B205BDB8B215B1C
:10D89000DC8B225BDD8B235BDE8B245BDF8B255BEC
:10D8A000E08B265BE18B275BE28B285BE38B295BBC
:10D8B000E48B2A5BE58B2B5BE68B2C5BE78B2D5B8C
:10D8C000E88B2E5BE98B2F5BEA8B305BEB8B315B5C
:10D8D000EC8B325BD5E6335BED8B345BF8D9355B93
:10D8E000EE8B365BEF8B375BD6E6385BF08B395BC4
:10D8F000F18B3A5BF28B3B5BF38B3C5BF48B3D5BD8
:10D90000F58B3E5BF68B3F5BF78B405BD7E6415B6D
:10D91000F88B425BF98B435BFA8B445BFB8B455B7B
:10D92000FC8B465BFD8B475BFE8B485B408C495B09
:10D93000418C4A5B428C4B5B438C4C5B448C4D5B13
:10D94000458C4E5B468C4F5B478C505BD3D7515B0D
:10D95000DDE6525B488C535BDEE6545BD7BF555B1C
:10D96000D0D4565B498C575BD6D7585BE6B4595B2D
:10D97000EFCB5A5BDAE65B5BC3D85C5BCED75D5B13
:10D98000A2D05E5B4A8C5F5BCFC3605B4B8C615BFC
:10D990004C8C625BDFE6635BBEBC645BC2B9655BFB
:10D9A000DBE6665BA7D1675B4D8C685B4E8C695B81
:10D9B000A2BA6A5BCFC26B5B4F8C6C5BABD86D5B02
:10D9C000508C6E5B518C6F5B528C705BEBCA715BE1
:10D9D000EEE5725B538C735BDCE6745B548C755BB9
:10D9E000F5B7765B558C775B568C785B578C795B9B
:10D9F000588C7A5BE6C87B5B598C7C5B5A8C7D5B70
:10DA0000F5C47E5B5B8C7F5B5C8C805BB2E5815B8D
:10DA1000FEC4825B5D8C835BFCCB845BB3E5855B82
:10DA2000ACD5865B5E8C875BEED3885BD8CA895B9E
:10DA3000B2B08A5B5F8C8B5BCECB8C5BEACD8D5BAF
:10DA4000608C8E5B618C8F5BEABA905B628C915BC1
:10DA5000638C925B648C935BB5E5945B658C955BA2
:10DA6000B4E5965B668C975BDAD7985BD9B9995B1E
:10DA7000E6D69A5BA8B69B5BF0CD9C5BCBD29D5B58
:10DA8000A6B19E5BB5CA9F5B678CA05BE8B3A15B48
:10DA9000F3C9A25BCDBFA35BFBD0A45BD2CAA55BDD
:10DAA000B6E5A65BC2BBA75B688CA85B698CA95B6B
:10DAB0006A8CAA5BDCCFAB5BACB9AC5B6B8CAD5B4F
:10DAC0006C8CAE5B6D8CAF5B6E8CB05BD7D4B15B96
:10DAD0006F8CB25B708CB35BA6BAB45BE7D1B55BFD
:10DAE000FCCFB65BD2BCB75B718CB85BB7E5B95BFA
:10DAF000DDC8BA5B728CBB5B738CBC5B748CBD5B2A
:10DB0000EDBFBE5BF6B1BF5BDECBC05B758CC15BAE
:10DB1000768CC25BC5BCC35B778CC45BC4BCC55B85
:10DB2000FAD2C65BDCC3C75BDCBFC85B788CC95B61
:10DB3000798CCA5B7A8CCB5B7B8CCC5BBBB8CD5BC6
:10DB40007C8CCE5B7D8CCF5B7E8CD05BC2C3D15B8B
:10DB5000808CD25BAEBAD35BA2D4D45B818CD55B14
:10DB6000828CD65B838CD75B848CD85B858CD95BAD
:10DB7000868CDA5B878CDB5B888CDC5B898CDD5B7D
:10DB8000DEC7DE5BAFC4DF5BECB2E05B8A8CE15BDF
:10DB9000D1B9E25B8B8CE35B8C8CE45BBBE5E55B32
:10DBA000C8C1E65B8D8CE75B8E8CE85BAFD5E95B2B
:10DBB0008F8CEA5B908CEB5B918CEC5B928CED5BD9
:10DBC000938CEE5BBCE5EF5B948CF05BBEE5F15BA8
:10DBD000958CF25B968CF35B978CF45B988CF55B81
:10DBE000998CF65B9A8CF75B9B8CF85BE7B4F95BDE
:10DBF000D4B6FA5BC2CBFB5BB0D1FC5BBCB5FD5BC2
:10DC00009C8CFE5B9D8CFF5BD9CA005C9E8C015C8A
:10DC1000E2B7025C9F8C035CA08C045CE4C9055CE9
:10DC2000A18C065CABBD075CA28C085CA38C095C74
:10DC3000BECE0A5CF0D70B5CA48C0C5CA58C0D5C92
:10DC4000A68C0E5CA78C0F5CA1D0105CA88C115C1C
:10DC5000D9C9125CA98C135CAA8C145CFBB6155C48
:10DC6000D8E6165CE2BC175CAB8C185CBEB3195CE2
:10DC7000AC8C1A5CD0C91B5CAD8C1C5CD9E61D5CFD
:10DC8000A2B31E5CAE8C1F5CAF8C205CB08C215CA0
:10DC9000B18C225CCCDE235CB28C245CC8D3255CC6
:10DCA000CDDE265CB38C275CA2D2285CB48C295CC8
:10DCB000B58C2A5CB68C2B5CB78C2C5CCEDE2D5CD4
:10DCC000B88C2E5CB98C2F5CBA8C305CBB8C315C10
:10DCD000CDBE325CBC8C335CBD8C345CCFDE355C3D
:10DCE000BE8C365CBF8C375CC08C385CACCA395C8F
:10DCF000FCD23A5CDFB33B5CEAE53C5CE1C43D5CF2
:10DD0000A1BE3E5CB2CE3F5CF2C4405CD6BE415C7C
:10DD1000A8C6425CE3B2435CC18C445CC28C455CE7
:10DD2000D3BE465CC38C475CC48C485CFCC7495C72
:10DD3000EBCC4A5CECBD4B5CDDCE4C5CC58C4D5CE9
:10DD4000C68C4E5CBACA4F5CC1C6505CECE5515CF7
:10DD5000BCD0525CC78C535CC88C545CC98C555C7D
:10DD6000B9D5565CCA8C575CCB8C585CCC8C595C52
:10DD7000EDE55A5CCD8C5B5CCE8C5C5CCF8C5D5CE5
:10DD8000D08C5E5CF4CA5F5CD18C605CC0CD615CA1
:10DD9000C5C2625CD28C635CEFE5645CD38C655C6D
:10DDA000C4C2665CF0E5675CD48C685CD58C695C49
:10DDB000D68C6A5CD78C6B5CD88C6C5CD98C6D5CB7
:10DDC000DA8C6E5CF8E56F5CCDCD705CDB8C715CE1
:10DDD000BDC9725CDC8C735CDD8C745CDE8C755C44
:10DDE000DF8C765CE08C775CE18C785CE28C795C33
:10DDF000D9D27A5CA8E17B5CE38C7C5CE48C7D5CB2
:10DE0000E58C7E5CE68C7F5CECD3805CE78C815C8F
:10DE1000EACB825CF1C6835CE88C845CE98C855C2F
:10DE2000EA8C865CEB8C875CEC8C885CACE1895C72
:10DE3000ED8C8A5CEE8C8B5CEF8C8C5CA7E18D5C4E
:10DE4000A9E18E5CF08C8F5CF18C905CAAE1915C16
:10DE5000AFE1925CF28C935CF38C945CEDB2955CD8
:10DE6000F48C965CABE1975CDAB8985CADE1995CB8
:10DE7000AEE19A5CB0E19B5CBAB59C5CB1E19D5CA3
:10DE8000F58C9E5CF68C9F5CF78CA05CF88CA15C9A
:10DE9000F98CA25CB3E1A35CB8E1A45CFA8CA55C4C
:10DEA000FB8CA65CFC8CA75CFD8CA85CFE8CA95C42
:10DEB000D2D1AA5C408DAB5CB6E1AC5CB5E1AD5CA7
:10DEC000EBC1AE5C418DAF5C428DB05C438DB15C0B
:10DED000B7E1B25C448DB35CC0D4B45C458DB55C35
:10DEE000B2E1B65C468DB75CBAE1B85CB6B0B95C7D
:10DEF000478DBA5C488DBB5C498DBC5C4A8DBD5C6E
:10DF0000B4E1BE5C4B8DBF5CF9BFC05C4C8DC15CA5
:10DF1000B9E1C25C4D8DC35C4E8DC45CBBE1C55C98
:10DF20004F8DC65C508DC75C518DC85C528DC95CED
:10DF3000538DCA5C548DCB5CBEE1CC5C558DCD5C01
:10DF4000568DCE5C578DCF5C588DD05C598DD15C91
:10DF50005A8DD25CBCE1D35C5B8DD45C5C8DD55CAE
:10DF60005D8DD65C5E8DD75C5F8DD85C608DD95C35
:10DF7000C5D6DA5C618DDB5C628DDC5C638DDD5C5B
:10DF8000648DDE5C658DDF5C668DE05C678DE15CD9
:10DF9000BFCFE25C688DE35C698DE45CBDE1E55C6C
:10DFA000BFE1E65CCDC2E75C6A8DE85CEBB6E95C9C
:10DFB0006B8DEA5CF8D3EB5C6C8DEC5C6D8DED5C8D
:10DFC000CDC7EE5C6E8DEF5C6F8DF05CE5B7F15CFC
:10DFD000708DF25C718DF35C728DF45C738DF55C09
:10DFE000748DF65C758DF75C768DF85C778DF95CD9
:10DFF000788DFA5C798DFB5CFEBEFC5C7A8DFD5CF5
:10E000007B8DFE5C7C8DFF5C7D8D005D7E8D015D7A
:10E01000808D025DC0E1035DC1E1045D818D055D20
:10E02000828D065DC7E1075DE7B3085D838D095DFD
:10E03000848D0A5D858D0B5D868D0C5D878D0D5DF4
:10E04000888D0E5DE9C60F5D898D105D8A8D115D2D
:10E050008B8D125D8C8D135D8D8D145DDEB4155D21
:10E060008E8D165DC2D1175D8F8D185D908D195DF7
:10E07000918D1A5D928D1B5DC8E11C5D938D1D5DB8
:10E08000948D1E5DC6E11F5D958D205D968D215D91
:10E09000978D225D988D235D998D245DC5E1255D69
:10E0A0009A8D265DC3E1275DC2E1285D9B8D295DC8
:10E0B000C0B12A5D9C8D2B5D9D8D2C5D9E8D2D5D4F
:10E0C000B8D52E5DC4E12F5D9F8D305DA08D315D93
:10E0D000A18D325DA28D335DA38D345DCBE1355DC5
:10E0E000A48D365DA58D375DA68D385DA78D395D14
:10E0F000A88D3A5DA98D3B5DAA8D3C5DAB8D3D5DE4
:10E10000CCE13E5DCAE13F5DAC8D405DAD8D415DD2
:10E11000AE8D425DAF8D435DB08D445DB18D455D8B
:10E12000B28D465DB38D475DFAEF485DB48D495DB4
:10E13000B58D4A5DD3E14B5DD2E14C5DB6C74D5D17
:10E14000B68D4E5DB78D4F5DB88D505DB98D515D0B
:10E15000BA8D525DBB8D535DBC8D545DBD8D555DDB
:10E16000BE8D565DBF8D575DC08D585DC9E1595D4F
:10E17000C18D5A5DC28D5B5DCEE15C5DC38D5D5D21
:10E18000D0E15E5DC48D5F5DC58D605DC68D615DF6
:10E19000C78D625DC88D635DC98D645DCA8D655D27
:10E1A000CB8D665DCC8D675DCD8D685DCE8D695DF7
:10E1B000D4E16A5DCF8D6B5DD1E16C5DCDE16D5DCC
:10E1C000D08D6E5DD18D6F5DCFE1705DD28D715D53
:10E1D000D38D725DD48D735DD58D745DD5E1755D24
:10E1E000D68D765DD78D775DD88D785DD98D795D4B
:10E1F000DA8D7A5DDB8D7B5DDC8D7C5DDD8D7D5D1B
:10E20000DE8D7E5DDF8D7F5DE08D805DE18D815DEA
:10E21000E28D825DD6E1835DE38D845DE48D855D75
:10E22000E58D865DE68D875DE78D885DE88D895D8E
:10E23000E98D8A5DEA8D8B5DEB8D8C5DEC8D8D5D5E
:10E24000ED8D8E5DEE8D8F5DEF8D905DF08D915D2E
:10E25000F18D925DF28D935DF38D945DF48D955DFE
:10E26000F58D965DF68D975DF78D985DF88D995DCE
:10E27000D7E19A5DF98D9B5DFA8D9C5DFB8D9D5D6F
:10E28000D8E19E5DFC8D9F5DFD8DA05DFE8DA15D45
:10E29000408EA25D418EA35D428EA45D438EA55D3E
:10E2A000448EA65D458EA75D468EA85D478EA95D0E
:10E2B000488EAA5D498EAB5D4A8EAC5D4B8EAD5DDE
:10E2C0004C8EAE5D4D8EAF5D4E8EB05D4F8EB15DAE
:10E2D000508EB25D518EB35D528EB45D538EB55D7E
:10E2E000548EB65D558EB75DDAE1B85D568EB95D78
:10E2F000578EBA5D588EBB5D598EBC5D5A8EBD5D22
:10E300005B8EBE5D5C8EBF5D5D8EC05D5E8EC15DF1
:10E310005F8EC25D608EC35D618EC45D628EC55DC1
:10E32000DBE1C65D638EC75D648EC85D658EC95DC9
:10E33000668ECA5D678ECB5D688ECC5D698ECD5D65
:10E34000A1CECE5D6A8ECF5D6B8ED05D6C8ED15DC1
:10E350006D8ED25D6E8ED35D6F8ED45D708ED55D09
:10E36000718ED65D728ED75D738ED85D748ED95DD9
:10E37000758EDA5D768EDB5DDDE7DC5D778EDD5DEB
:10E38000A8B4DE5DDDD6DF5D788EE05D798EE15D7F
:10E39000B2D1E25DB2B3E35D7A8EE45D7B8EE55D82
:10E3A000A4B9E65DF3D7E75DC9C7E85DDEBEE95D08
:10E3B000AEB9EA5D7C8EEB5DD7CEEC5D7D8EED5D1A
:10E3C0007E8EEE5DEEB2EF5DCFDBF05D808EF15DB7
:10E3D000BABCF25DD1D2F35DC8CBF45DCDB0F55DD2
:10E3E000818EF65D828EF75DEFCFF85D838EF95DED
:10E3F000848EFA5D858EFB5D868EFC5D878EFD5D6D
:10E40000E3D9FE5DEDBDFF5D888E005E898E015E05
:10E41000D2B1025ED0CA035EBCB2045E8A8E055ED3
:10E42000A7CB065EABB7075E8B8E085EA6CA095EF9
:10E430008C8E0A5E8D8E0B5E8E8E0C5EA3CF0D5E73
:10E440008F8E0E5E908E0F5EF8E0105ECAD5115E64
:10E45000FBE0125E918E135E928E145EFAE0155E02
:10E46000C1C5165EFBCC175E938E185EB1C1195EF6
:10E47000F9E01A5EE3D61B5EAFB21C5EC4D61D5E29
:10E48000DBB51E5E948E1F5E958E205E968E215E9D
:10E49000978E225E988E235E998E245E9A8E255EDC
:10E4A0009B8E265EF8B4275EA1D6285E9C8E295EE0
:10E4B0009D8E2A5E9E8E2B5E9F8E2C5EA08E2D5E84
:10E4C000AFCF2E5EEFB02F5EA18E305EA28E315E9A
:10E4D000FCE0325EA38E335EA48E345EA58E355E84
:10E4E000A68E365EA78E375EA1E1385EA3B3395E95
:10E4F000A88E3A5EA98E3B5EFDE03C5EFEE03D5E8E
:10E50000B1C33E5EAA8E3F5EAB8E405EAC8E415E76
:10E51000AD8E425EDDC3435EAE8E445EA2E1455EDB
:10E52000F9B7465EAF8E475EB08E485EB18E495EEB
:10E53000B28E4A5EB38E4B5EB48E4C5ECFBB4D5EE8
:10E54000B58E4E5EB68E4F5EB78E505EB88E515E03
:10E55000B98E525EBA8E535EBB8E545EA3E1555E99
:10E56000BBC4565EBC8E575EBD8E585EBE8E595E75
:10E57000BF8E5A5EC08E5B5EA4E15C5EC18E5D5E46
:10E58000C28E5E5EA5E15F5EC38E605EC48E615E1C
:10E59000A6E1625EB1B4635EC58E645EC68E655EE2
:10E5A000C78E665EC88E675EC98E685ECA8E695EFB
:10E5B000CB8E6A5ECC8E6B5ECD8E6C5ECE8E6D5ECB
:10E5C000CF8E6E5ED08E6F5ED18E705ED28E715E9B
:10E5D000D38E725EC9B8735EBDC6745EEAC4755EE2
:10E5E000D48E765EA2B2775ED58E785ED2D0795E1A
:10E5F000D68E7A5EDBE77B5EC3BB7C5ED7D37D5E67
:10E60000C4D37E5ED78E7F5EE3B9805ECFE2815E4B
:10E61000D88E825ED98E835EDA8E845EAFD7855EB9
:10E62000DB8E865EECC7875ED3B1885EDC8E895E4A
:10E63000DD8E8A5EB2B48B5ED1E28C5EDE8E8D5E44
:10E64000DF8E8E5EE08E8F5EF2D0905EAEC2915E07
:10E65000D0E2925EE18E935EE2BF945EA6D3955EB9
:10E66000D7B5965ED2E2975EEAB5985EE28E995E85
:10E67000EDC39A5EFDB89B5EE38E9C5EAEB89D5E78
:10E68000E48E9E5ED3C59F5ECFB7A05ED4E2A15E4E
:10E69000E58EA25EE68EA35EE78EA45EE88EA55EA2
:10E6A000D3E2A65EC8B6A75EF9D7A85EE98EA95EDA
:10E6B000EA8EAA5EEB8EAB5EEC8EAC5EED8EAD5E4E
:10E6C000A5CDAE5EEE8EAF5EEF8EB05EF08EB15E2B
:10E6D000F18EB25EF28EB35ED8E2B45EF38EB55EBA
:10E6E000D6E2B65EFCCAB75EB5BFB85EB9D3B95E56
:10E6F000D5E2BA5EF48EBB5EF58EBC5EF68EBD5E74
:10E70000F78EBE5ED7E2BF5EF88EC05EF98EC15E48
:10E71000FA8EC25EFB8EC35EFC8EC45EFD8EC55E4D
:10E72000FE8EC65E408FC75E418FC85E428FC95E57
:10E73000AEC1CA5EC8C0CB5E438FCC5E448FCD5E97
:10E74000458FCE5E468FCF5E478FD05E488FD15EBD
:10E75000DBE2D25EDAE2D35EAAC0D45E498FD55E38
:10E760004A8FD65ECEC1D75E4B8FD85E4C8FD95EB6
:10E770004D8FDA5E4E8FDB5EDCE2DC5E4F8FDD5E5E
:10E78000508FDE5E518FDF5E528FE05E538FE15E11
:10E79000548FE25E558FE35E568FE45E578FE55EE1
:10E7A000588FE65E598FE75E5A8FE85EDDE2E95EDC
:10E7B0005B8FEA5EDEE2EB5E5C8FEC5E5D8FED5EB2
:10E7C0005E8FEE5E5F8FEF5E608FF05E618FF15E59
:10E7D000628FF25E638FF35E648FF45EC8DBF55E7A
:10E7E000658FF65ED3D1F75EA2CDF85E668FF95ED7
:10E7F000678FFA5EA8BDFB5E688FFC5E698FFD5E69
:10E800006A8FFE5EC3DEFF5EA5D8005FAABF015F10
:10E81000CDDB025FECD2035FFAC6045FAAC5055FD9
:10E820006B8F065F6C8F075F6D8F085FC4DE095FBB
:10E830006E8F0A5FD7B10B5FAEDF0C5F6F8F0D5F1E
:10E84000708F0E5F718F0F5FBDCA105F728F115F87
:10E85000B1DF125F738F135FADB9145F748F155FF3
:10E86000FDD2165F758F175FA5B8185FEBBA195FF9
:10E87000768F1A5F778F1B5FDAB31C5F788F1D5F0F
:10E88000798F1E5F7A8F1F5FDCB5205FC5D5215F52
:10E890007B8F225F7C8F235F7D8F245F7E8F255F40
:10E8A000D6C3265FD2CF275FA1BB285F808F295FA9
:10E8B000F3E52A5FF2E52B5F818F2C5F828F2D5F5E
:10E8C000F4E52E5F838F2F5FE4CD305F848F315F5F
:10E8D000F5C8325F858F335F868F345F878F355FF2
:10E8E000888F365F898F375F8A8F385F8B8F395F6C
:10E8F000AFB53A5FBFC73B5F8C8F3C5FF6E53D5FCE
:10E900008D8F3E5F8E8F3F5F8F8F405FB0EC415F9A
:10E91000908F425F918F435F928F445F938F455FEB
:10E92000948F465F958F475F968F485F978F495FBB
:10E93000988F4A5F998F4B5F9A8F4C5F9B8F4D5F8B
:10E940009C8F4E5F9D8F4F5F9E8F505FE6E5515FBE
:10E950009F8F525FE9B9535FB1B5545FA08F555F88
:10E96000BCC2565FE8E5575FE7E5585FE9E5595FE8
:10E97000A18F5A5FA28F5B5FA38F5C5FA48F5D5FE7
:10E98000CDD25E5FA58F5F5FA68F605FA78F615F4F
:10E99000EAE1625FCED0635FA88F645FAECD655F52
:10E9A000A98F665FE5D1675FAA8F685FAB8F695FEC
:10E9B000CAB26A5FEBB16B5FAC8F6C5FF2B16D5F37
:10E9C000EDC56E5FAD8F6F5FAE8F705FC3D5715F4A
:10E9D000B0D3725FAF8F735FDCE1745FB08F755F30
:10E9E000B18F765FB28F775FDDE1785FB38F795F4C
:10E9F000DBD27A5FB48F7B5FB9B37C5FCBB17D5FD5
:10EA0000B58F7E5FB68F7F5FB78F805FF9CD815FF7
:10EA1000F7D5825FDEE1835FB88F845FB6BE855F26
:10EA2000FDB4865FB98F875FDFE1885FDCBA895FFD
:10EA3000E0E18A5FB2BB8B5FC9C28C5FE1E18D5FB1
:10EA4000BA8F8E5FBB8F8F5FBC8F905FECD0915F72
:10EA5000BD8F925FBDCD935FBE8F945FBF8F955F7B
:10EA6000E2E1965FC08F975FC3B5985FC7C5995FB6
:10EA7000E3E19A5FC18F9B5FC28F9C5FE4E19D5F82
:10EA8000C38F9E5FC48F9F5FC58FA05FC68FA15F3E
:10EA9000F9D3A25FC78FA35FC88FA45FC98FA55F9B
:10EAA000CA8FA65FCB8FA75FCC8FA85FE5E1A95F78
:10EAB000CD8FAA5FADD1AB5FCE8FAC5FCF8FAD5F97
:10EAC000E6E1AE5FA2CEAF5FD08FB05FD18FB15F16
:10EAD000D28FB25FD38FB35FD48FB45FD58FB55F62
:10EAE000E7E1B65FD68FB75FC2B5B85FD78FB95FC2
:10EAF000D88FBA5FD98FBB5FDA8FBC5FE8E1BD5FAB
:10EB0000D5BBBE5FDB8FBF5FDC8FC05FDD8FC15FBA
:10EB1000DE8FC25FDF8FC35FC4D0C45FE0E2C55F3A
:10EB2000D8B1C65FE4D2C75FE08FC85FE18FC95F2D
:10EB3000E1E2CA5FE28FCB5FE38FCC5FC9BCCD5F00
:10EB4000CCC8CE5FE48FCF5FE3E2D05FFEECD15F55
:10EB5000FDECD25FAFDFD35FE58FD45FE68FD55F8B
:10EB6000E78FD65FE2E2D75FBED6D85FFCCDD95F34
:10EB7000A6C3DA5FE88FDB5FE98FDC5FEA8FDD5FDA
:10EB8000C3E3DE5FEB8FDF5FEC8FE05FD2D6E15F48
:10EB9000E7E2E25FED8FE35FEE8FE45FE8E2E55FDF
:10EBA000EF8FE65FF08FE75FC7D3E85FF18FE95F34
:10EBB000F28FEA5FECE2EB5FECBFEC5FF38FED5FAF
:10EBC000EDE2EE5FE5E2EF5FF48FF05FF58FF15F6E
:10EBD000C0B3F25FF68FF35FF78FF45FF88FF55FE6
:10EBE000EEC4F65FF98FF75FFA8FF85FEEE2F95F38
:10EBF000FB8FFA5FFC8FFB5FC3D0FC5FFD8FFD5F77
:10EC0000F6BAFE5FE9E2FF5FDEB70060B3BB01600A
:10EC1000ACCC0260CBCB0360E4E20460E6E20560CA
:10EC2000EAE20660EBE20760FE8F08604090096050
:10EC300041900A60F7E20B6042900C6043900D60D7
:10EC4000F4E20E60F5D40F60F3E2106044901160BE
:10EC500045901260ADC5136046901460FAD51560FA
:10EC6000C2C51660C0B2176047901860489019601E
:10EC7000EFE21A6049901B60F2E21C60AFC11D60B8
:10EC8000BCCB1E604A901F604B902060A1B52160F4
:10EC9000F9E222604C9023604D9024604E902560F4
:10ECA000B1BC2660F1E22760D4D02860B9D42960D5
:10ECB000F5E22A60D6B92B60F6E22C604F902D6009
:10ECC00050902E6051902F60D3C7306052903160C9
:10ECD0005390326054903360559034605690356054
:10ECE000F0E236605790376058903860599039603C
:10ECF0005A903A605B903B60DCD73C60A1ED3D6090
:10ED00005C903E605D903F60F8E240605E904160E4
:10ED1000A5ED4260FEE24360D1CA44605F90456069
:10ED2000609046606190476062904860639049607F
:10ED300064904A6065904B60B5C14C6066904D60D0
:10ED4000D0BB4E6067904F6068905060D6BF5160F6
:10ED500069905260E3BA53606A9054606B9055605A
:10ED6000A1CB56606C9057606D9058606E90596062
:10ED7000A6ED5A60A3ED5B606F905C6070905D6083
:10ED8000A2ED5E6071905F607290606073906160F0
:10ED900074906260D6BB6360A7ED6460F4D0656078
:10EDA0007590666076906760A4ED6860DEBA696011
:10EDB000F7B66A60A1E36B60B2B66C60F1CC6D60CF
:10EDC000A7B96E6077906F60A2CF7060A1C77160C5
:10EDD0007890726079907360D2BF74607A90756039
:10EDE0007B907660F1B677607C907860FAE279602B
:10EDF000FBE27A60FDE27B60FCE27C60D5C47D6072
:10EE0000A2E37E607D907F60C1D380607E90816050
:10EE10008090826081908360A7E38460C4C785602E
:10EE200082908660839087608490886085908960F6
:10EE3000A4CF8A6086908B6087908C60A9E38D60F8
:10EE4000B7BA8E6088908F60899090608A90916048
:10EE50008B909260A8E393608C909460DABB95608D
:10EE60008D909660A3E397608E9098608F909960E4
:10EE700090909A60A4E39B60AAE39C6091909D604F
:10EE8000A6E39E6092909F60F2CEA060C6D3A16080
:10EE90009390A2609490A360BCBBA4609590A56081
:10EEA0009690A660C3D4A7609790A860FAC4A960A2
:10EEB0009890AA609990AB60A8EDAC60FCD0AD6072
:10EEC000A5E3AE609A90AF60F5C3B0609B90B1606F
:10EED000ADE3B260AFB1B3609C90B460B2E3B56033
:10EEE0009D90B6609E90B7609F90B860C2BCB960BC
:10EEF000A090BA60A190BB60ACE3BC60BFB5BD6040
:10EF0000A290BE60A390BF60A490C060A590C160B5
:10EF1000A690C260A790C360A890C460A990C56085
:10EF2000E9C7C660B0E3C760AA90C860AB90C9608B
:10EF3000AC90CA60AABECB60EFCDCC60AD90CD6086
:10EF4000AE90CE60AF90CF60B090D060B190D16005
:10EF5000F3BBD260B290D360B390D460B490D5606C
:10EF6000E8CCD660B590D760B690D860AFE3D960F2
:10EF7000B790DA60B1E3DB60B890DC60A7CFDD600A
:10EF8000AEE3DE60B990DF60A9CEE060DDBBE1609A
:10EF9000BA90E260BB90E360BC90E460BD90E56035
:10EFA000BE90E660EBB5E760E5BEE860D2B2E9602E
:10EFB000CDB3EA60BF90EB60B9B1EC60ABE3ED605C
:10EFC000D1B2EE60ACB5EF60DFB9F060E8B6F160E9
:10EFD000C090F260C190F360EBCFF460B7E3F560EE
:10EFE000C290F660CCBBF760C390F860C490F96043
:10EFF000C7C8FA60CAD0FB60C590FC60C690FD60CF
:10F00000C790FE60C890FF60C9900061B8E30161DD
:10F01000EEB30261CA900361CB900461CC900561AC
:10F02000CD900661A9ED0761CE900861FAD3096120
:10F03000E4D30A61CF900B61D0900C61D1900D6147
:10F04000AAED0E61B9E30F61E2D21061D2901161B5
:10F05000D3901261D4901361D5901461D69015614C
:10F06000B5E31661D7901761D8901861D9901961EE
:10F07000DA901A61DED31B61DB901C61DC901D61AC
:10F08000DD901E61DE901F61D0B82061B3E3216185
:10F09000DF902261E0902361B6E32461DFB7256150
:10F0A000E1902661B4E32761A2C02861E290296162
:10F0B000E3902A61E4902B61BAE32C61E5902D6125
:10F0C000E6902E61E7902F61E8903061E990316120
:10F0D000EA903261EB903361EC903461ED903561F0
:10F0E000EE903661EF903761F0903861F1903961C0
:10F0F000F2903A61F3903B61F4903C61F5903D6190
:10F10000F6903E61F7903F61B8D44061F89041615C
:10F11000F9904261FA904361FB904461FC90456133
:10F12000FD904661FE90476140914861C8B44961D5
:10F1300041914A61BBE34B6142914C61C5BB4D615A
:10F1400043914E61F7C94F614491506145915161BE
:10F15000E5C95261469153614791546148915561A7
:10F16000BDC45661499157614A9158614B915961AB
:10F170004C915A614D915B614E915C614F915D6123
:10F18000ABED5E6150915F6151916061529161613F
:10F1900053916261FDC263615491646155916561EF
:10F1A0005691666157916761DBBB6861AEBF69616B
:10F1B00058916A6159916B615A916C615B916D6173
:10F1C0005C916E615D916F615E917061BFCE7161A6
:10F1D0005F91726160917361619174616291756117
:10F1E000BCE3766163917761B6BF786164917961C0
:10F1F00065917A6166917B6167917C6168917D61BF
:10F2000069917E616A917F616B9180616C9181618E
:10F210006D9182616E9183616F918461709185615E
:10F22000719186617291876173918861749189612E
:10F2300075918A6176918B61EFB18C6177918D6167
:10F2400078918E61F7D48F61799190617A91916113
:10F250007B9192617C9193617D919461BEE3956114
:10F260007E91966180919761819198618291996177
:10F2700083919A6184919B6185919C6186919D6146
:10F28000ADED9E6187919F618891A0618991A16197
:10F290008A91A2618B91A3618C91A4618D91A561EA
:10F2A0008E91A6618F91A761BFE3A861A9BAA961F8
:10F2B000ACEDAA619091AB619191AC61BDE3AD61A0
:10F2C0009291AE619391AF619491B0619591B1616A
:10F2D0009691B2619791B3619891B4619991B5613A
:10F2E0009A91B6619B91B761C0E3B8619C91B96195
:10F2F0009D91BA619E91BB619F91BC61A091BD61DE
:10F30000A191BE61B6BABF61A291C061A391C16172
:10F31000A491C261AEB6C361A591C461A691C56155
:10F32000A791C661A891C761A991C861B8D0C96108
:10F33000AA91CA61C3B0CB61AEEDCC61AB91CD6196
:10F34000AC91CE61AD91CF61AE91D061AF91D16101
:10F35000AFEDD261C1C0D361B091D461C1E3D561D9
:10F36000B191D661B291D761B391D861B491D961AD
:10F37000B591DA61B691DB61B791DC61B891DD617D
:10F38000B991DE61BA91DF61BB91E061BC91E1614D
:10F39000BD91E261BE91E361BF91E461C091E5611D
:10F3A000C191E661B3C5E761C291E861C391E961CA
:10F3B000C491EA61C591EB61C691EC61C791ED61C1
:10F3C000C891EE61C991EF61CA91F061CB91F16191
:10F3D000CC91F261CD91F361CE91F461CF91F56161
:10F3E000C2E3F661D091F761D191F861D291F961F0
:10F3F000D391FA61D491FB61D591FC61D691FD6105
:10F40000D791FE61D891FF61B2DC0062D9910162AF
:10F41000DA910262DB910362DC910462DD910562A4
:10F42000DE910662B0ED0762DF910862EAB8096218
:10F43000E0910A62ECCE0B62A7EA0C62E7D00D62A3
:10F44000F9CA0E62D6C80F62B7CF1062C9B3116293
:10F45000D2CE1262E4BD1362E1911462E2911562B0
:10F46000DEE31662F2BB1762A8EA1862BDD5196224
:10F47000E3911A62DDC61B62A9EA1C62E4911D6277
:10F48000E5911E62E6911F62AAEA2062E79121627D
:10F49000ACEA2262ABEA2362E8912462AEEA25621A
:10F4A000ADEA2662E9912762EA912862EB9129622E
:10F4B000EC912A62D8BD2B62ED912C62AFEA2D62ED
:10F4C000EE912E62BEC22F62EF913062F0913162F6
:10F4D000F1913262F2913362C1B43462F7B43562B1
:10F4E000F3913662F4913762A7BB3862F5913962C5
:10F4F000F6913A62F7913B62F8913C62F9913D6274
:10F50000E6EC3E62E5EC3F62BFB74062F9CB416298
:10F51000E2B14262FA914362E7EC4462FB914562D8
:10F52000FC914662FD914762C8C94862E8EC4962B5
:10F53000E9EC4A62FE914B62D6CA4C62D0DE4D6263
:10F54000C5B24E62FAD44F6240925062419251620B
:10F55000CBC65262C7B05362F2B45462D3C855628C
:10F56000429256624392576244925862D0CD596299
:10F5700045925A6246925B62B8BF5C6247925D6296
:10F5800048925E6249925F624A9260624B92616207
:10F590004C9262624D926362DBBF64624E9265621E
:10F5A0004F926662A4C76762B4D66862509269627D
:10F5B000A9C06A62D1DE6B62A8C96C62EFD16D62CC
:10F5C000A4C56E62E7B06F62B6B37062C5C87162FF
:10F5D0005192726252927362E2B074625392756297
:10F5E00054927662F6B77762559278625692796253
:10F5F000FAC57A6257927B6258927C62F3B67D625A
:10F6000059927E62D2D57F62D0B38062BCBC8162E7
:10F610005A9282625B9283625C928462ADB385622D
:10F620005D9286625E9287625F9288626092896272
:10F63000F1BE8A62D1B08B6261928C6262928D62FD
:10F6400063928E6264928F6265929062669291621A
:10F65000D6D29262E3CA9362A5D79462679295620A
:10F66000B6CD9662B6B69762B9BF9862DBD599629D
:10F6700068929A62A7B89B62D7C59C6269929D62A4
:10F680006A929E626B929F62D2DEA062D9BFA16233
:10F69000D5C2A262C0C7A3626C92A462A4BBA562D9
:10F6A000A8B1A6626D92A7626E92A862EAC5A9622D
:10F6B0006F92AA627092AB62FBC5AC62A7CCAD62DE
:10F6C0007192AE627292AF627392B0627492B162E2
:10F6D000A7B1B2627592B3627692B4627792B56264
:10F6E000D6B5B6627892B7627992B8627A92B96208
:10F6F000A8C4BA627B92BB62D3DEBC62BAD1BD62DF
:10F70000E9B3BE627C92BF62F2C3C0627D92C16205
:10F710007E92C262F7B7C3628092C462F4D6C562B9
:10F72000A3B5C662F0B2C762B4C4C862E9C4C96214
:10F73000ADC0CA62D4DECB628192CC62E8B0CD6249
:10F74000C4C5CE62E0C1CF628292D062D5B9D16227
:10F750008392D262DCBED362D8CDD462CEB0D56201
:10F760008492D662CFCDD762D6DED862D0BED962BF
:10F77000BED7DA62D5DEDB62D0D5DC62DDB0DD6219
:10F780008592DE628692DF62E2C4E0628792E16285
:10F790008892E262A3C2E362F0BCE4628992E5620D
:10F7A000B5D3E662B9C0E762A1C5E862A6B2E96274
:10F7B000F1D4EA628A92EB628B92EC62A8C0ED62AD
:10F7C000C3CAEE62D7DEEF62FCD5F0628C92F162C2
:10F7D000B0B9F2628D92F362ADC8F462A9CBF56262
:10F7E0008E92F662D9DEF762BDBFF8628F92F9623F
:10F7F0009092FA629192FB629292FC62B4C6FD62B0
:10F80000A7D7FE62B0CAFF62C3C4006393920163CC
:10F81000D6B30263D2B903639492046395920563ED
:10F820009692066397920763B8D60863FCEA096369
:10F83000B4B00A6398920B6399920C639A920D6329
:10F840009B920E63E6BF0F639C9210639D921163BF
:10F85000F4CC12639E9213639F921463A09215637B
:10F86000A1921663DACD1763A2921863A39219636B
:10F87000A4921A63BFD61B63CEC21C63A5921D63FC
:10F88000CECE1E63A2CC1F63AED02063D3C421634F
:10F89000B2B52263D8DE2363F5D52463B7BC2563F4
:10F8A000D3BB2663A6922763A7922863A4B02963DB
:10F8B000A8922A63B2C52B63ECB42C63A9922D6382
:10F8C000AA922E63AB922F63F1D53063AC92316371
:10F8D000AD923263FDEA3363AE923463AF92356327
:10F8E000B0923663B1923763B2923863B3923963A0
:10F8F000DADE3A63A6CD3B63B4923C63B5923D63D6
:10F90000ECCD3E63B6923F63B7924063B8924163D9
:10F91000B9924263E6CE4363DCDE4463BA92456348
:10F92000B1CD4663A6C04763BB924863BC924963AE
:10F93000BDD74A63BD924B63DBDE4C63C6B04D63FB
:10F94000B4BA4E63D3C94F63F3C45063E8BE516386
:10F95000BE925263BF925363C0925463C192556387
:10F96000B6B25663C2925763C3925863C492596346
:10F97000C5925A63C6925B63C7925C63C8925D632B
:10F98000C9925E63CCC05F63F0CB6063CA9261636F
:10F99000F1BC6263BBBB6363B7B56463CB92656361
:10F9A000CC926663CD926763F5C56863CE92696356
:10F9B000E6DE6A63CF926B63D0926C63D1926D6323
:10F9C000E3DE6E63DDBE6F63D2927063D3927163C8
:10F9D000DFDE7263D4927363D5927463D6927563DB
:10F9E000D7927663B7B47763DDBD7863D8927963D5
:10F9F000D9927A63E0DE7B63EDC47C63DA927D6347
:10FA0000DB927E63DC927F63DD928063C6CF81638D
:10FA1000DE928263E0B58363DF928463E092856364
:10FA2000E1928663E2928763DEB68863DACA89630D
:10FA3000F4B58A63E5DE8B63E3928C63C6D58D6390
:10FA4000E4928E63E1DE8F63CDCC9063FEC691635A
:10FA5000E5929263C5C59363E6929463E7929563DA
:10FA6000E8929663B4D29763E9929863F2BE996381
:10FA7000EA929A63EB929B63EC929C63ED929D6396
:10FA8000EE929E63EF929F63F092A063D3C2A16354
:10FA9000F192A263BDCCA363B8B3A463F292A56351
:10FAA000D3BDA663F392A763D8BFA863C6CDA963ED
:10FAB000DAD1AA63EBB4AB63F492AC63E4DEAD637A
:10FAC000DDDEAE63E7DEAF63F592B063FEEAB163FD
:10FAD000F692B263F792B363B0C2B463E2DEB56389
:10FAE000F892B663F992B763C0D6B863A7B5B963A5
:10FAF000FA92BA63F4B2BB63FB92BC63E8DEBD6307
:10FB0000FC92BE63F2DEBF63FD92C063FE92C163EE
:10FB10004093C2634193C3634293C463EDDEC56304
:10FB20004393C663F1DEC7634493C8634593C963D7
:10FB3000E0C8CA634693CB634793CC634893CD63D5
:10FB4000E1D7CE63EFDECF63E8C3D063E1CCD1630E
:10FB50004993D263E5B2D3634A93D4634B93D5639D
:10FB60004C93D663BED2D7634D93D8634E93D9637B
:10FB70004F93DA635093DB635193DC635293DD63FD
:10FB80005393DE63EEDEDF635493E063EBDEE16309
:10FB9000D5CEE2635593E363A7B4E4635693E5637C
:10FBA0005793E6635893E7635993E8635A93E9637D
:10FBB000ABBFEA63BEBEEB635B93EC635C93ED6348
:10FBC000D2BDEE635D93EF635E93F0635F93F16389
:10FBD0006093F263E9DEF3636193F463AED4F5639B
:10FBE0006293F663DEDEF7636393F863EADEF9633C
:10FBF0006493FA636593FB636693FC636793FD63A9
:10FC0000BFC0FE636893FF63ECDE0064F3B201647F
:10FC1000E9B80264A7C20364699304646A93056443
:10FC2000C1BD06646B9307646C9308646D930964AB
:10FC30006E930A646F930B64F5DE0C64F8DE0D645A
:10FC400070930E6471930F64ABB21064A4B411642A
:10FC50007293126473931364EAB41464A6C91564AE
:10FC60007493166475931764769318647793196484
:10FC700078931A6479931B64F6DE1C64D1CB1D64FF
:10FC80007A931E64E3B81F647B932064F7DE2164DB
:10FC9000FADE22647C9323647D9324647E9325643E
:10FCA00080932664F9DE2764819328648293296413
:10FCB00083932A64C2CC2B6484932C64E1B02D64BA
:10FCC000EEB42E6485932F648693306487933164F9
:10FCD00088933264899333648A933464BAE53564D3
:10FCE0008B9336648C9337648D9338648E93396428
:10FCF0008F933A64AFD03B6490933C6491933D649E
:10FD0000EBB23E6492933F64A1EB406493934164F1
:10FD1000F4DE42649493436495934464E3C9456478
:10FD2000F3DE4664DAB04764A1D24864F7B14964AF
:10FD300096934A64AFCC4B6497934C6498934D640C
:10FD400099934E649A934F649B9350649C9351642F
:10FD50009D935264F0DE53649E935464A4CB556427
:10FD60009F935664A0935764A1935864AAD559648D
:10FD7000A2935A64A3935B64A4935C64A5935D64AB
:10FD8000A6935E64FBDE5F64A7936064A8936164DE
:10FD9000A9936264AA936364AB936464AC9365644F
:10FDA000AD936664AE936764DDB46864AF936964D1
:10FDB000A6C46A64B0936B64B1936C64B2936D64CF
:10FDC000FDDE6E64B3936F64B4937064B593716435
:10FDD000B6937264B7937364B8937464B99375649B
:10FDE000BA937664BB937764BC937864FEC37964FA
:10FDF000A1C47A64A1DF7B64BD937C64BE937D64FF
:10FE0000BF937E64C0937F64C1938064C293816416
:10FE1000C3938264CCC18364C4938464FCDE856430
:10FE2000EFBE8664C5938764B2C68864C69389644E
:10FE3000C7938A64C8938B64C9938C64CA938D6496
:10FE4000CB938E64CC938F64CD939064CE93916466
:10FE5000C5B39264F6C89364CF939464D0939564C9
:10FE6000BACB9664FEDE9764D1939864D29399647A
:10FE7000A4DF9A64D3939B64D4939C64D5939D64CC
:10FE8000D6939E64B2D79F64D793A064D893A1649D
:10FE9000D993A264DA93A364DB93A464B7B3A56493
:10FEA000DC93A664DD93A764DE93A864DF93A96462
:10FEB000C3C1AA64E093AB64E193AC64CBC7AD6407
:10FEC000A5B2AE64E9B4AF64E293B064ABD7B164F9
:10FED000E393B264E493B364E593B464E693B564E6
:10FEE000ECC4B664E793B764A2DFB864A3DFB96477
:10FEF000E893BA64A5DFBB64E993BC64B3BABD649C
:10FF0000EA93BE64EB93BF64EC93C064A6DFC16464
:10FF1000ED93C264DEC0C364EE93C464EF93C56422
:10FF2000C3C9C664F093C764F193C864F293C9640B
:10FF3000F393CA64F493CB64F593CC64F693CD64E5
:10FF4000D9B2CE64E6C7CF64F793D064A7DFD1649B
:10FF5000F893D264DCC7D364F993D464FA93D5647C
:10FF6000FB93D664FC93D764A8DFD864A2EBD96472
:10FF7000FD93DA64FE93DB644094DC644194DD64B9
:10FF80004294DE64D3CBDF644394E0644494E16440
:10FF90004594E264AADFE3644694E464A9DFE5647F
:10FFA0004794E664C1B2E7644894E8644994E9641C
:10FFB0004A94EA644B94EB644C94EC644D94ED6485
:10FFC0004E94EE644F94EF645094F0645194F16455
:10FFD0005294F2645394F3645494F4645594F56425
:10FFE0005694F6645794F7645894F8645994F964F5
:10FFF0005A94FA645B94FB645C94FC645D94FD64C5
:020000040801F1
:100000005E94FE645F94FF6460940065CAC50165F8
:100010006194026562940365639404656494056564
:100020006594066566940765679408656894096534
:10003000ABDF0A6569940B656A940C656B940D657A
:100040006C940E656D940F656E9410656F941165D8
:1000500070941265DCD413657194146572941565FF
:10006000739416657494176575941865C1C81965FD
:1000700076941A6577941B6578941C6579941D6550
:100080007A941E657B941F657C9420657D94216520
:100090007E942265809423658194246582942565ED
:1000A000ACDF26658394276584942865859429654B
:1000B00086942A6587942B65F0BE2C6588942D65FF
:1000C00089942E65ADDF2F65A7D630658A9431659A
:1000D0008B9432658C9433658D943465B7EA3565BD
:1000E000B6EB3665D5CA37658E943865FCD8396568
:1000F000C4B83A658F943B65A5B93C6590943D655D
:1001000091943E65C5B73F65FED5406592944165C3
:10011000939442659494436595944465969445659B
:10012000CAB946659794476598944865A7D04965CC
:10013000CDF44A6599944B659A944C65D0B54D655C
:100140009B944E659C944F65F4C350659D94516596
:10015000C8BE52659E9453659F945465A09455659E
:10016000B7EB5665BDB05765A1945865A294596523
:10017000CCBD5A65A3945B65B2C15C65A4945D6512
:10018000D6B15E65A8B35F65A5946065A694616508
:10019000A7946265D2B86365A2C96465A8946565D1
:1001A000A9946665D8B66765AA946865AB946965D5
:1001B000AC946A65AD946B65B8EB6C65B4BE6D6567
:1001C000AE946E65AF946F65B0947065FDCA71654D
:1001D000B1947265C3C77365B2947465FBD57565D8
:1001E000B3947665B4947765F3B77865B59479651B
:1001F000B6947A65B7947B65B8947C65B9947D654F
:10020000BA947E65BB947F65BC948065BD9481651E
:10021000BE948265BF948365C0948465C1948565EE
:10022000C2948665C3948765C4CE8865C494896585
:10023000C5948A65C6948B65ABD58C65F3B18D6525
:10024000C7948E65C8948F65C9949065B3EC916529
:10025000DFB09265CA949365B5EC9465CB949565CF
:10026000CC949665CD949765B7B69865CE9499650C
:10027000CFC19A65CF949B65FAF59C65B1D09D6519
:10028000D0949E65D1949F65E5D5A065D294A16573
:10029000D3CEA265D394A365D494A465EFBDA56520
:1002A000E2B3A665D594A765ABB8A865D694A96551
:1002B000B6D5AA65D794AB65BDEDAC65D894AD65F0
:1002C000CFB6AE65D994AF65B9CBB065C2D0B165D4
:1002D000DA94B265DB94B365DC94B465DD94B565FE
:1002E000DE94B665DF94B765E094B865E194B965CE
:1002F000BDB7BA65E294BB65E394BC65B6ECBD6579
:10030000A9CABE65E494BF65E594C065E694C1657D
:10031000D4C5C265E794C365B9ECC465B8ECC565DE
:10032000C3C2C665B7ECC765E894C865E994C965FA
:10033000EA94CA65EB94CB65FDD0CC65BAECCD658B
:10034000EC94CE65BBECCF65E5D7D065ED94D16577
:10035000EE94D265BCECD365EF94D465F094D5658A
:10036000F194D665BDECD765ECC6D865F294D96535
:10037000F394DA65F494DB65F594DC65F694DD6559
:10038000F794DE65F894DF65F994E065DECEE1650B
:10039000FA94E265C8BCE365FB94E465FC94E5650A
:1003A000D5C8E665A9B5E765C9BEE865BCD6E96507
:1003B000E7D4EA65FD94EB65FE94EC65AED1ED659E
:1003C000F1D0EE65B8EAEF65B9EAF065BAEAF16531
:1003D000B5BAF2654095F3654195F4654295F565CA
:1003E0004395F665B1CAF765F5BFF8654495F965BB
:1003F0004595FA65FACDFB654695FC654795FD6523
:100400004895FE654995FF654A950066C0EA016614
:100410004B950266BAB00366BEEA04664C95056663
:100420004D950666A5C007664E9508664F95096608
:1004300050950A66BBEA0B6651950C66FDB20D66D7
:1004400052950E66F7C30F66E8BB106653951166AA
:100450005495126655951366D7D21466F4CE156678
:10046000BFEA166656951766579518665895196629
:10047000BCEA1A6659951B665A951C665B951D6603
:10048000C3EA1E665C951F66C7D02066B3D321669B
:100490005D9522665E9523665F9524666095256668
:1004A000BAB4266661952766C1C32866F2D7296665
:1004B00062952A6663952B6664952C6665952D6614
:1004C000D1D52E6666952F66C7CA306667953166A8
:1004D000C5EA32666895336669953466C4EA35665E
:1004E000C7EA3666C6EA37666A9538666B95396636
:1004F0006C953A666D953B666E953C66E7D63D66B3
:100500006F953E66D4CF3F667095406671954166A3
:10051000CBEA426672954366CEBB446673954566E8
:1005200074954666759547667695486677954966EB
:1005300078954A6679954B66FABD4C66CEC94D668C
:100540007A954E667B954F66CCEA50667C955166EF
:100550007D955266B9C95366FECF5466CAEA5566A0
:10056000CED45666CDEA5766CFEA58667E95596670
:1005700080955A66EDCD5B6681955C6682955D6679
:1005800083955E6684955F66C9EA60668595616657
:10059000CEEA62668695636687956466EECE65668A
:1005A00088956666DEBB676689956866BFB36966CF
:1005B0008A956A668B956B668C956C668D956D6673
:1005C0008E956E66D5C66F66B0BE7066FACE7166E1
:1005D0008F9572669095736691957466E7C7756698
:1005E00092957666A7BE7766D0EA78669395796627
:1005F00094957A66C7D67B6695957C6696957D665A
:1006000097957E66C0C17F6698958066999581664C
:100610009A958266DDD483669B958466D1EA856669
:100620009C9586669D958766BECF88669E958966F1
:100630009F958A66A0958B66A1958C66D2EA8D6699
:10064000A2958E66A3958F66A4959066A5959166F2
:10065000EECA9266A6959366A7959466A895956648
:10066000A9959666AFC59766B5B09866AA9599663E
:10067000AB959A66AC959B66AD959C66AE959D666E
:10068000D4EA9E66AF959F66B095A066B195A166C7
:10069000B295A266B395A366B495A466B595A56612
:1006A000B695A666B795A766D3EAA866DFF4A966ED
:1006B000B895AA66B995AB66BA95AC66BB95AD66BA
:1006C000BC95AE66BAC4AF66BD95B066BE95B16660
:1006D000BF95B266C095B366C195B466A9B1B5665B
:1006E000C295B666C395B766C495B866C595B96632
:1006F000DFE5BA66C695BB66C795BC66C895BD669C
:10070000C995BE66D5EABF66CA95C066CB95C16677
:10071000CC95C266CD95C366CE95C466CF95C566A9
:10072000D095C666D195C766D295C866D395C96679
:10073000D495CA66D595CB66D695CC66D795CD6649
:10074000D895CE66D995CF66DA95D066DB95D16619
:10075000DC95D266DD95D366DE95D466DF95D566E9
:10076000E095D666E195D766E295D866E395D966B9
:10077000EFCADA66E495DB66D6EADC66D7EADD66C0
:10078000D8C6DE66E595DF66E695E066E795E16644
:10079000E895E266E995E366EA95E466EB95E56639
:1007A000EC95E666D8EAE766ED95E866EE95E966CB
:1007B000D9EAEA66EF95EB66F095EC66F195ED66A1
:1007C000F295EE66F395EF66F495F066BBD4F166AC
:1007D000F595F266FAC7F366B7D2F466FCB8F5662B
:1007E000F695F666F795F766C2EAF866F895F96643
:1007F000DCB2FA66F995FB66FA95FC66FCC2FD660A
:10080000FB95FE66F8D4FF66E6CC0067EED701677D
:10081000FC950267FD950367FE95046740960567A2
:10082000419606674296076743960867C2D40967F0
:10083000D0D30A67C3EB0B67F3C50C6744960D670B
:10084000FEB70E6745960F6746961067D4EB1167A3
:10085000479612674896136749961467B7CB156792
:10086000DEEB16674A961767CAC018674B9619677A
:100870004C961A674D961B67FBCD1C674E961D67FD
:10088000AFB31E674F961F67DAC620675096216781
:10089000519622675296236753962467549625678C
:1008A00055962667FCEB276756962867BEC42967CE
:1008B00057962A67B4CE2B67A9C42C67BEB12D67A3
:1008C000FDD42E6758962F67F5CA30675996316761
:1008D000ECD632675A9633675B963467D3C6356772
:1008E000E4B636675C9637675D9638675E9639671B
:1008F0005F963A67FABB3B6760963C6761963D67D7
:10090000E0D03E6762963F6763964067B1C9416732
:1009100064964267D3D44367A8C844676596456721
:1009200066964667CBB8476767964867BEE84967EB
:10093000BCC94A6768964B6769964C67BBE84D67C8
:100940006A964E67EEC04F67D3D05067C4B2516706
:10095000E5B452676B965367BCE854676C9655676D
:100960006D965667C8D557676E9658676F965967E4
:1009700070965A6771965B6772965C67C5B65D67DD
:1009800073965E67BDE85F67F8CA6067DCB8616749
:10099000F5CC62677496636775966467769665674B
:1009A000B4C066677796676778966867EED16967BF
:1009B000BFE86A67C2E86B6779966C677A966D677D
:1009C000BCBA6E677B966F67ADB17067DCBD71674F
:1009D0007C967267BDEA7367C3E874677D96756736
:1009E000C6E876677E967767CBE878678096796702
:1009F00081967A6782967B6783967C67CCE87D6771
:100A000084967E67C9CB7F67E5B0806785968167EE
:100A1000ABBC82678696836787968467B9B985671A
:100A20008896866789968767C1E888678A96896706
:100A3000F7CD8A678B968B67CAE88C678C968D6733
:100A40008D968E678E968F678F969067F6CE91679C
:100A5000909692679196936792969467939695670E
:100A6000EDD5966794969767D6C19867C4E899675D
:100A700095969A67B6C39B6796969C67FBB99D67E8
:100A8000A6D69E67C8E89F679796A0679896A167C5
:100A90009996A267E0CAA367E6D4A4679A96A56769
:100AA000C0E8A6679B96A767C5E8A867C7E8A967D7
:100AB0009C96AA67B9C7AB67E3B7AC679D96AD676D
:100AC000C9E8AE679E96AF67DDBFB067D2E8B16791
:100AD0009F96B267A096B367D7E8B467A196B5674B
:100AE000D5E8B667DCBCB767CFBCB867DBE8B967E9
:100AF000A296BA67A396BB67A496BC67A596BD6786
:100B0000A696BE67A796BF67A896C067A996C16755
:100B1000DEE8C267AA96C367DAE8C467FAB1C567B8
:100B2000AB96C667AC96C767AD96C867AE96C96701
:100B3000AF96CA67B096CB67B196CC67B296CD67D1
:100B4000B396CE67B496CF67D8B0D067B3C4D16739
:100B5000CCB8D267E2C6D367BEC8D467E1C8D56750
:100B6000B596D667B696D767B796D867CFE8D967F0
:100B7000D4E8DA67D6E8DB67B896DC67F1B9DD67F9
:100B8000D8E8DE67F5D7DF67B996E067FBC4E167B1
:100B9000BA96E267DCE8E367BB96E467BC96E56774
:100BA000E9B2E667BD96E767BE96E867BF96E96774
:100BB000D1E8EA67C096EB67C196EC67EDBCED67DC
:100BC000C296EE67C396EF67C2BFF067CDE8F167E4
:100BD000F9D6F267C496F367F8C1F467F1B2F56726
:100BE000C596F667C696F767C796F867C896F96719
:100BF000C996FA67CA96FB67CB96FC67CC96FD67E9
:100C0000DFE8FE67CD96FF67C1CA0068D9E80168D2
:100C1000CE960268CF960368D0960468D196056890
:100C2000A4D50668D2960768EAB10868BBD50968FA
:100C3000CEE80A68D0E80B68B0B60C68D3E80D6857
:100C4000D3960E68DDE80F68B8C01068D4961168B6
:100C5000F7CA1268D5961368A8CB1468D69615689B
:100C6000D7961668DCC61768F5C01868D896196854
:100C7000D9961A68DA961B68DB961C68DC961D68A4
:100C8000E9E81E68DD961F68DE962068DF96216819
:100C9000A3D02268E0962368E1962468E29625684E
:100CA000E3962668E4962768E5962868E69629681C
:100CB000F2E82A68EAD62B68E7962C68E8962D6851
:100CC000E9962E68EA962F68EB963068EC963168C4
:100CD000ED963268E0E83368E1E83468EE9635680E
:100CE000EF963668F0963768F9D13868CBBA39682C
:100CF000F9B83A68F1963B68F2963C68F1B83D68FD
:100D0000D4D43E68EFE83F68F3964068EEE8416867
:100D1000ECE84268F0B94368D2CC4468E6E845683C
:100D2000A6CE4668F2BF4768F4964868B8B04968EE
:100D3000F1E84A68F0E84B68F5964C68C0D74D6812
:100D4000F6964E68E4E84F68F7965068A9CD51686A
:100D5000A3C95268F8965368B8BB5468DBBD5568A0
:100D6000EAE85668F9965768FA965868FB96596803
:100D7000FC965A68FD965B68FE965C6840975D68D5
:100D800041975E6842975F6843976068E2E86168F0
:100D9000E3E86268E5E86368B5B56468E7E8656854
:100DA000C5C76668EBE86768EDE86868B0BD696864
:100DB000AED76A6844976B68F8E86C6845976D68C9
:100DC00046976E6847976F6848977068499771684B
:100DD0004A9772684B9773684C977468F5E8756822
:100DE0004D977668B0CD7768F6E878684E97796861
:100DF0004F977A6850977B6851977C6852977D68C7
:100E000053977E6854977F68559780685697816896
:100E1000BAC1826857978368E8E8846858978568FC
:100E2000B7C38668F0B08768599788685A97896809
:100E30005B978A685C978B685D978C685E978D6816
:100E40005F978E6860978F68F4E890686197916803
:100E50006297926863979368F7E8946864979568D7
:100E60006597966866979768A3B998686797996831
:100E700068979A6869979B686A979C686B979D6862
:100E80006C979E686D979F686E97A0686F97A16832
:100E90007097A268D2C9A3687197A4687297A56871
:100EA0007397A668CEC3A768E0CEA868E6C0A96815
:100EB0007497AA687597AB687697AC687797AD68B2
:100EC000F3CBAE687897AF68DDCCB068B5D0B168C9
:100ED0007997B2687A97B368E1CAB4687B97B568C6
:100EE000F3E8B6687C97B7687D97B8687E97B9686D
:100EF0008097BA688197BB688297BC688397BD6802
:100F00008497BE688597BF688697C068ECBCC16847
:100F10008797C268F9E8C3688897C4688997C568E5
:100F20008A97C6688B97C7688C97C8688D97C96879
:100F3000DEC3CA688E97CB68E5C6CC688F97CD684C
:100F4000F7B9CE689097CF689197D0689297D1689B
:100F50009397D268F4B0D3689497D4689597D5687E
:100F6000D8D7D6689697D7689797D868ACBCD96811
:100F70009897DA68EFC5DB689997DC689A97DD681F
:100F80009B97DE689C97DF689D97E068C4CCE1681A
:100F90009E97E2689F97E368A6E9E468A097E568F2
:100FA000A197E668A297E768A397E868A497E9681D
:100FB000A597EA68A697EB68A797EC68A897ED68ED
:100FC000A997EE68ADC9EF68AA97F068A2E9F16841
:100FD000E2C0F268AB97F368AC97F468AD97F56838
:100FE000C3BFF668AE97F768AF97F868B097F9682F
:100FF000FEE8FA68D7B9FB68B197FC68FBE8FD68C2
:10100000B297FE68B397FF68B4970069B597016916
:10101000A4E90269B6970369B7970469B8970569A7
:10102000CED20669B9970769BA970869BB9709696B
:10103000BC970A69BD970B69A3E90C69BE970D6956
:10104000B2D60E69B5D70F69BF971069A7E91169C4
:10105000C0971269B7BD1369C1971469C297156922
:10106000C3971669C4971769C5971869C697196910
:10107000C7971A69C8971B69C9971C69CA971D69E0
:10108000CB971E69CC971F69FCE82069FDE82169B0
:10109000CD972269CE972369CF972469A1E9256965
:1010A000D0972669D1972769D2972869D39729695C
:1010B000D4972A69D5972B69D6972C69D7972D692C
:1010C000D6CD2E69D8972F69D9973069ACD23169BE
:1010D000DA973269DB973369DC973469B2E93569AD
:1010E000DD973669DE973769DF973869E0973969A8
:1010F000A9E93A69E1973B69E2973C69E3973D6961
:10110000AAB43E69E4973F69BBB44069E597416979
:10111000E6974269ABE94369E7974469E89745690F
:10112000E9974669EA974769EB974869EC974969F7
:10113000ED974A69EE974B69EF974C69F0974D69C7
:10114000F1974E69F2974F69F3975069F497516997
:10115000F5975269F6975369F7975469A8D055697E
:10116000F8975669F9975769A5E95869FA9759693F
:10117000FB975A69FEB35B69FC975C69FD975D69F3
:10118000ACE95E69E3C05F69FE976069AAE96169DD
:101190004098626941986369B9E9646942986569F0
:1011A00043986669B8E967694498686945986969C8
:1011B00046986A6947986B69AEE96C6948986D69A9
:1011C00049986E69FAE86F694A9870694B98716935
:1011D000A8E972694C9873694D9874694E9875695D
:1011E0004F98766950987769ACBF7869B1E97969A9
:1011F000BAE97A6951987B6952987C69A5C27D6980
:1012000053987E6954987F6955988069AFE98169E0
:1012100056988269C5B8836957988469ADE985692C
:1012200058988669DCD38769B4E98869B5E9896922
:10123000B7E98A6959988B695A988C695B988D6966
:10124000C7E98E695C988F695D9890695E9891692D
:101250005F9892696098936961989469C6C095692E
:10126000C5E996696298976963989869B0E9996940
:1012700064989A6965989B69BBE99C69F1B09D691E
:1012800066989E6967989F696898A0696998A1693E
:101290006A98A2696B98A3696C98A4696D98A5690E
:1012A0006E98A6696F98A769BCE9A869A5D5A969D0
:1012B0007098AA697198AB69BEE9AC697298AD691A
:1012C000BFE9AE697398AF697498B0697598B169F0
:1012D000C1E9B2697698B3697798B469F1C1B56923
:1012E0007898B6697998B769B6C8B8697A98B969CB
:1012F0007B98BA697C98BB69BDE9BC697D98BD697A
:101300007E98BE698098BF698198C0698298C169DA
:10131000C2E9C2698398C3698498C4698598C5691C
:101320008698C6698798C7698898C8698998C9697D
:101330008A98CA69C3E9CB698B98CC69B3E9CD694E
:101340008C98CE69B6E9CF698D98D069B1BBD16967
:101350008E98D2698F98D3699098D469C0E9D5697D
:101360009198D6699298D7699398D8699498D969D1
:101370009598DA699698DB69F7BCDC699798DD691E
:101380009898DE699998DF69C4E9E069C6E9E1697E
:101390009A98E2699B98E3699C98E4699D98E5694D
:1013A0009E98E6699F98E769A098E869A198E9691D
:1013B000A298EA69A398EB69A498EC69A598ED69ED
:1013C000CAE9EE69A698EF69A798F069A898F1694B
:1013D000A998F269CEE9F369AA98F469AB98F5691E
:1013E000AC98F669AD98F769AE98F869AF98F96965
:1013F000B098FA69B198FB69B298FC69B398FD6935
:10140000DBB2FE69B498FF69C8E9006AB598016A61
:10141000B698026AB798036AB898046AB998056AD8
:10142000BA98066ABB98076ABC98086ABD98096AA8
:10143000BE980A6AAEB70B6ABF980C6AC0980D6A6C
:10144000C1980E6AC2980F6AC398106AC498116A4C
:10145000C598126AC698136AC798146AC898156A1C
:10146000C998166ACA98176ACBE9186ACCE9196A4A
:10147000CB981A6ACC981B6ACD981C6ACE981D6AC4
:10148000CF981E6AD0981F6AC1D5206AD198216A68
:10149000A3C4226AD298236AD398246AD498256A6E
:1014A000D598266AD698276AD798286AD8E9296AEB
:1014B000D8982A6AE1BA2B6AD9982C6ADA982D6AE8
:1014C000DB982E6ADC982F6AC9E9306ADD98316AA8
:1014D000A3D3326ADE98336ADF98346AE098356ABB
:1014E000D4E9366AE198376AE298386AE398396A4B
:1014F000E4983A6AE5983B6AE6983C6AE7983D6A60
:10150000D7E93E6AD0E93F6AE898406AE998416ABB
:10151000EA98426AEB98436AEC98446ACFE9456AD4
:10152000ED98466AEE98476AC1C7486AEF98496ADB
:10153000F0984A6AF1984B6AF2984C6AF3984D6AAF
:10154000F4984E6AF5984F6AF698506AD2E9516A53
:10155000F798526AF898536AF998546AFA98556A53
:10156000FB98566AFC98576AFD98586AD9E9596AF7
:10157000C8B35A6AFE985B6AD3E95C6A40995D6AAF
:1015800041995E6A42995F6A4399606A4499616AC7
:10159000F0CF626A4599636A4699646A4799656AB9
:1015A000CDE9666A4899676A4999686A4A99696A99
:1015B0004B996A6A4C996B6A4D996C6A4E996D6A3F
:1015C0004F996E6A50996F6A5199706A5299716A0F
:1015D000F7B3726A5399736A5499746A5599756A24
:1015E0005699766A5799776A5899786A5999796AB3
:1015F000D6E97A6A5A997B6A5B997C6ADAE97D6AEC
:101600005C997E6A5D997F6A5E99806AB4CC816AD2
:101610005F99826A6099836A6199846AADCF856AAD
:101620006299866A6399876A6499886A6599896A02
:1016300066998A6A67998B6A68998C6A69998D6AD2
:101640006A998E6AD5E98F6A6B99906ADCE9916A2A
:10165000DBE9926A6C99936A6D99946A6E99956ABE
:101660006F99966A7099976ADEE9986A7199996A92
:1016700072999A6A73999B6A74999C6A75999D6A22
:1016800076999E6A77999F6A7899A06AD1E9A16A4A
:101690007999A26A7A99A36A7B99A46A7C99A56AC6
:1016A0007D99A66A7E99A76A8099A86A8199A96A94
:1016B000DDE9AA6A8299AB6ADFE9AC6ACAC3AD6A9E
:1016C0008399AE6A8499AF6A8599B06A8699B16A3E
:1016D0008799B26A8899B36A8999B46A8A99B56A0E
:1016E0008B99B66A8C99B76A8D99B86A8E99B96ADE
:1016F0008F99BA6A9099BB6A9199BC6A9299BD6AAE
:101700009399BE6A9499BF6A9599C06A9699C16A7D
:101710009799C26A9899C36A9999C46A9A99C56A4D
:101720009B99C66A9C99C76A9D99C86A9E99C96A1D
:101730009F99CA6AA099CB6AA199CC6AA299CD6AED
:10174000A399CE6AA499CF6AA599D06AA699D16ABD
:10175000A799D26AA899D36AA999D46AAA99D56A8D
:10176000AB99D66AAC99D76AAD99D86AAE99D96A5D
:10177000AF99DA6AB099DB6AB199DC6AB299DD6A2D
:10178000B399DE6AB499DF6AB599E06AB699E16AFD
:10179000B799E26AB899E36AB999E46ABA99E56ACD
:1017A000BB99E66ABC99E76ABD99E86ABE99E96A9D
:1017B000BF99EA6AC099EB6AC199EC6AC299ED6A6D
:1017C000C399EE6AC499EF6AC599F06AC699F16A3D
:1017D000C799F26AC899F36AC999F46ACA99F56A0D
:1017E000CB99F66ACC99F76ACD99F86ACE99F96ADD
:1017F000CF99FA6AD099FB6AD199FC6AD299FD6AAD
:10180000D399FE6AD499FF6AD599006BD699016B7A
:10181000D799026BD899036BD999046BDA99056B48
:10182000DB99066BDC99076BDD99086BDE99096B18
:10183000DF990A6BE0990B6BE1990C6BE2990D6BE8
:10184000E3990E6BE4990F6BE599106BE699116BB8
:10185000E799126BE899136BE999146BEA99156B88
:10186000EB99166BEC99176BED99186BEE99196B58
:10187000EF991A6BF0991B6BF1991C6BF2991D6B28
:10188000F3991E6BF4991F6BF599206BB7C7216B09
:10189000CEB4226BB6BB236BC0D0246BA3EC256BFC
:1018A000F699266BF799276BB7C5286BF899296BC2
:1018B000F9992A6BFA992B6BFB992C6BFC992D6B80
:1018C000FD992E6BFE992F6B409A306B419A316BCC
:1018D000429A326BFBD3336B439A346B449A356B29
:1018E000459A366B469A376BA4EC386B479A396B3E
:1018F000A5EC3A6BDBC63B6B489A3C6B499A3D6B57
:101900004A9A3E6BEEBF3F6B4B9A406B4C9A416BD1
:101910004D9A426B4E9A436BA6EC446B4F9A456BC3
:10192000509A466BA7EC476BAAD0486B519A496B0B
:10193000B8C74A6B529A4B6B539A4C6BE8B84D6BD5
:10194000549A4E6B559A4F6B569A506B579A516BEF
:10195000589A526B599A536B5A9A546B5B9A556BBF
:101960005C9A566B5D9A576B5E9A586B5F9A596B8F
:10197000A8EC5A6B609A5B6B619A5C6B629A5D6BC8
:10198000639A5E6B649A5F6B659A606B669A616B33
:10199000679A626BB9D6636BFDD5646BCBB4656B2C
:1019A000BDB2666BE4CE676BE7C6686B689A696B1D
:1019B000699A6A6BE1CD6B6B6A9A6C6B6B9A6D6B13
:1019C0006C9A6E6B6D9A6F6B6E9A706B6F9A716B8F
:1019D000709A726B719A736B729A746B739A756B5F
:1019E000749A766B759A776B769A786B779A796B2F
:1019F000F5B47A6B789A7B6BC0CB7C6BDFBC7D6B6C
:101A0000799A7E6B7A9A7F6B7B9A806B7C9A816BDA
:101A1000E2E9826BE3E9836BEAD1846BE5E9856BEC
:101A20007D9A866BF9B4876BE4E9886B7E9A896B43
:101A3000B3D18A6BE2CA8B6BD0B28C6B809A8D6B00
:101A4000E8E98E6B819A8F6B829A906B839A916B87
:101A5000849A926BE6E9936BE7E9946B859A956BB0
:101A6000869A966BB3D6976B879A986B889A996B80
:101A7000899A9A6BE9E99B6BEAE99C6B8A9A9D6B60
:101A80008B9A9E6B8C9A9F6B8D9AA06B8E9AA16B92
:101A9000EBE9A26B8F9AA36B909AA46B919AA56BBA
:101AA000929AA66B939AA76B949AA86B959AA96B36
:101AB000969AAA6BECE9AB6B979AAC6B989AAD6B64
:101AC000999AAE6B9A9AAF6B9B9AB06B9C9AB16BDA
:101AD0009D9AB26B9E9AB36BAFECB46BB9C5B56B04
:101AE000CEB6B66B9F9AB76BF3D2B86BA09AB96BB0
:101AF000A19ABA6BA29ABB6BA39ABC6BA49ABD6B5A
:101B0000A59ABE6BA69ABF6BEEB5C06BA79AC16BC8
:101B1000D9BBC26BB1ECC36BA89AC46BA99AC56B55
:101B2000E3D2C66BAA9AC76BAB9AC86BAC9AC96B67
:101B3000AD9ACA6BAE9ACB6BE3CECC6BAF9ACD6B42
:101B4000B8C4CE6BB09ACF6BBFC3D06BB19AD16B18
:101B5000B29AD26BBEB6D36BB9D8D46BC8B1D56BC1
:101B6000CFB1D66BD1B1D76BFEC5D86BB39AD96B59
:101B7000D0B1DA6BB49ADB6BABC3DC6BB59ADD6BBF
:101B8000B69ADE6BB79ADF6BB89AE06BB99AE16BE5
:101B9000B1D5E26BBA9AE36BBB9AE46BBC9AE56B86
:101BA000BD9AE66BBE9AE76BBF9AE86BC09AE96B89
:101BB000C19AEA6BA4EBEB6BC1BAEC6BC29AED6B0A
:101BC000C39AEE6BC49AEF6BBACCF06BC59AF16B0B
:101BD000C69AF26BC79AF36BA5EBF46BC89AF56BD8
:101BE000A7EBF66BC99AF76BCA9AF86BCB9AF96BAD
:101BF000A8EBFA6BCC9AFB6BCD9AFC6BCE9AFD6B83
